{
  "contractName": "ContractEstate",
  "abi": [
    {
      "inputs": [
        {
          "internalType": "address",
          "name": "smartPropertyMarket",
          "type": "address"
        }
      ],
      "stateMutability": "nonpayable",
      "type": "constructor"
    },
    {
      "anonymous": false,
      "inputs": [
        {
          "indexed": true,
          "internalType": "address",
          "name": "owner",
          "type": "address"
        },
        {
          "indexed": true,
          "internalType": "address",
          "name": "approved",
          "type": "address"
        },
        {
          "indexed": true,
          "internalType": "uint256",
          "name": "tokenId",
          "type": "uint256"
        }
      ],
      "name": "Approval",
      "type": "event"
    },
    {
      "anonymous": false,
      "inputs": [
        {
          "indexed": true,
          "internalType": "address",
          "name": "owner",
          "type": "address"
        },
        {
          "indexed": true,
          "internalType": "address",
          "name": "operator",
          "type": "address"
        },
        {
          "indexed": false,
          "internalType": "bool",
          "name": "approved",
          "type": "bool"
        }
      ],
      "name": "ApprovalForAll",
      "type": "event"
    },
    {
      "anonymous": false,
      "inputs": [
        {
          "indexed": true,
          "internalType": "address",
          "name": "previousOwner",
          "type": "address"
        },
        {
          "indexed": true,
          "internalType": "address",
          "name": "newOwner",
          "type": "address"
        }
      ],
      "name": "OwnershipTransferred",
      "type": "event"
    },
    {
      "anonymous": false,
      "inputs": [
        {
          "indexed": true,
          "internalType": "address",
          "name": "from",
          "type": "address"
        },
        {
          "indexed": true,
          "internalType": "address",
          "name": "to",
          "type": "address"
        },
        {
          "indexed": true,
          "internalType": "uint256",
          "name": "tokenId",
          "type": "uint256"
        }
      ],
      "name": "Transfer",
      "type": "event"
    },
    {
      "inputs": [],
      "name": "_owner",
      "outputs": [
        {
          "internalType": "address payable",
          "name": "",
          "type": "address"
        }
      ],
      "stateMutability": "view",
      "type": "function",
      "constant": true
    },
    {
      "inputs": [
        {
          "internalType": "address",
          "name": "to",
          "type": "address"
        },
        {
          "internalType": "uint256",
          "name": "tokenId",
          "type": "uint256"
        }
      ],
      "name": "approve",
      "outputs": [],
      "stateMutability": "nonpayable",
      "type": "function"
    },
    {
      "inputs": [
        {
          "internalType": "address",
          "name": "owner",
          "type": "address"
        }
      ],
      "name": "balanceOf",
      "outputs": [
        {
          "internalType": "uint256",
          "name": "",
          "type": "uint256"
        }
      ],
      "stateMutability": "view",
      "type": "function",
      "constant": true
    },
    {
      "inputs": [
        {
          "internalType": "uint256",
          "name": "tokenId",
          "type": "uint256"
        }
      ],
      "name": "getApproved",
      "outputs": [
        {
          "internalType": "address",
          "name": "",
          "type": "address"
        }
      ],
      "stateMutability": "view",
      "type": "function",
      "constant": true
    },
    {
      "inputs": [
        {
          "internalType": "address",
          "name": "owner",
          "type": "address"
        },
        {
          "internalType": "address",
          "name": "operator",
          "type": "address"
        }
      ],
      "name": "isApprovedForAll",
      "outputs": [
        {
          "internalType": "bool",
          "name": "",
          "type": "bool"
        }
      ],
      "stateMutability": "view",
      "type": "function",
      "constant": true
    },
    {
      "inputs": [],
      "name": "name",
      "outputs": [
        {
          "internalType": "string",
          "name": "",
          "type": "string"
        }
      ],
      "stateMutability": "view",
      "type": "function",
      "constant": true
    },
    {
      "inputs": [],
      "name": "owner",
      "outputs": [
        {
          "internalType": "address",
          "name": "",
          "type": "address"
        }
      ],
      "stateMutability": "view",
      "type": "function",
      "constant": true
    },
    {
      "inputs": [
        {
          "internalType": "uint256",
          "name": "tokenId",
          "type": "uint256"
        }
      ],
      "name": "ownerOf",
      "outputs": [
        {
          "internalType": "address",
          "name": "",
          "type": "address"
        }
      ],
      "stateMutability": "view",
      "type": "function",
      "constant": true
    },
    {
      "inputs": [],
      "name": "renounceOwnership",
      "outputs": [],
      "stateMutability": "nonpayable",
      "type": "function"
    },
    {
      "inputs": [
        {
          "internalType": "address",
          "name": "from",
          "type": "address"
        },
        {
          "internalType": "address",
          "name": "to",
          "type": "address"
        },
        {
          "internalType": "uint256",
          "name": "tokenId",
          "type": "uint256"
        }
      ],
      "name": "safeTransferFrom",
      "outputs": [],
      "stateMutability": "nonpayable",
      "type": "function"
    },
    {
      "inputs": [
        {
          "internalType": "address",
          "name": "from",
          "type": "address"
        },
        {
          "internalType": "address",
          "name": "to",
          "type": "address"
        },
        {
          "internalType": "uint256",
          "name": "tokenId",
          "type": "uint256"
        },
        {
          "internalType": "bytes",
          "name": "_data",
          "type": "bytes"
        }
      ],
      "name": "safeTransferFrom",
      "outputs": [],
      "stateMutability": "nonpayable",
      "type": "function"
    },
    {
      "inputs": [
        {
          "internalType": "address",
          "name": "operator",
          "type": "address"
        },
        {
          "internalType": "bool",
          "name": "approved",
          "type": "bool"
        }
      ],
      "name": "setApprovalForAll",
      "outputs": [],
      "stateMutability": "nonpayable",
      "type": "function"
    },
    {
      "inputs": [
        {
          "internalType": "bytes4",
          "name": "interfaceId",
          "type": "bytes4"
        }
      ],
      "name": "supportsInterface",
      "outputs": [
        {
          "internalType": "bool",
          "name": "",
          "type": "bool"
        }
      ],
      "stateMutability": "view",
      "type": "function",
      "constant": true
    },
    {
      "inputs": [],
      "name": "symbol",
      "outputs": [
        {
          "internalType": "string",
          "name": "",
          "type": "string"
        }
      ],
      "stateMutability": "view",
      "type": "function",
      "constant": true
    },
    {
      "inputs": [
        {
          "internalType": "uint256",
          "name": "tokenId",
          "type": "uint256"
        }
      ],
      "name": "tokenURI",
      "outputs": [
        {
          "internalType": "string",
          "name": "",
          "type": "string"
        }
      ],
      "stateMutability": "view",
      "type": "function",
      "constant": true
    },
    {
      "inputs": [
        {
          "internalType": "address",
          "name": "from",
          "type": "address"
        },
        {
          "internalType": "address",
          "name": "to",
          "type": "address"
        },
        {
          "internalType": "uint256",
          "name": "tokenId",
          "type": "uint256"
        }
      ],
      "name": "transferFrom",
      "outputs": [],
      "stateMutability": "nonpayable",
      "type": "function"
    },
    {
      "inputs": [
        {
          "internalType": "address",
          "name": "newOwner",
          "type": "address"
        }
      ],
      "name": "transferOwnership",
      "outputs": [],
      "stateMutability": "nonpayable",
      "type": "function"
    },
    {
      "inputs": [
        {
          "internalType": "string",
          "name": "tokenURI",
          "type": "string"
        },
        {
          "internalType": "uint256",
          "name": "_price",
          "type": "uint256"
        },
        {
          "internalType": "uint256",
          "name": "_deed",
          "type": "uint256"
        }
      ],
      "name": "createPropertyNft",
      "outputs": [
        {
          "internalType": "uint256",
          "name": "",
          "type": "uint256"
        }
      ],
      "stateMutability": "nonpayable",
      "type": "function"
    },
    {
      "inputs": [
        {
          "internalType": "uint256",
          "name": "deed",
          "type": "uint256"
        }
      ],
      "name": "checkIfPropertyExists",
      "outputs": [
        {
          "internalType": "bool",
          "name": "",
          "type": "bool"
        }
      ],
      "stateMutability": "view",
      "type": "function",
      "constant": true
    },
    {
      "inputs": [],
      "name": "getUserProperties",
      "outputs": [
        {
          "components": [
            {
              "internalType": "uint256",
              "name": "deedNumber",
              "type": "uint256"
            },
            {
              "internalType": "address",
              "name": "owner",
              "type": "address"
            },
            {
              "internalType": "string",
              "name": "tokenUri",
              "type": "string"
            },
            {
              "internalType": "uint256",
              "name": "price",
              "type": "uint256"
            }
          ],
          "internalType": "struct ContractEstate.propertyNft[]",
          "name": "",
          "type": "tuple[]"
        }
      ],
      "stateMutability": "view",
      "type": "function",
      "constant": true
    }
  ],
  "bytecode": "0x60806040523480156200001157600080fd5b5060405162003b8b38038062003b8b833981810160405281019062000037919062000368565b6040518060400160405280601581526020017f45535441544520434f4e545241435420434841494e00000000000000000000008152506040518060400160405280600381526020017f45434300000000000000000000000000000000000000000000000000000000008152508160009080519060200190620000bb9291906200024e565b508060019080519060200190620000d49291906200024e565b505050620000f7620000eb6200018060201b60201c565b6200018860201b60201c565b33600b60006101000a81548173ffffffffffffffffffffffffffffffffffffffff021916908373ffffffffffffffffffffffffffffffffffffffff16021790555080600a60006101000a81548173ffffffffffffffffffffffffffffffffffffffff021916908373ffffffffffffffffffffffffffffffffffffffff16021790555050620003ff565b600033905090565b6000600760009054906101000a900473ffffffffffffffffffffffffffffffffffffffff16905081600760006101000a81548173ffffffffffffffffffffffffffffffffffffffff021916908373ffffffffffffffffffffffffffffffffffffffff1602179055508173ffffffffffffffffffffffffffffffffffffffff168173ffffffffffffffffffffffffffffffffffffffff167f8be0079c531659141344cd1fd0a4f28419497f9722a3daafe3b4186f6b6457e060405160405180910390a35050565b8280546200025c90620003c9565b90600052602060002090601f016020900481019282620002805760008555620002cc565b82601f106200029b57805160ff1916838001178555620002cc565b82800160010185558215620002cc579182015b82811115620002cb578251825591602001919060010190620002ae565b5b509050620002db9190620002df565b5090565b5b80821115620002fa576000816000905550600101620002e0565b5090565b600080fd5b600073ffffffffffffffffffffffffffffffffffffffff82169050919050565b6000620003308262000303565b9050919050565b620003428162000323565b81146200034e57600080fd5b50565b600081519050620003628162000337565b92915050565b600060208284031215620003815762000380620002fe565b5b6000620003918482850162000351565b91505092915050565b7f4e487b7100000000000000000000000000000000000000000000000000000000600052602260045260246000fd5b60006002820490506001821680620003e257607f821691505b60208210811415620003f957620003f86200039a565b5b50919050565b61377c806200040f6000396000f3fe608060405234801561001057600080fd5b506004361061012c5760003560e01c80638da5cb5b116100ad578063b88d4fde11610071578063b88d4fde14610331578063b92b85d21461034d578063c87b56dd1461037d578063e985e9c5146103ad578063f2fde38b146103dd5761012c565b80638da5cb5b1461028b57806390e26997146102a957806395d89b41146102d9578063a22cb465146102f7578063b2bdfa7b146103135761012c565b806342842e0e116100f457806342842e0e146101e75780635d09be60146102035780636352211e1461022157806370a0823114610251578063715018a6146102815761012c565b806301ffc9a71461013157806306fdde0314610161578063081812fc1461017f578063095ea7b3146101af57806323b872dd146101cb575b600080fd5b61014b600480360381019061014691906121e2565b6103f9565b604051610158919061222a565b60405180910390f35b6101696104db565b60405161017691906122de565b60405180910390f35b61019960048036038101906101949190612336565b61056d565b6040516101a691906123a4565b60405180910390f35b6101c960048036038101906101c491906123eb565b6105f2565b005b6101e560048036038101906101e0919061242b565b61070a565b005b61020160048036038101906101fc919061242b565b61076a565b005b61020b61078a565b604051610218919061260b565b60405180910390f35b61023b60048036038101906102369190612336565b610aa7565b60405161024891906123a4565b60405180910390f35b61026b6004803603810190610266919061262d565b610b59565b6040516102789190612669565b60405180910390f35b610289610c11565b005b610293610c99565b6040516102a091906123a4565b60405180910390f35b6102c360048036038101906102be91906127b9565b610cc3565b6040516102d09190612669565b60405180910390f35b6102e1610e9d565b6040516102ee91906122de565b60405180910390f35b610311600480360381019061030c9190612854565b610f2f565b005b61031b6110b0565b60405161032891906128b5565b60405180910390f35b61034b60048036038101906103469190612971565b6110d6565b005b61036760048036038101906103629190612336565b611138565b604051610374919061222a565b60405180910390f35b61039760048036038101906103929190612336565b61114a565b6040516103a491906122de565b60405180910390f35b6103c760048036038101906103c291906129f4565b61129c565b6040516103d4919061222a565b60405180910390f35b6103f760048036038101906103f2919061262d565b611330565b005b60007f80ac58cd000000000000000000000000000000000000000000000000000000007bffffffffffffffffffffffffffffffffffffffffffffffffffffffff1916827bffffffffffffffffffffffffffffffffffffffffffffffffffffffff191614806104c457507f5b5e139f000000000000000000000000000000000000000000000000000000007bffffffffffffffffffffffffffffffffffffffffffffffffffffffff1916827bffffffffffffffffffffffffffffffffffffffffffffffffffffffff1916145b806104d457506104d382611428565b5b9050919050565b6060600080546104ea90612a63565b80601f016020809104026020016040519081016040528092919081815260200182805461051690612a63565b80156105635780601f1061053857610100808354040283529160200191610563565b820191906000526020600020905b81548152906001019060200180831161054657829003601f168201915b5050505050905090565b600061057882611492565b6105b7576040517f08c379a00000000000000000000000000000000000000000000000000000000081526004016105ae90612b07565b60405180910390fd5b6004600083815260200190815260200160002060009054906101000a900473ffffffffffffffffffffffffffffffffffffffff169050919050565b60006105fd82610aa7565b90508073ffffffffffffffffffffffffffffffffffffffff168373ffffffffffffffffffffffffffffffffffffffff16141561066e576040517f08c379a000000000000000000000000000000000000000000000000000000000815260040161066590612b99565b60405180910390fd5b8073ffffffffffffffffffffffffffffffffffffffff1661068d6114fe565b73ffffffffffffffffffffffffffffffffffffffff1614806106bc57506106bb816106b66114fe565b61129c565b5b6106fb576040517f08c379a00000000000000000000000000000000000000000000000000000000081526004016106f290612c2b565b60405180910390fd5b6107058383611506565b505050565b61071b6107156114fe565b826115bf565b61075a576040517f08c379a000000000000000000000000000000000000000000000000000000000815260040161075190612cbd565b60405180910390fd5b61076583838361169d565b505050565b610785838383604051806020016040528060008152506110d6565b505050565b60606000600854905060008060005b83811015610841573373ffffffffffffffffffffffffffffffffffffffff16600c60006009600085815260200190815260200160002054815260200190815260200160002060010160009054906101000a900473ffffffffffffffffffffffffffffffffffffffff1673ffffffffffffffffffffffffffffffffffffffff16141561082e5760018361082b9190612d0c565b92505b808061083990612d62565b915050610799565b5060008267ffffffffffffffff81111561085e5761085d61268e565b5b60405190808252806020026020018201604052801561089757816020015b610884612095565b81526020019060019003908161087c5790505b50905060005b83811015610a9c573373ffffffffffffffffffffffffffffffffffffffff16600c60006009600085815260200190815260200160002054815260200190815260200160002060010160009054906101000a900473ffffffffffffffffffffffffffffffffffffffff1673ffffffffffffffffffffffffffffffffffffffff161415610a89576000600960008381526020019081526020016000205490506000600c6000838152602001908152602001600020905080604051806080016040529081600082015481526020016001820160009054906101000a900473ffffffffffffffffffffffffffffffffffffffff1673ffffffffffffffffffffffffffffffffffffffff1673ffffffffffffffffffffffffffffffffffffffff1681526020016002820180546109cd90612a63565b80601f01602080910402602001604051908101604052809291908181526020018280546109f990612a63565b8015610a465780601f10610a1b57610100808354040283529160200191610a46565b820191906000526020600020905b815481529060010190602001808311610a2957829003601f168201915b50505050508152602001600382015481525050848681518110610a6c57610a6b612dab565b5b6020026020010181905250600185610a849190612d0c565b945050505b8080610a9490612d62565b91505061089d565b508094505050505090565b6000806002600084815260200190815260200160002060009054906101000a900473ffffffffffffffffffffffffffffffffffffffff169050600073ffffffffffffffffffffffffffffffffffffffff168173ffffffffffffffffffffffffffffffffffffffff161415610b50576040517f08c379a0000000000000000000000000000000000000000000000000000000008152600401610b4790612e4c565b60405180910390fd5b80915050919050565b60008073ffffffffffffffffffffffffffffffffffffffff168273ffffffffffffffffffffffffffffffffffffffff161415610bca576040517f08c379a0000000000000000000000000000000000000000000000000000000008152600401610bc190612ede565b60405180910390fd5b600360008373ffffffffffffffffffffffffffffffffffffffff1673ffffffffffffffffffffffffffffffffffffffff168152602001908152602001600020549050919050565b610c196114fe565b73ffffffffffffffffffffffffffffffffffffffff16610c37610c99565b73ffffffffffffffffffffffffffffffffffffffff1614610c8d576040517f08c379a0000000000000000000000000000000000000000000000000000000008152600401610c8490612f4a565b60405180910390fd5b610c9760006118f9565b565b6000600760009054906101000a900473ffffffffffffffffffffffffffffffffffffffff16905090565b6000610ccd6114fe565b73ffffffffffffffffffffffffffffffffffffffff16610ceb610c99565b73ffffffffffffffffffffffffffffffffffffffff1614610d41576040517f08c379a0000000000000000000000000000000000000000000000000000000008152600401610d3890612f4a565b60405180910390fd5b60008311610d4e57600080fd5b60008211610d5b57600080fd5b610d6533836119bf565b610d6f82856119dd565b610d9c600a60009054906101000a900473ffffffffffffffffffffffffffffffffffffffff166001610f2f565b816009600060085481526020019081526020016000208190555060405180608001604052808381526020013373ffffffffffffffffffffffffffffffffffffffff16815260200185815260200184815250600c60008481526020019081526020016000206000820151816000015560208201518160010160006101000a81548173ffffffffffffffffffffffffffffffffffffffff021916908373ffffffffffffffffffffffffffffffffffffffff1602179055506040820151816002019080519060200190610e6d9291906120d3565b506060820151816003015590505060086000815480929190610e8e90612d62565b91905055508190509392505050565b606060018054610eac90612a63565b80601f0160208091040260200160405190810160405280929190818152602001828054610ed890612a63565b8015610f255780601f10610efa57610100808354040283529160200191610f25565b820191906000526020600020905b815481529060010190602001808311610f0857829003601f168201915b5050505050905090565b610f376114fe565b73ffffffffffffffffffffffffffffffffffffffff168273ffffffffffffffffffffffffffffffffffffffff161415610fa5576040517f08c379a0000000000000000000000000000000000000000000000000000000008152600401610f9c90612fb6565b60405180910390fd5b8060056000610fb26114fe565b73ffffffffffffffffffffffffffffffffffffffff1673ffffffffffffffffffffffffffffffffffffffff16815260200190815260200160002060008473ffffffffffffffffffffffffffffffffffffffff1673ffffffffffffffffffffffffffffffffffffffff16815260200190815260200160002060006101000a81548160ff0219169083151502179055508173ffffffffffffffffffffffffffffffffffffffff1661105f6114fe565b73ffffffffffffffffffffffffffffffffffffffff167f17307eab39ab6107e8899845ad3d59bd9653f200f220920489ca2b5937696c31836040516110a4919061222a565b60405180910390a35050565b600b60009054906101000a900473ffffffffffffffffffffffffffffffffffffffff1681565b6110e76110e16114fe565b836115bf565b611126576040517f08c379a000000000000000000000000000000000000000000000000000000000815260040161111d90612cbd565b60405180910390fd5b61113284848484611a51565b50505050565b600061114382611492565b9050919050565b606061115582611492565b611194576040517f08c379a000000000000000000000000000000000000000000000000000000000815260040161118b90613048565b60405180910390fd5b60006006600084815260200190815260200160002080546111b490612a63565b80601f01602080910402602001604051908101604052809291908181526020018280546111e090612a63565b801561122d5780601f106112025761010080835404028352916020019161122d565b820191906000526020600020905b81548152906001019060200180831161121057829003601f168201915b50505050509050600061123e611aad565b9050600081511415611254578192505050611297565b6000825111156112895780826040516020016112719291906130a4565b60405160208183030381529060405292505050611297565b61129284611ac4565b925050505b919050565b6000600560008473ffffffffffffffffffffffffffffffffffffffff1673ffffffffffffffffffffffffffffffffffffffff16815260200190815260200160002060008373ffffffffffffffffffffffffffffffffffffffff1673ffffffffffffffffffffffffffffffffffffffff16815260200190815260200160002060009054906101000a900460ff16905092915050565b6113386114fe565b73ffffffffffffffffffffffffffffffffffffffff16611356610c99565b73ffffffffffffffffffffffffffffffffffffffff16146113ac576040517f08c379a00000000000000000000000000000000000000000000000000000000081526004016113a390612f4a565b60405180910390fd5b600073ffffffffffffffffffffffffffffffffffffffff168173ffffffffffffffffffffffffffffffffffffffff16141561141c576040517f08c379a00000000000000000000000000000000000000000000000000000000081526004016114139061313a565b60405180910390fd5b611425816118f9565b50565b60007f01ffc9a7000000000000000000000000000000000000000000000000000000007bffffffffffffffffffffffffffffffffffffffffffffffffffffffff1916827bffffffffffffffffffffffffffffffffffffffffffffffffffffffff1916149050919050565b60008073ffffffffffffffffffffffffffffffffffffffff166002600084815260200190815260200160002060009054906101000a900473ffffffffffffffffffffffffffffffffffffffff1673ffffffffffffffffffffffffffffffffffffffff1614159050919050565b600033905090565b816004600083815260200190815260200160002060006101000a81548173ffffffffffffffffffffffffffffffffffffffff021916908373ffffffffffffffffffffffffffffffffffffffff160217905550808273ffffffffffffffffffffffffffffffffffffffff1661157983610aa7565b73ffffffffffffffffffffffffffffffffffffffff167f8c5be1e5ebec7d5bd14f71427d1e84f3dd0314c0f7b2291e5b200ac8c7c3b92560405160405180910390a45050565b60006115ca82611492565b611609576040517f08c379a0000000000000000000000000000000000000000000000000000000008152600401611600906131cc565b60405180910390fd5b600061161483610aa7565b90508073ffffffffffffffffffffffffffffffffffffffff168473ffffffffffffffffffffffffffffffffffffffff16148061168357508373ffffffffffffffffffffffffffffffffffffffff1661166b8461056d565b73ffffffffffffffffffffffffffffffffffffffff16145b806116945750611693818561129c565b5b91505092915050565b8273ffffffffffffffffffffffffffffffffffffffff166116bd82610aa7565b73ffffffffffffffffffffffffffffffffffffffff1614611713576040517f08c379a000000000000000000000000000000000000000000000000000000000815260040161170a9061325e565b60405180910390fd5b600073ffffffffffffffffffffffffffffffffffffffff168273ffffffffffffffffffffffffffffffffffffffff161415611783576040517f08c379a000000000000000000000000000000000000000000000000000000000815260040161177a906132f0565b60405180910390fd5b61178e838383611b6b565b611799600082611506565b6001600360008573ffffffffffffffffffffffffffffffffffffffff1673ffffffffffffffffffffffffffffffffffffffff16815260200190815260200160002060008282546117e99190613310565b925050819055506001600360008473ffffffffffffffffffffffffffffffffffffffff1673ffffffffffffffffffffffffffffffffffffffff16815260200190815260200160002060008282546118409190612d0c565b92505081905550816002600083815260200190815260200160002060006101000a81548173ffffffffffffffffffffffffffffffffffffffff021916908373ffffffffffffffffffffffffffffffffffffffff160217905550808273ffffffffffffffffffffffffffffffffffffffff168473ffffffffffffffffffffffffffffffffffffffff167fddf252ad1be2c89b69c2b068fc378daa952ba7f163c4a11628f55a4df523b3ef60405160405180910390a4505050565b6000600760009054906101000a900473ffffffffffffffffffffffffffffffffffffffff16905081600760006101000a81548173ffffffffffffffffffffffffffffffffffffffff021916908373ffffffffffffffffffffffffffffffffffffffff1602179055508173ffffffffffffffffffffffffffffffffffffffff168173ffffffffffffffffffffffffffffffffffffffff167f8be0079c531659141344cd1fd0a4f28419497f9722a3daafe3b4186f6b6457e060405160405180910390a35050565b6119d9828260405180602001604052806000815250611b70565b5050565b6119e682611492565b611a25576040517f08c379a0000000000000000000000000000000000000000000000000000000008152600401611a1c906133b6565b60405180910390fd5b80600660008481526020019081526020016000209080519060200190611a4c9291906120d3565b505050565b611a5c84848461169d565b611a6884848484611bcb565b611aa7576040517f08c379a0000000000000000000000000000000000000000000000000000000008152600401611a9e90613448565b60405180910390fd5b50505050565b606060405180602001604052806000815250905090565b6060611acf82611492565b611b0e576040517f08c379a0000000000000000000000000000000000000000000000000000000008152600401611b05906134da565b60405180910390fd5b6000611b18611aad565b90506000815111611b385760405180602001604052806000815250611b63565b80611b4284611d53565b604051602001611b539291906130a4565b6040516020818303038152906040525b915050919050565b505050565b611b7a8383611eb4565b611b876000848484611bcb565b611bc6576040517f08c379a0000000000000000000000000000000000000000000000000000000008152600401611bbd90613448565b60405180910390fd5b505050565b6000611bec8473ffffffffffffffffffffffffffffffffffffffff16612082565b15611d46578373ffffffffffffffffffffffffffffffffffffffff1663150b7a02611c156114fe565b8786866040518563ffffffff1660e01b8152600401611c37949392919061354f565b6020604051808303816000875af1925050508015611c7357506040513d601f19601f82011682018060405250810190611c7091906135b0565b60015b611cf6573d8060008114611ca3576040519150601f19603f3d011682016040523d82523d6000602084013e611ca8565b606091505b50600081511415611cee576040517f08c379a0000000000000000000000000000000000000000000000000000000008152600401611ce590613448565b60405180910390fd5b805181602001fd5b63150b7a0260e01b7bffffffffffffffffffffffffffffffffffffffffffffffffffffffff1916817bffffffffffffffffffffffffffffffffffffffffffffffffffffffff191614915050611d4b565b600190505b949350505050565b60606000821415611d9b576040518060400160405280600181526020017f30000000000000000000000000000000000000000000000000000000000000008152509050611eaf565b600082905060005b60008214611dcd578080611db690612d62565b915050600a82611dc6919061360c565b9150611da3565b60008167ffffffffffffffff811115611de957611de861268e565b5b6040519080825280601f01601f191660200182016040528015611e1b5781602001600182028036833780820191505090505b5090505b60008514611ea857600182611e349190613310565b9150600a85611e43919061363d565b6030611e4f9190612d0c565b60f81b818381518110611e6557611e64612dab565b5b60200101907effffffffffffffffffffffffffffffffffffffffffffffffffffffffffffff1916908160001a905350600a85611ea1919061360c565b9450611e1f565b8093505050505b919050565b600073ffffffffffffffffffffffffffffffffffffffff168273ffffffffffffffffffffffffffffffffffffffff161415611f24576040517f08c379a0000000000000000000000000000000000000000000000000000000008152600401611f1b906136ba565b60405180910390fd5b611f2d81611492565b15611f6d576040517f08c379a0000000000000000000000000000000000000000000000000000000008152600401611f6490613726565b60405180910390fd5b611f7960008383611b6b565b6001600360008473ffffffffffffffffffffffffffffffffffffffff1673ffffffffffffffffffffffffffffffffffffffff1681526020019081526020016000206000828254611fc99190612d0c565b92505081905550816002600083815260200190815260200160002060006101000a81548173ffffffffffffffffffffffffffffffffffffffff021916908373ffffffffffffffffffffffffffffffffffffffff160217905550808273ffffffffffffffffffffffffffffffffffffffff16600073ffffffffffffffffffffffffffffffffffffffff167fddf252ad1be2c89b69c2b068fc378daa952ba7f163c4a11628f55a4df523b3ef60405160405180910390a45050565b600080823b905060008111915050919050565b604051806080016040528060008152602001600073ffffffffffffffffffffffffffffffffffffffff16815260200160608152602001600081525090565b8280546120df90612a63565b90600052602060002090601f0160209004810192826121015760008555612148565b82601f1061211a57805160ff1916838001178555612148565b82800160010185558215612148579182015b8281111561214757825182559160200191906001019061212c565b5b5090506121559190612159565b5090565b5b8082111561217257600081600090555060010161215a565b5090565b6000604051905090565b600080fd5b600080fd5b60007fffffffff0000000000000000000000000000000000000000000000000000000082169050919050565b6121bf8161218a565b81146121ca57600080fd5b50565b6000813590506121dc816121b6565b92915050565b6000602082840312156121f8576121f7612180565b5b6000612206848285016121cd565b91505092915050565b60008115159050919050565b6122248161220f565b82525050565b600060208201905061223f600083018461221b565b92915050565b600081519050919050565b600082825260208201905092915050565b60005b8381101561227f578082015181840152602081019050612264565b8381111561228e576000848401525b50505050565b6000601f19601f8301169050919050565b60006122b082612245565b6122ba8185612250565b93506122ca818560208601612261565b6122d381612294565b840191505092915050565b600060208201905081810360008301526122f881846122a5565b905092915050565b6000819050919050565b61231381612300565b811461231e57600080fd5b50565b6000813590506123308161230a565b92915050565b60006020828403121561234c5761234b612180565b5b600061235a84828501612321565b91505092915050565b600073ffffffffffffffffffffffffffffffffffffffff82169050919050565b600061238e82612363565b9050919050565b61239e81612383565b82525050565b60006020820190506123b96000830184612395565b92915050565b6123c881612383565b81146123d357600080fd5b50565b6000813590506123e5816123bf565b92915050565b6000806040838503121561240257612401612180565b5b6000612410858286016123d6565b925050602061242185828601612321565b9150509250929050565b60008060006060848603121561244457612443612180565b5b6000612452868287016123d6565b9350506020612463868287016123d6565b925050604061247486828701612321565b9150509250925092565b600081519050919050565b600082825260208201905092915050565b6000819050602082019050919050565b6124b381612300565b82525050565b6124c281612383565b82525050565b600082825260208201905092915050565b60006124e482612245565b6124ee81856124c8565b93506124fe818560208601612261565b61250781612294565b840191505092915050565b600060808301600083015161252a60008601826124aa565b50602083015161253d60208601826124b9565b506040830151848203604086015261255582826124d9565b915050606083015161256a60608601826124aa565b508091505092915050565b60006125818383612512565b905092915050565b6000602082019050919050565b60006125a18261247e565b6125ab8185612489565b9350836020820285016125bd8561249a565b8060005b858110156125f957848403895281516125da8582612575565b94506125e583612589565b925060208a019950506001810190506125c1565b50829750879550505050505092915050565b600060208201905081810360008301526126258184612596565b905092915050565b60006020828403121561264357612642612180565b5b6000612651848285016123d6565b91505092915050565b61266381612300565b82525050565b600060208201905061267e600083018461265a565b92915050565b600080fd5b600080fd5b7f4e487b7100000000000000000000000000000000000000000000000000000000600052604160045260246000fd5b6126c682612294565b810181811067ffffffffffffffff821117156126e5576126e461268e565b5b80604052505050565b60006126f8612176565b905061270482826126bd565b919050565b600067ffffffffffffffff8211156127245761272361268e565b5b61272d82612294565b9050602081019050919050565b82818337600083830152505050565b600061275c61275784612709565b6126ee565b90508281526020810184848401111561277857612777612689565b5b61278384828561273a565b509392505050565b600082601f8301126127a05761279f612684565b5b81356127b0848260208601612749565b91505092915050565b6000806000606084860312156127d2576127d1612180565b5b600084013567ffffffffffffffff8111156127f0576127ef612185565b5b6127fc8682870161278b565b935050602061280d86828701612321565b925050604061281e86828701612321565b9150509250925092565b6128318161220f565b811461283c57600080fd5b50565b60008135905061284e81612828565b92915050565b6000806040838503121561286b5761286a612180565b5b6000612879858286016123d6565b925050602061288a8582860161283f565b9150509250929050565b600061289f82612363565b9050919050565b6128af81612894565b82525050565b60006020820190506128ca60008301846128a6565b92915050565b600067ffffffffffffffff8211156128eb576128ea61268e565b5b6128f482612294565b9050602081019050919050565b600061291461290f846128d0565b6126ee565b9050828152602081018484840111156129305761292f612689565b5b61293b84828561273a565b509392505050565b600082601f83011261295857612957612684565b5b8135612968848260208601612901565b91505092915050565b6000806000806080858703121561298b5761298a612180565b5b6000612999878288016123d6565b94505060206129aa878288016123d6565b93505060406129bb87828801612321565b925050606085013567ffffffffffffffff8111156129dc576129db612185565b5b6129e887828801612943565b91505092959194509250565b60008060408385031215612a0b57612a0a612180565b5b6000612a19858286016123d6565b9250506020612a2a858286016123d6565b9150509250929050565b7f4e487b7100000000000000000000000000000000000000000000000000000000600052602260045260246000fd5b60006002820490506001821680612a7b57607f821691505b60208210811415612a8f57612a8e612a34565b5b50919050565b7f4552433732313a20617070726f76656420717565727920666f72206e6f6e657860008201527f697374656e7420746f6b656e0000000000000000000000000000000000000000602082015250565b6000612af1602c83612250565b9150612afc82612a95565b604082019050919050565b60006020820190508181036000830152612b2081612ae4565b9050919050565b7f4552433732313a20617070726f76616c20746f2063757272656e74206f776e6560008201527f7200000000000000000000000000000000000000000000000000000000000000602082015250565b6000612b83602183612250565b9150612b8e82612b27565b604082019050919050565b60006020820190508181036000830152612bb281612b76565b9050919050565b7f4552433732313a20617070726f76652063616c6c6572206973206e6f74206f7760008201527f6e6572206e6f7220617070726f76656420666f7220616c6c0000000000000000602082015250565b6000612c15603883612250565b9150612c2082612bb9565b604082019050919050565b60006020820190508181036000830152612c4481612c08565b9050919050565b7f4552433732313a207472616e736665722063616c6c6572206973206e6f74206f60008201527f776e6572206e6f7220617070726f766564000000000000000000000000000000602082015250565b6000612ca7603183612250565b9150612cb282612c4b565b604082019050919050565b60006020820190508181036000830152612cd681612c9a565b9050919050565b7f4e487b7100000000000000000000000000000000000000000000000000000000600052601160045260246000fd5b6000612d1782612300565b9150612d2283612300565b9250827fffffffffffffffffffffffffffffffffffffffffffffffffffffffffffffffff03821115612d5757612d56612cdd565b5b828201905092915050565b6000612d6d82612300565b91507fffffffffffffffffffffffffffffffffffffffffffffffffffffffffffffffff821415612da057612d9f612cdd565b5b600182019050919050565b7f4e487b7100000000000000000000000000000000000000000000000000000000600052603260045260246000fd5b7f4552433732313a206f776e657220717565727920666f72206e6f6e657869737460008201527f656e7420746f6b656e0000000000000000000000000000000000000000000000602082015250565b6000612e36602983612250565b9150612e4182612dda565b604082019050919050565b60006020820190508181036000830152612e6581612e29565b9050919050565b7f4552433732313a2062616c616e636520717565727920666f7220746865207a6560008201527f726f206164647265737300000000000000000000000000000000000000000000602082015250565b6000612ec8602a83612250565b9150612ed382612e6c565b604082019050919050565b60006020820190508181036000830152612ef781612ebb565b9050919050565b7f4f776e61626c653a2063616c6c6572206973206e6f7420746865206f776e6572600082015250565b6000612f34602083612250565b9150612f3f82612efe565b602082019050919050565b60006020820190508181036000830152612f6381612f27565b9050919050565b7f4552433732313a20617070726f766520746f2063616c6c657200000000000000600082015250565b6000612fa0601983612250565b9150612fab82612f6a565b602082019050919050565b60006020820190508181036000830152612fcf81612f93565b9050919050565b7f45524337323155524953746f726167653a2055524920717565727920666f722060008201527f6e6f6e6578697374656e7420746f6b656e000000000000000000000000000000602082015250565b6000613032603183612250565b915061303d82612fd6565b604082019050919050565b6000602082019050818103600083015261306181613025565b9050919050565b600081905092915050565b600061307e82612245565b6130888185613068565b9350613098818560208601612261565b80840191505092915050565b60006130b08285613073565b91506130bc8284613073565b91508190509392505050565b7f4f776e61626c653a206e6577206f776e657220697320746865207a65726f206160008201527f6464726573730000000000000000000000000000000000000000000000000000602082015250565b6000613124602683612250565b915061312f826130c8565b604082019050919050565b6000602082019050818103600083015261315381613117565b9050919050565b7f4552433732313a206f70657261746f7220717565727920666f72206e6f6e657860008201527f697374656e7420746f6b656e0000000000000000000000000000000000000000602082015250565b60006131b6602c83612250565b91506131c18261315a565b604082019050919050565b600060208201905081810360008301526131e5816131a9565b9050919050565b7f4552433732313a207472616e73666572206f6620746f6b656e2074686174206960008201527f73206e6f74206f776e0000000000000000000000000000000000000000000000602082015250565b6000613248602983612250565b9150613253826131ec565b604082019050919050565b600060208201905081810360008301526132778161323b565b9050919050565b7f4552433732313a207472616e7366657220746f20746865207a65726f2061646460008201527f7265737300000000000000000000000000000000000000000000000000000000602082015250565b60006132da602483612250565b91506132e58261327e565b604082019050919050565b60006020820190508181036000830152613309816132cd565b9050919050565b600061331b82612300565b915061332683612300565b92508282101561333957613338612cdd565b5b828203905092915050565b7f45524337323155524953746f726167653a2055524920736574206f66206e6f6e60008201527f6578697374656e7420746f6b656e000000000000000000000000000000000000602082015250565b60006133a0602e83612250565b91506133ab82613344565b604082019050919050565b600060208201905081810360008301526133cf81613393565b9050919050565b7f4552433732313a207472616e7366657220746f206e6f6e20455243373231526560008201527f63656976657220696d706c656d656e7465720000000000000000000000000000602082015250565b6000613432603283612250565b915061343d826133d6565b604082019050919050565b6000602082019050818103600083015261346181613425565b9050919050565b7f4552433732314d657461646174613a2055524920717565727920666f72206e6f60008201527f6e6578697374656e7420746f6b656e0000000000000000000000000000000000602082015250565b60006134c4602f83612250565b91506134cf82613468565b604082019050919050565b600060208201905081810360008301526134f3816134b7565b9050919050565b600081519050919050565b600082825260208201905092915050565b6000613521826134fa565b61352b8185613505565b935061353b818560208601612261565b61354481612294565b840191505092915050565b60006080820190506135646000830187612395565b6135716020830186612395565b61357e604083018561265a565b81810360608301526135908184613516565b905095945050505050565b6000815190506135aa816121b6565b92915050565b6000602082840312156135c6576135c5612180565b5b60006135d48482850161359b565b91505092915050565b7f4e487b7100000000000000000000000000000000000000000000000000000000600052601260045260246000fd5b600061361782612300565b915061362283612300565b925082613632576136316135dd565b5b828204905092915050565b600061364882612300565b915061365383612300565b925082613663576136626135dd565b5b828206905092915050565b7f4552433732313a206d696e7420746f20746865207a65726f2061646472657373600082015250565b60006136a4602083612250565b91506136af8261366e565b602082019050919050565b600060208201905081810360008301526136d381613697565b9050919050565b7f4552433732313a20746f6b656e20616c7265616479206d696e74656400000000600082015250565b6000613710601c83612250565b915061371b826136da565b602082019050919050565b6000602082019050818103600083015261373f81613703565b905091905056fea264697066735822122003597827157f93d16f7e530eaafd8c8873690efce8d8e135ec72be0f1524e02364736f6c634300080a0033",
  "immutableReferences": {},
  "source": "// SPDX-License-Identifier: MIT\npragma solidity 0.8.10;\n\nimport \"@openzeppelin/contracts/utils/Counters.sol\";\nimport \"@openzeppelin/contracts/access/Ownable.sol\";\nimport \"@openzeppelin/contracts/token/ERC721/extensions/ERC721URIStorage.sol\";\nimport \"@openzeppelin/contracts/security/ReentrancyGuard.sol\";\n\ncontract ContractEstate is ERC721URIStorage, Ownable {\n    // using Counters for Counters.Counter;\n    uint256 private _tokenCounter;\n\n    mapping(uint256=>uint256) private counterToDeed;\n\n    address contractAddress;\n\n    address payable public _owner;\n    mapping(uint256 => propertyNft) private propertyNftData;\n\n    struct propertyNft {\n        uint256 deedNumber;\n        address  owner;\n        string tokenUri;\n        uint256 price;\n    }\n\n    constructor(address smartPropertyMarket)  ERC721(\"ESTATE CONTRACT CHAIN\", \"ECC\") {\n        _owner = payable(msg.sender);\n        contractAddress = smartPropertyMarket;\n    }\n\n    /// @notice Mints a new property NFT token\n    /// @param tokenURI is the ipfs URI for the NFT\n    /// @param _price is the property Value. Its passed by the caller from the ipfs metadata\n    /// @param _deed is the deed number to identify the Property (TokenID). Its passed by the caller. Its a from the ipfs metadata\n    /// @return uint256 The deed  of the minted NFT\n    function createPropertyNft( string memory tokenURI, uint256 _price, uint256 _deed)\n        public onlyOwner\n        returns (uint256)\n    {\n        require(_price>0);\n        require(_deed>0);\n\n        _safeMint(msg.sender, _deed);\n        _setTokenURI(_deed, tokenURI);\n        setApprovalForAll(contractAddress, true);\n\n        counterToDeed[_tokenCounter] = _deed;\n        \n        propertyNftData[_deed] = propertyNft(_deed, msg.sender, tokenURI, _price); //get price from ipfs\n        _tokenCounter++;\n\n        return _deed;\n    }\n\n    function checkIfPropertyExists(uint256 deed) public view returns(bool){\n        return _exists(deed);\n    }\n\n    /// @notice Gets the tokenURI of the NFT owned by the caller\n    /// @return nftProperty[] The array containing the tokenId, owner and tokenURI of the NFT owned by the caller    \n    function getUserProperties() public view returns(propertyNft[] memory) {\n        uint totalPropertyCount = _tokenCounter;\n        uint itemCount = 0;\n        uint currentIndex = 0;\n\n        for (uint i = 0; i < totalPropertyCount; i++) {\n            if (propertyNftData[counterToDeed[i]].owner == msg.sender) {\n                itemCount += 1;\n            }\n        }\n\n        propertyNft[] memory properties = new propertyNft[](itemCount);\n\n        for (uint i = 0; i < itemCount; i++) {\n            if (propertyNftData[counterToDeed[i]].owner == msg.sender) {\n                uint currentId = counterToDeed[i];\n                propertyNft storage currentProperty = propertyNftData[currentId];\n                properties[currentIndex] = currentProperty;\n                currentIndex += 1;\n            }\n        }\n\n        return properties;\n    }\n\n}",
  "sourcePath": "/Users/kelvinchelenje/Desktop/Incubation/Blockchain/projects/blockchain-developer-bootcamp-final-project/contracts/ContractEstate.sol",
  "compiler": {
    "name": "solc",
    "version": "0.8.10+commit.fc410830.Emscripten.clang"
  },
  "schemaVersion": "3.4.3",
  "updatedAt": "2021-11-28T22:10:01.644Z",
  "networkType": "ethereum",
  "devdoc": {
    "kind": "dev",
    "methods": {
      "approve(address,uint256)": {
        "details": "See {IERC721-approve}."
      },
      "balanceOf(address)": {
        "details": "See {IERC721-balanceOf}."
      },
      "createPropertyNft(string,uint256,uint256)": {
        "params": {
          "_deed": "is the deed number to identify the Property (TokenID). Its passed by the caller. Its a from the ipfs metadata",
          "_price": "is the property Value. Its passed by the caller from the ipfs metadata",
          "tokenURI": "is the ipfs URI for the NFT"
        },
        "returns": {
          "_0": "uint256 The deed  of the minted NFT"
        }
      },
      "getApproved(uint256)": {
        "details": "See {IERC721-getApproved}."
      },
      "getUserProperties()": {
        "returns": {
          "_0": "nftProperty[] The array containing the tokenId, owner and tokenURI of the NFT owned by the caller    "
        }
      },
      "isApprovedForAll(address,address)": {
        "details": "See {IERC721-isApprovedForAll}."
      },
      "name()": {
        "details": "See {IERC721Metadata-name}."
      },
      "owner()": {
        "details": "Returns the address of the current owner."
      },
      "ownerOf(uint256)": {
        "details": "See {IERC721-ownerOf}."
      },
      "renounceOwnership()": {
        "details": "Leaves the contract without owner. It will not be possible to call `onlyOwner` functions anymore. Can only be called by the current owner. NOTE: Renouncing ownership will leave the contract without an owner, thereby removing any functionality that is only available to the owner."
      },
      "safeTransferFrom(address,address,uint256)": {
        "details": "See {IERC721-safeTransferFrom}."
      },
      "safeTransferFrom(address,address,uint256,bytes)": {
        "details": "See {IERC721-safeTransferFrom}."
      },
      "setApprovalForAll(address,bool)": {
        "details": "See {IERC721-setApprovalForAll}."
      },
      "supportsInterface(bytes4)": {
        "details": "See {IERC165-supportsInterface}."
      },
      "symbol()": {
        "details": "See {IERC721Metadata-symbol}."
      },
      "tokenURI(uint256)": {
        "details": "See {IERC721Metadata-tokenURI}."
      },
      "transferFrom(address,address,uint256)": {
        "details": "See {IERC721-transferFrom}."
      },
      "transferOwnership(address)": {
        "details": "Transfers ownership of the contract to a new account (`newOwner`). Can only be called by the current owner."
      }
    },
    "version": 1
  },
  "userdoc": {
    "kind": "user",
    "methods": {
      "createPropertyNft(string,uint256,uint256)": {
        "notice": "Mints a new property NFT token"
      },
      "getUserProperties()": {
        "notice": "Gets the tokenURI of the NFT owned by the caller"
      }
    },
    "version": 1
  }
}