{
  "contractName": "ContractEstate",
  "abi": [
    {
      "inputs": [
        {
          "internalType": "address",
          "name": "smartPropertyMarket",
          "type": "address"
        }
      ],
      "stateMutability": "nonpayable",
      "type": "constructor"
    },
    {
      "anonymous": false,
      "inputs": [
        {
          "indexed": true,
          "internalType": "address",
          "name": "owner",
          "type": "address"
        },
        {
          "indexed": true,
          "internalType": "address",
          "name": "approved",
          "type": "address"
        },
        {
          "indexed": true,
          "internalType": "uint256",
          "name": "tokenId",
          "type": "uint256"
        }
      ],
      "name": "Approval",
      "type": "event"
    },
    {
      "anonymous": false,
      "inputs": [
        {
          "indexed": true,
          "internalType": "address",
          "name": "owner",
          "type": "address"
        },
        {
          "indexed": true,
          "internalType": "address",
          "name": "operator",
          "type": "address"
        },
        {
          "indexed": false,
          "internalType": "bool",
          "name": "approved",
          "type": "bool"
        }
      ],
      "name": "ApprovalForAll",
      "type": "event"
    },
    {
      "anonymous": false,
      "inputs": [
        {
          "indexed": true,
          "internalType": "address",
          "name": "previousOwner",
          "type": "address"
        },
        {
          "indexed": true,
          "internalType": "address",
          "name": "newOwner",
          "type": "address"
        }
      ],
      "name": "OwnershipTransferred",
      "type": "event"
    },
    {
      "anonymous": false,
      "inputs": [
        {
          "indexed": true,
          "internalType": "address",
          "name": "from",
          "type": "address"
        },
        {
          "indexed": true,
          "internalType": "address",
          "name": "to",
          "type": "address"
        },
        {
          "indexed": true,
          "internalType": "uint256",
          "name": "tokenId",
          "type": "uint256"
        }
      ],
      "name": "Transfer",
      "type": "event"
    },
    {
      "inputs": [],
      "name": "_owner",
      "outputs": [
        {
          "internalType": "address payable",
          "name": "",
          "type": "address"
        }
      ],
      "stateMutability": "view",
      "type": "function",
      "constant": true
    },
    {
      "inputs": [
        {
          "internalType": "address",
          "name": "to",
          "type": "address"
        },
        {
          "internalType": "uint256",
          "name": "tokenId",
          "type": "uint256"
        }
      ],
      "name": "approve",
      "outputs": [],
      "stateMutability": "nonpayable",
      "type": "function"
    },
    {
      "inputs": [
        {
          "internalType": "address",
          "name": "owner",
          "type": "address"
        }
      ],
      "name": "balanceOf",
      "outputs": [
        {
          "internalType": "uint256",
          "name": "",
          "type": "uint256"
        }
      ],
      "stateMutability": "view",
      "type": "function",
      "constant": true
    },
    {
      "inputs": [
        {
          "internalType": "uint256",
          "name": "tokenId",
          "type": "uint256"
        }
      ],
      "name": "getApproved",
      "outputs": [
        {
          "internalType": "address",
          "name": "",
          "type": "address"
        }
      ],
      "stateMutability": "view",
      "type": "function",
      "constant": true
    },
    {
      "inputs": [
        {
          "internalType": "address",
          "name": "owner",
          "type": "address"
        },
        {
          "internalType": "address",
          "name": "operator",
          "type": "address"
        }
      ],
      "name": "isApprovedForAll",
      "outputs": [
        {
          "internalType": "bool",
          "name": "",
          "type": "bool"
        }
      ],
      "stateMutability": "view",
      "type": "function",
      "constant": true
    },
    {
      "inputs": [],
      "name": "name",
      "outputs": [
        {
          "internalType": "string",
          "name": "",
          "type": "string"
        }
      ],
      "stateMutability": "view",
      "type": "function",
      "constant": true
    },
    {
      "inputs": [],
      "name": "owner",
      "outputs": [
        {
          "internalType": "address",
          "name": "",
          "type": "address"
        }
      ],
      "stateMutability": "view",
      "type": "function",
      "constant": true
    },
    {
      "inputs": [
        {
          "internalType": "uint256",
          "name": "tokenId",
          "type": "uint256"
        }
      ],
      "name": "ownerOf",
      "outputs": [
        {
          "internalType": "address",
          "name": "",
          "type": "address"
        }
      ],
      "stateMutability": "view",
      "type": "function",
      "constant": true
    },
    {
      "inputs": [],
      "name": "renounceOwnership",
      "outputs": [],
      "stateMutability": "nonpayable",
      "type": "function"
    },
    {
      "inputs": [
        {
          "internalType": "address",
          "name": "from",
          "type": "address"
        },
        {
          "internalType": "address",
          "name": "to",
          "type": "address"
        },
        {
          "internalType": "uint256",
          "name": "tokenId",
          "type": "uint256"
        }
      ],
      "name": "safeTransferFrom",
      "outputs": [],
      "stateMutability": "nonpayable",
      "type": "function"
    },
    {
      "inputs": [
        {
          "internalType": "address",
          "name": "from",
          "type": "address"
        },
        {
          "internalType": "address",
          "name": "to",
          "type": "address"
        },
        {
          "internalType": "uint256",
          "name": "tokenId",
          "type": "uint256"
        },
        {
          "internalType": "bytes",
          "name": "_data",
          "type": "bytes"
        }
      ],
      "name": "safeTransferFrom",
      "outputs": [],
      "stateMutability": "nonpayable",
      "type": "function"
    },
    {
      "inputs": [
        {
          "internalType": "address",
          "name": "operator",
          "type": "address"
        },
        {
          "internalType": "bool",
          "name": "approved",
          "type": "bool"
        }
      ],
      "name": "setApprovalForAll",
      "outputs": [],
      "stateMutability": "nonpayable",
      "type": "function"
    },
    {
      "inputs": [
        {
          "internalType": "bytes4",
          "name": "interfaceId",
          "type": "bytes4"
        }
      ],
      "name": "supportsInterface",
      "outputs": [
        {
          "internalType": "bool",
          "name": "",
          "type": "bool"
        }
      ],
      "stateMutability": "view",
      "type": "function",
      "constant": true
    },
    {
      "inputs": [],
      "name": "symbol",
      "outputs": [
        {
          "internalType": "string",
          "name": "",
          "type": "string"
        }
      ],
      "stateMutability": "view",
      "type": "function",
      "constant": true
    },
    {
      "inputs": [
        {
          "internalType": "uint256",
          "name": "tokenId",
          "type": "uint256"
        }
      ],
      "name": "tokenURI",
      "outputs": [
        {
          "internalType": "string",
          "name": "",
          "type": "string"
        }
      ],
      "stateMutability": "view",
      "type": "function",
      "constant": true
    },
    {
      "inputs": [
        {
          "internalType": "address",
          "name": "from",
          "type": "address"
        },
        {
          "internalType": "address",
          "name": "to",
          "type": "address"
        },
        {
          "internalType": "uint256",
          "name": "tokenId",
          "type": "uint256"
        }
      ],
      "name": "transferFrom",
      "outputs": [],
      "stateMutability": "nonpayable",
      "type": "function"
    },
    {
      "inputs": [
        {
          "internalType": "address",
          "name": "newOwner",
          "type": "address"
        }
      ],
      "name": "transferOwnership",
      "outputs": [],
      "stateMutability": "nonpayable",
      "type": "function"
    },
    {
      "inputs": [
        {
          "internalType": "string",
          "name": "tokenLink",
          "type": "string"
        },
        {
          "internalType": "uint256",
          "name": "_price",
          "type": "uint256"
        },
        {
          "internalType": "uint256",
          "name": "_deed",
          "type": "uint256"
        }
      ],
      "name": "createPropertyNft",
      "outputs": [
        {
          "internalType": "uint256",
          "name": "",
          "type": "uint256"
        }
      ],
      "stateMutability": "nonpayable",
      "type": "function"
    },
    {
      "inputs": [
        {
          "internalType": "uint256",
          "name": "deed",
          "type": "uint256"
        }
      ],
      "name": "checkIfPropertyExists",
      "outputs": [
        {
          "internalType": "bool",
          "name": "",
          "type": "bool"
        }
      ],
      "stateMutability": "view",
      "type": "function",
      "constant": true
    }
  ],
  "bytecode": "0x60806040523480156200001157600080fd5b506040516200360c3803806200360c833981810160405281019062000037919062000368565b6040518060400160405280601581526020017f45535441544520434f4e545241435420434841494e00000000000000000000008152506040518060400160405280600381526020017f45434300000000000000000000000000000000000000000000000000000000008152508160009080519060200190620000bb9291906200024e565b508060019080519060200190620000d49291906200024e565b505050620000f7620000eb6200018060201b60201c565b6200018860201b60201c565b33600a60006101000a81548173ffffffffffffffffffffffffffffffffffffffff021916908373ffffffffffffffffffffffffffffffffffffffff16021790555080600960006101000a81548173ffffffffffffffffffffffffffffffffffffffff021916908373ffffffffffffffffffffffffffffffffffffffff16021790555050620003ff565b600033905090565b6000600760009054906101000a900473ffffffffffffffffffffffffffffffffffffffff16905081600760006101000a81548173ffffffffffffffffffffffffffffffffffffffff021916908373ffffffffffffffffffffffffffffffffffffffff1602179055508173ffffffffffffffffffffffffffffffffffffffff168173ffffffffffffffffffffffffffffffffffffffff167f8be0079c531659141344cd1fd0a4f28419497f9722a3daafe3b4186f6b6457e060405160405180910390a35050565b8280546200025c90620003c9565b90600052602060002090601f016020900481019282620002805760008555620002cc565b82601f106200029b57805160ff1916838001178555620002cc565b82800160010185558215620002cc579182015b82811115620002cb578251825591602001919060010190620002ae565b5b509050620002db9190620002df565b5090565b5b80821115620002fa576000816000905550600101620002e0565b5090565b600080fd5b600073ffffffffffffffffffffffffffffffffffffffff82169050919050565b6000620003308262000303565b9050919050565b620003428162000323565b81146200034e57600080fd5b50565b600081519050620003628162000337565b92915050565b600060208284031215620003815762000380620002fe565b5b6000620003918482850162000351565b91505092915050565b7f4e487b7100000000000000000000000000000000000000000000000000000000600052602260045260246000fd5b60006002820490506001821680620003e257607f821691505b60208210811415620003f957620003f86200039a565b5b50919050565b6131fd806200040f6000396000f3fe608060405234801561001057600080fd5b50600436106101215760003560e01c80638da5cb5b116100ad578063b88d4fde11610071578063b88d4fde14610308578063b92b85d214610324578063c87b56dd14610354578063e985e9c514610384578063f2fde38b146103b457610121565b80638da5cb5b1461026257806390e269971461028057806395d89b41146102b0578063a22cb465146102ce578063b2bdfa7b146102ea57610121565b806323b872dd116100f457806323b872dd146101c057806342842e0e146101dc5780636352211e146101f857806370a0823114610228578063715018a61461025857610121565b806301ffc9a71461012657806306fdde0314610156578063081812fc14610174578063095ea7b3146101a4575b600080fd5b610140600480360381019061013b9190611e12565b6103d0565b60405161014d9190611e5a565b60405180910390f35b61015e6104b2565b60405161016b9190611f0e565b60405180910390f35b61018e60048036038101906101899190611f66565b610544565b60405161019b9190611fd4565b60405180910390f35b6101be60048036038101906101b9919061201b565b6105c9565b005b6101da60048036038101906101d5919061205b565b6106e1565b005b6101f660048036038101906101f1919061205b565b610741565b005b610212600480360381019061020d9190611f66565b610761565b60405161021f9190611fd4565b60405180910390f35b610242600480360381019061023d91906120ae565b610813565b60405161024f91906120ea565b60405180910390f35b6102606108cb565b005b61026a610953565b6040516102779190611fd4565b60405180910390f35b61029a6004803603810190610295919061223a565b61097d565b6040516102a791906120ea565b60405180910390f35b6102b8610b0b565b6040516102c59190611f0e565b60405180910390f35b6102e860048036038101906102e391906122d5565b610b9d565b005b6102f2610d1e565b6040516102ff9190612336565b60405180910390f35b610322600480360381019061031d91906123f2565b610d44565b005b61033e60048036038101906103399190611f66565b610da6565b60405161034b9190611e5a565b60405180910390f35b61036e60048036038101906103699190611f66565b610db8565b60405161037b9190611f0e565b60405180910390f35b61039e60048036038101906103999190612475565b610f0a565b6040516103ab9190611e5a565b60405180910390f35b6103ce60048036038101906103c991906120ae565b610f9e565b005b60007f80ac58cd000000000000000000000000000000000000000000000000000000007bffffffffffffffffffffffffffffffffffffffffffffffffffffffff1916827bffffffffffffffffffffffffffffffffffffffffffffffffffffffff1916148061049b57507f5b5e139f000000000000000000000000000000000000000000000000000000007bffffffffffffffffffffffffffffffffffffffffffffffffffffffff1916827bffffffffffffffffffffffffffffffffffffffffffffffffffffffff1916145b806104ab57506104aa82611096565b5b9050919050565b6060600080546104c1906124e4565b80601f01602080910402602001604051908101604052809291908181526020018280546104ed906124e4565b801561053a5780601f1061050f5761010080835404028352916020019161053a565b820191906000526020600020905b81548152906001019060200180831161051d57829003601f168201915b5050505050905090565b600061054f82611100565b61058e576040517f08c379a000000000000000000000000000000000000000000000000000000000815260040161058590612588565b60405180910390fd5b6004600083815260200190815260200160002060009054906101000a900473ffffffffffffffffffffffffffffffffffffffff169050919050565b60006105d482610761565b90508073ffffffffffffffffffffffffffffffffffffffff168373ffffffffffffffffffffffffffffffffffffffff161415610645576040517f08c379a000000000000000000000000000000000000000000000000000000000815260040161063c9061261a565b60405180910390fd5b8073ffffffffffffffffffffffffffffffffffffffff1661066461116c565b73ffffffffffffffffffffffffffffffffffffffff16148061069357506106928161068d61116c565b610f0a565b5b6106d2576040517f08c379a00000000000000000000000000000000000000000000000000000000081526004016106c9906126ac565b60405180910390fd5b6106dc8383611174565b505050565b6106f26106ec61116c565b8261122d565b610731576040517f08c379a00000000000000000000000000000000000000000000000000000000081526004016107289061273e565b60405180910390fd5b61073c83838361130b565b505050565b61075c83838360405180602001604052806000815250610d44565b505050565b6000806002600084815260200190815260200160002060009054906101000a900473ffffffffffffffffffffffffffffffffffffffff169050600073ffffffffffffffffffffffffffffffffffffffff168173ffffffffffffffffffffffffffffffffffffffff16141561080a576040517f08c379a0000000000000000000000000000000000000000000000000000000008152600401610801906127d0565b60405180910390fd5b80915050919050565b60008073ffffffffffffffffffffffffffffffffffffffff168273ffffffffffffffffffffffffffffffffffffffff161415610884576040517f08c379a000000000000000000000000000000000000000000000000000000000815260040161087b90612862565b60405180910390fd5b600360008373ffffffffffffffffffffffffffffffffffffffff1673ffffffffffffffffffffffffffffffffffffffff168152602001908152602001600020549050919050565b6108d361116c565b73ffffffffffffffffffffffffffffffffffffffff166108f1610953565b73ffffffffffffffffffffffffffffffffffffffff1614610947576040517f08c379a000000000000000000000000000000000000000000000000000000000815260040161093e906128ce565b60405180910390fd5b6109516000611567565b565b6000600760009054906101000a900473ffffffffffffffffffffffffffffffffffffffff16905090565b600061098761116c565b73ffffffffffffffffffffffffffffffffffffffff166109a5610953565b73ffffffffffffffffffffffffffffffffffffffff16146109fb576040517f08c379a00000000000000000000000000000000000000000000000000000000081526004016109f2906128ce565b60405180910390fd5b610a05338361162d565b610a0f828561164b565b610a3c600960009054906101000a900473ffffffffffffffffffffffffffffffffffffffff166001610b9d565b60405180608001604052808381526020013373ffffffffffffffffffffffffffffffffffffffff16815260200185815260200184815250600b60008481526020019081526020016000206000820151816000015560208201518160010160006101000a81548173ffffffffffffffffffffffffffffffffffffffff021916908373ffffffffffffffffffffffffffffffffffffffff1602179055506040820151816002019080519060200190610af3929190611d03565b50606082015181600301559050508190509392505050565b606060018054610b1a906124e4565b80601f0160208091040260200160405190810160405280929190818152602001828054610b46906124e4565b8015610b935780601f10610b6857610100808354040283529160200191610b93565b820191906000526020600020905b815481529060010190602001808311610b7657829003601f168201915b5050505050905090565b610ba561116c565b73ffffffffffffffffffffffffffffffffffffffff168273ffffffffffffffffffffffffffffffffffffffff161415610c13576040517f08c379a0000000000000000000000000000000000000000000000000000000008152600401610c0a9061293a565b60405180910390fd5b8060056000610c2061116c565b73ffffffffffffffffffffffffffffffffffffffff1673ffffffffffffffffffffffffffffffffffffffff16815260200190815260200160002060008473ffffffffffffffffffffffffffffffffffffffff1673ffffffffffffffffffffffffffffffffffffffff16815260200190815260200160002060006101000a81548160ff0219169083151502179055508173ffffffffffffffffffffffffffffffffffffffff16610ccd61116c565b73ffffffffffffffffffffffffffffffffffffffff167f17307eab39ab6107e8899845ad3d59bd9653f200f220920489ca2b5937696c3183604051610d129190611e5a565b60405180910390a35050565b600a60009054906101000a900473ffffffffffffffffffffffffffffffffffffffff1681565b610d55610d4f61116c565b8361122d565b610d94576040517f08c379a0000000000000000000000000000000000000000000000000000000008152600401610d8b9061273e565b60405180910390fd5b610da0848484846116bf565b50505050565b6000610db182611100565b9050919050565b6060610dc382611100565b610e02576040517f08c379a0000000000000000000000000000000000000000000000000000000008152600401610df9906129cc565b60405180910390fd5b6000600660008481526020019081526020016000208054610e22906124e4565b80601f0160208091040260200160405190810160405280929190818152602001828054610e4e906124e4565b8015610e9b5780601f10610e7057610100808354040283529160200191610e9b565b820191906000526020600020905b815481529060010190602001808311610e7e57829003601f168201915b505050505090506000610eac61171b565b9050600081511415610ec2578192505050610f05565b600082511115610ef7578082604051602001610edf929190612a28565b60405160208183030381529060405292505050610f05565b610f0084611732565b925050505b919050565b6000600560008473ffffffffffffffffffffffffffffffffffffffff1673ffffffffffffffffffffffffffffffffffffffff16815260200190815260200160002060008373ffffffffffffffffffffffffffffffffffffffff1673ffffffffffffffffffffffffffffffffffffffff16815260200190815260200160002060009054906101000a900460ff16905092915050565b610fa661116c565b73ffffffffffffffffffffffffffffffffffffffff16610fc4610953565b73ffffffffffffffffffffffffffffffffffffffff161461101a576040517f08c379a0000000000000000000000000000000000000000000000000000000008152600401611011906128ce565b60405180910390fd5b600073ffffffffffffffffffffffffffffffffffffffff168173ffffffffffffffffffffffffffffffffffffffff16141561108a576040517f08c379a000000000000000000000000000000000000000000000000000000000815260040161108190612abe565b60405180910390fd5b61109381611567565b50565b60007f01ffc9a7000000000000000000000000000000000000000000000000000000007bffffffffffffffffffffffffffffffffffffffffffffffffffffffff1916827bffffffffffffffffffffffffffffffffffffffffffffffffffffffff1916149050919050565b60008073ffffffffffffffffffffffffffffffffffffffff166002600084815260200190815260200160002060009054906101000a900473ffffffffffffffffffffffffffffffffffffffff1673ffffffffffffffffffffffffffffffffffffffff1614159050919050565b600033905090565b816004600083815260200190815260200160002060006101000a81548173ffffffffffffffffffffffffffffffffffffffff021916908373ffffffffffffffffffffffffffffffffffffffff160217905550808273ffffffffffffffffffffffffffffffffffffffff166111e783610761565b73ffffffffffffffffffffffffffffffffffffffff167f8c5be1e5ebec7d5bd14f71427d1e84f3dd0314c0f7b2291e5b200ac8c7c3b92560405160405180910390a45050565b600061123882611100565b611277576040517f08c379a000000000000000000000000000000000000000000000000000000000815260040161126e90612b50565b60405180910390fd5b600061128283610761565b90508073ffffffffffffffffffffffffffffffffffffffff168473ffffffffffffffffffffffffffffffffffffffff1614806112f157508373ffffffffffffffffffffffffffffffffffffffff166112d984610544565b73ffffffffffffffffffffffffffffffffffffffff16145b8061130257506113018185610f0a565b5b91505092915050565b8273ffffffffffffffffffffffffffffffffffffffff1661132b82610761565b73ffffffffffffffffffffffffffffffffffffffff1614611381576040517f08c379a000000000000000000000000000000000000000000000000000000000815260040161137890612be2565b60405180910390fd5b600073ffffffffffffffffffffffffffffffffffffffff168273ffffffffffffffffffffffffffffffffffffffff1614156113f1576040517f08c379a00000000000000000000000000000000000000000000000000000000081526004016113e890612c74565b60405180910390fd5b6113fc8383836117d9565b611407600082611174565b6001600360008573ffffffffffffffffffffffffffffffffffffffff1673ffffffffffffffffffffffffffffffffffffffff16815260200190815260200160002060008282546114579190612cc3565b925050819055506001600360008473ffffffffffffffffffffffffffffffffffffffff1673ffffffffffffffffffffffffffffffffffffffff16815260200190815260200160002060008282546114ae9190612cf7565b92505081905550816002600083815260200190815260200160002060006101000a81548173ffffffffffffffffffffffffffffffffffffffff021916908373ffffffffffffffffffffffffffffffffffffffff160217905550808273ffffffffffffffffffffffffffffffffffffffff168473ffffffffffffffffffffffffffffffffffffffff167fddf252ad1be2c89b69c2b068fc378daa952ba7f163c4a11628f55a4df523b3ef60405160405180910390a4505050565b6000600760009054906101000a900473ffffffffffffffffffffffffffffffffffffffff16905081600760006101000a81548173ffffffffffffffffffffffffffffffffffffffff021916908373ffffffffffffffffffffffffffffffffffffffff1602179055508173ffffffffffffffffffffffffffffffffffffffff168173ffffffffffffffffffffffffffffffffffffffff167f8be0079c531659141344cd1fd0a4f28419497f9722a3daafe3b4186f6b6457e060405160405180910390a35050565b6116478282604051806020016040528060008152506117de565b5050565b61165482611100565b611693576040517f08c379a000000000000000000000000000000000000000000000000000000000815260040161168a90612dbf565b60405180910390fd5b806006600084815260200190815260200160002090805190602001906116ba929190611d03565b505050565b6116ca84848461130b565b6116d684848484611839565b611715576040517f08c379a000000000000000000000000000000000000000000000000000000000815260040161170c90612e51565b60405180910390fd5b50505050565b606060405180602001604052806000815250905090565b606061173d82611100565b61177c576040517f08c379a000000000000000000000000000000000000000000000000000000000815260040161177390612ee3565b60405180910390fd5b600061178661171b565b905060008151116117a657604051806020016040528060008152506117d1565b806117b0846119c1565b6040516020016117c1929190612a28565b6040516020818303038152906040525b915050919050565b505050565b6117e88383611b22565b6117f56000848484611839565b611834576040517f08c379a000000000000000000000000000000000000000000000000000000000815260040161182b90612e51565b60405180910390fd5b505050565b600061185a8473ffffffffffffffffffffffffffffffffffffffff16611cf0565b156119b4578373ffffffffffffffffffffffffffffffffffffffff1663150b7a0261188361116c565b8786866040518563ffffffff1660e01b81526004016118a59493929190612f58565b6020604051808303816000875af19250505080156118e157506040513d601f19601f820116820180604052508101906118de9190612fb9565b60015b611964573d8060008114611911576040519150601f19603f3d011682016040523d82523d6000602084013e611916565b606091505b5060008151141561195c576040517f08c379a000000000000000000000000000000000000000000000000000000000815260040161195390612e51565b60405180910390fd5b805181602001fd5b63150b7a0260e01b7bffffffffffffffffffffffffffffffffffffffffffffffffffffffff1916817bffffffffffffffffffffffffffffffffffffffffffffffffffffffff1916149150506119b9565b600190505b949350505050565b60606000821415611a09576040518060400160405280600181526020017f30000000000000000000000000000000000000000000000000000000000000008152509050611b1d565b600082905060005b60008214611a3b578080611a2490612fe6565b915050600a82611a34919061305e565b9150611a11565b60008167ffffffffffffffff811115611a5757611a5661210f565b5b6040519080825280601f01601f191660200182016040528015611a895781602001600182028036833780820191505090505b5090505b60008514611b1657600182611aa29190612cc3565b9150600a85611ab1919061308f565b6030611abd9190612cf7565b60f81b818381518110611ad357611ad26130c0565b5b60200101907effffffffffffffffffffffffffffffffffffffffffffffffffffffffffffff1916908160001a905350600a85611b0f919061305e565b9450611a8d565b8093505050505b919050565b600073ffffffffffffffffffffffffffffffffffffffff168273ffffffffffffffffffffffffffffffffffffffff161415611b92576040517f08c379a0000000000000000000000000000000000000000000000000000000008152600401611b899061313b565b60405180910390fd5b611b9b81611100565b15611bdb576040517f08c379a0000000000000000000000000000000000000000000000000000000008152600401611bd2906131a7565b60405180910390fd5b611be7600083836117d9565b6001600360008473ffffffffffffffffffffffffffffffffffffffff1673ffffffffffffffffffffffffffffffffffffffff1681526020019081526020016000206000828254611c379190612cf7565b92505081905550816002600083815260200190815260200160002060006101000a81548173ffffffffffffffffffffffffffffffffffffffff021916908373ffffffffffffffffffffffffffffffffffffffff160217905550808273ffffffffffffffffffffffffffffffffffffffff16600073ffffffffffffffffffffffffffffffffffffffff167fddf252ad1be2c89b69c2b068fc378daa952ba7f163c4a11628f55a4df523b3ef60405160405180910390a45050565b600080823b905060008111915050919050565b828054611d0f906124e4565b90600052602060002090601f016020900481019282611d315760008555611d78565b82601f10611d4a57805160ff1916838001178555611d78565b82800160010185558215611d78579182015b82811115611d77578251825591602001919060010190611d5c565b5b509050611d859190611d89565b5090565b5b80821115611da2576000816000905550600101611d8a565b5090565b6000604051905090565b600080fd5b600080fd5b60007fffffffff0000000000000000000000000000000000000000000000000000000082169050919050565b611def81611dba565b8114611dfa57600080fd5b50565b600081359050611e0c81611de6565b92915050565b600060208284031215611e2857611e27611db0565b5b6000611e3684828501611dfd565b91505092915050565b60008115159050919050565b611e5481611e3f565b82525050565b6000602082019050611e6f6000830184611e4b565b92915050565b600081519050919050565b600082825260208201905092915050565b60005b83811015611eaf578082015181840152602081019050611e94565b83811115611ebe576000848401525b50505050565b6000601f19601f8301169050919050565b6000611ee082611e75565b611eea8185611e80565b9350611efa818560208601611e91565b611f0381611ec4565b840191505092915050565b60006020820190508181036000830152611f288184611ed5565b905092915050565b6000819050919050565b611f4381611f30565b8114611f4e57600080fd5b50565b600081359050611f6081611f3a565b92915050565b600060208284031215611f7c57611f7b611db0565b5b6000611f8a84828501611f51565b91505092915050565b600073ffffffffffffffffffffffffffffffffffffffff82169050919050565b6000611fbe82611f93565b9050919050565b611fce81611fb3565b82525050565b6000602082019050611fe96000830184611fc5565b92915050565b611ff881611fb3565b811461200357600080fd5b50565b60008135905061201581611fef565b92915050565b6000806040838503121561203257612031611db0565b5b600061204085828601612006565b925050602061205185828601611f51565b9150509250929050565b60008060006060848603121561207457612073611db0565b5b600061208286828701612006565b935050602061209386828701612006565b92505060406120a486828701611f51565b9150509250925092565b6000602082840312156120c4576120c3611db0565b5b60006120d284828501612006565b91505092915050565b6120e481611f30565b82525050565b60006020820190506120ff60008301846120db565b92915050565b600080fd5b600080fd5b7f4e487b7100000000000000000000000000000000000000000000000000000000600052604160045260246000fd5b61214782611ec4565b810181811067ffffffffffffffff821117156121665761216561210f565b5b80604052505050565b6000612179611da6565b9050612185828261213e565b919050565b600067ffffffffffffffff8211156121a5576121a461210f565b5b6121ae82611ec4565b9050602081019050919050565b82818337600083830152505050565b60006121dd6121d88461218a565b61216f565b9050828152602081018484840111156121f9576121f861210a565b5b6122048482856121bb565b509392505050565b600082601f83011261222157612220612105565b5b81356122318482602086016121ca565b91505092915050565b60008060006060848603121561225357612252611db0565b5b600084013567ffffffffffffffff81111561227157612270611db5565b5b61227d8682870161220c565b935050602061228e86828701611f51565b925050604061229f86828701611f51565b9150509250925092565b6122b281611e3f565b81146122bd57600080fd5b50565b6000813590506122cf816122a9565b92915050565b600080604083850312156122ec576122eb611db0565b5b60006122fa85828601612006565b925050602061230b858286016122c0565b9150509250929050565b600061232082611f93565b9050919050565b61233081612315565b82525050565b600060208201905061234b6000830184612327565b92915050565b600067ffffffffffffffff82111561236c5761236b61210f565b5b61237582611ec4565b9050602081019050919050565b600061239561239084612351565b61216f565b9050828152602081018484840111156123b1576123b061210a565b5b6123bc8482856121bb565b509392505050565b600082601f8301126123d9576123d8612105565b5b81356123e9848260208601612382565b91505092915050565b6000806000806080858703121561240c5761240b611db0565b5b600061241a87828801612006565b945050602061242b87828801612006565b935050604061243c87828801611f51565b925050606085013567ffffffffffffffff81111561245d5761245c611db5565b5b612469878288016123c4565b91505092959194509250565b6000806040838503121561248c5761248b611db0565b5b600061249a85828601612006565b92505060206124ab85828601612006565b9150509250929050565b7f4e487b7100000000000000000000000000000000000000000000000000000000600052602260045260246000fd5b600060028204905060018216806124fc57607f821691505b602082108114156125105761250f6124b5565b5b50919050565b7f4552433732313a20617070726f76656420717565727920666f72206e6f6e657860008201527f697374656e7420746f6b656e0000000000000000000000000000000000000000602082015250565b6000612572602c83611e80565b915061257d82612516565b604082019050919050565b600060208201905081810360008301526125a181612565565b9050919050565b7f4552433732313a20617070726f76616c20746f2063757272656e74206f776e6560008201527f7200000000000000000000000000000000000000000000000000000000000000602082015250565b6000612604602183611e80565b915061260f826125a8565b604082019050919050565b60006020820190508181036000830152612633816125f7565b9050919050565b7f4552433732313a20617070726f76652063616c6c6572206973206e6f74206f7760008201527f6e6572206e6f7220617070726f76656420666f7220616c6c0000000000000000602082015250565b6000612696603883611e80565b91506126a18261263a565b604082019050919050565b600060208201905081810360008301526126c581612689565b9050919050565b7f4552433732313a207472616e736665722063616c6c6572206973206e6f74206f60008201527f776e6572206e6f7220617070726f766564000000000000000000000000000000602082015250565b6000612728603183611e80565b9150612733826126cc565b604082019050919050565b600060208201905081810360008301526127578161271b565b9050919050565b7f4552433732313a206f776e657220717565727920666f72206e6f6e657869737460008201527f656e7420746f6b656e0000000000000000000000000000000000000000000000602082015250565b60006127ba602983611e80565b91506127c58261275e565b604082019050919050565b600060208201905081810360008301526127e9816127ad565b9050919050565b7f4552433732313a2062616c616e636520717565727920666f7220746865207a6560008201527f726f206164647265737300000000000000000000000000000000000000000000602082015250565b600061284c602a83611e80565b9150612857826127f0565b604082019050919050565b6000602082019050818103600083015261287b8161283f565b9050919050565b7f4f776e61626c653a2063616c6c6572206973206e6f7420746865206f776e6572600082015250565b60006128b8602083611e80565b91506128c382612882565b602082019050919050565b600060208201905081810360008301526128e7816128ab565b9050919050565b7f4552433732313a20617070726f766520746f2063616c6c657200000000000000600082015250565b6000612924601983611e80565b915061292f826128ee565b602082019050919050565b6000602082019050818103600083015261295381612917565b9050919050565b7f45524337323155524953746f726167653a2055524920717565727920666f722060008201527f6e6f6e6578697374656e7420746f6b656e000000000000000000000000000000602082015250565b60006129b6603183611e80565b91506129c18261295a565b604082019050919050565b600060208201905081810360008301526129e5816129a9565b9050919050565b600081905092915050565b6000612a0282611e75565b612a0c81856129ec565b9350612a1c818560208601611e91565b80840191505092915050565b6000612a3482856129f7565b9150612a4082846129f7565b91508190509392505050565b7f4f776e61626c653a206e6577206f776e657220697320746865207a65726f206160008201527f6464726573730000000000000000000000000000000000000000000000000000602082015250565b6000612aa8602683611e80565b9150612ab382612a4c565b604082019050919050565b60006020820190508181036000830152612ad781612a9b565b9050919050565b7f4552433732313a206f70657261746f7220717565727920666f72206e6f6e657860008201527f697374656e7420746f6b656e0000000000000000000000000000000000000000602082015250565b6000612b3a602c83611e80565b9150612b4582612ade565b604082019050919050565b60006020820190508181036000830152612b6981612b2d565b9050919050565b7f4552433732313a207472616e73666572206f6620746f6b656e2074686174206960008201527f73206e6f74206f776e0000000000000000000000000000000000000000000000602082015250565b6000612bcc602983611e80565b9150612bd782612b70565b604082019050919050565b60006020820190508181036000830152612bfb81612bbf565b9050919050565b7f4552433732313a207472616e7366657220746f20746865207a65726f2061646460008201527f7265737300000000000000000000000000000000000000000000000000000000602082015250565b6000612c5e602483611e80565b9150612c6982612c02565b604082019050919050565b60006020820190508181036000830152612c8d81612c51565b9050919050565b7f4e487b7100000000000000000000000000000000000000000000000000000000600052601160045260246000fd5b6000612cce82611f30565b9150612cd983611f30565b925082821015612cec57612ceb612c94565b5b828203905092915050565b6000612d0282611f30565b9150612d0d83611f30565b9250827fffffffffffffffffffffffffffffffffffffffffffffffffffffffffffffffff03821115612d4257612d41612c94565b5b828201905092915050565b7f45524337323155524953746f726167653a2055524920736574206f66206e6f6e60008201527f6578697374656e7420746f6b656e000000000000000000000000000000000000602082015250565b6000612da9602e83611e80565b9150612db482612d4d565b604082019050919050565b60006020820190508181036000830152612dd881612d9c565b9050919050565b7f4552433732313a207472616e7366657220746f206e6f6e20455243373231526560008201527f63656976657220696d706c656d656e7465720000000000000000000000000000602082015250565b6000612e3b603283611e80565b9150612e4682612ddf565b604082019050919050565b60006020820190508181036000830152612e6a81612e2e565b9050919050565b7f4552433732314d657461646174613a2055524920717565727920666f72206e6f60008201527f6e6578697374656e7420746f6b656e0000000000000000000000000000000000602082015250565b6000612ecd602f83611e80565b9150612ed882612e71565b604082019050919050565b60006020820190508181036000830152612efc81612ec0565b9050919050565b600081519050919050565b600082825260208201905092915050565b6000612f2a82612f03565b612f348185612f0e565b9350612f44818560208601611e91565b612f4d81611ec4565b840191505092915050565b6000608082019050612f6d6000830187611fc5565b612f7a6020830186611fc5565b612f8760408301856120db565b8181036060830152612f998184612f1f565b905095945050505050565b600081519050612fb381611de6565b92915050565b600060208284031215612fcf57612fce611db0565b5b6000612fdd84828501612fa4565b91505092915050565b6000612ff182611f30565b91507fffffffffffffffffffffffffffffffffffffffffffffffffffffffffffffffff82141561302457613023612c94565b5b600182019050919050565b7f4e487b7100000000000000000000000000000000000000000000000000000000600052601260045260246000fd5b600061306982611f30565b915061307483611f30565b9250826130845761308361302f565b5b828204905092915050565b600061309a82611f30565b91506130a583611f30565b9250826130b5576130b461302f565b5b828206905092915050565b7f4e487b7100000000000000000000000000000000000000000000000000000000600052603260045260246000fd5b7f4552433732313a206d696e7420746f20746865207a65726f2061646472657373600082015250565b6000613125602083611e80565b9150613130826130ef565b602082019050919050565b6000602082019050818103600083015261315481613118565b9050919050565b7f4552433732313a20746f6b656e20616c7265616479206d696e74656400000000600082015250565b6000613191601c83611e80565b915061319c8261315b565b602082019050919050565b600060208201905081810360008301526131c081613184565b905091905056fea26469706673582212202c7fda4ae17cbf1d339aa94554cd19a1f509ef7e1bc3979fe8d5d41c7e28989664736f6c634300080a0033",
  "immutableReferences": {},
  "source": "// SPDX-License-Identifier: MIT\npragma solidity 0.8.10;\n\nimport \"@openzeppelin/contracts/utils/Counters.sol\";\nimport \"@openzeppelin/contracts/access/Ownable.sol\";\nimport \"@openzeppelin/contracts/token/ERC721/extensions/ERC721URIStorage.sol\";\nimport \"@openzeppelin/contracts/security/ReentrancyGuard.sol\";\n\ncontract ContractEstate is ERC721URIStorage, Ownable {\n    using Counters for Counters.Counter;\n    Counters.Counter private deedNumber;\n\n    address contractAddress;\n\n    address payable public _owner;\n    mapping(uint256 => PropertyNft) private propertyNftData;\n\n    struct PropertyNft {\n        uint256 deedNumber;\n        address  owner;\n        string tokenUri;\n        uint256 price;\n    }\n\n    constructor(address smartPropertyMarket)  ERC721(\"ESTATE CONTRACT CHAIN\", \"ECC\") {\n        _owner = payable(msg.sender);\n        contractAddress = smartPropertyMarket;\n    }\n\n    /// @notice Mints a new property NFT token\n    /// @param tokenLink is the ipfs URI for the NFT\n    /// @param _price is the property Value. Its passed by the caller from the ipfs metadata\n    /// @param _deed is the deed number to identify the Property (TokenID). Its passed by the caller. Its a from the ipfs metadata\n    /// @return uint256 The deed  of the minted NFT\n    function createPropertyNft( string memory tokenLink, uint256 _price, uint256 _deed)\n        public onlyOwner\n        returns (uint256)\n    {\n\n        _safeMint(msg.sender, _deed);\n        _setTokenURI(_deed, tokenLink);\n        setApprovalForAll(contractAddress, true);\n\n        propertyNftData[_deed] = PropertyNft(_deed, msg.sender, tokenLink, _price); //get price from ipfs\n\n        return _deed;\n    }\n\n    function checkIfPropertyExists(uint256 deed) public view returns(bool){\n        return _exists(deed);\n    }\n\n}",
  "sourcePath": "/Users/kelvinchelenje/Desktop/Incubation/Blockchain/projects/blockchain-developer-bootcamp-final-project/contracts/ContractEstate.sol",
  "compiler": {
    "name": "solc",
    "version": "0.8.10+commit.fc410830.Emscripten.clang"
  },
  "schemaVersion": "3.4.3",
  "updatedAt": "2021-11-24T19:56:52.734Z",
  "networkType": "ethereum",
  "devdoc": {
    "kind": "dev",
    "methods": {
      "approve(address,uint256)": {
        "details": "See {IERC721-approve}."
      },
      "balanceOf(address)": {
        "details": "See {IERC721-balanceOf}."
      },
      "createPropertyNft(string,uint256,uint256)": {
        "params": {
          "_deed": "is the deed number to identify the Property (TokenID). Its passed by the caller. Its a from the ipfs metadata",
          "_price": "is the property Value. Its passed by the caller from the ipfs metadata",
          "tokenLink": "is the ipfs URI for the NFT"
        },
        "returns": {
          "_0": "uint256 The deed  of the minted NFT"
        }
      },
      "getApproved(uint256)": {
        "details": "See {IERC721-getApproved}."
      },
      "isApprovedForAll(address,address)": {
        "details": "See {IERC721-isApprovedForAll}."
      },
      "name()": {
        "details": "See {IERC721Metadata-name}."
      },
      "owner()": {
        "details": "Returns the address of the current owner."
      },
      "ownerOf(uint256)": {
        "details": "See {IERC721-ownerOf}."
      },
      "renounceOwnership()": {
        "details": "Leaves the contract without owner. It will not be possible to call `onlyOwner` functions anymore. Can only be called by the current owner. NOTE: Renouncing ownership will leave the contract without an owner, thereby removing any functionality that is only available to the owner."
      },
      "safeTransferFrom(address,address,uint256)": {
        "details": "See {IERC721-safeTransferFrom}."
      },
      "safeTransferFrom(address,address,uint256,bytes)": {
        "details": "See {IERC721-safeTransferFrom}."
      },
      "setApprovalForAll(address,bool)": {
        "details": "See {IERC721-setApprovalForAll}."
      },
      "supportsInterface(bytes4)": {
        "details": "See {IERC165-supportsInterface}."
      },
      "symbol()": {
        "details": "See {IERC721Metadata-symbol}."
      },
      "tokenURI(uint256)": {
        "details": "See {IERC721Metadata-tokenURI}."
      },
      "transferFrom(address,address,uint256)": {
        "details": "See {IERC721-transferFrom}."
      },
      "transferOwnership(address)": {
        "details": "Transfers ownership of the contract to a new account (`newOwner`). Can only be called by the current owner."
      }
    },
    "version": 1
  },
  "userdoc": {
    "kind": "user",
    "methods": {
      "createPropertyNft(string,uint256,uint256)": {
        "notice": "Mints a new property NFT token"
      }
    },
    "version": 1
  }
}