{
  "contractName": "ContractEstate",
  "abi": [
    {
      "inputs": [
        {
          "internalType": "address",
          "name": "smartPropertyMarket",
          "type": "address"
        }
      ],
      "stateMutability": "nonpayable",
      "type": "constructor"
    },
    {
      "anonymous": false,
      "inputs": [
        {
          "indexed": true,
          "internalType": "address",
          "name": "owner",
          "type": "address"
        },
        {
          "indexed": true,
          "internalType": "address",
          "name": "approved",
          "type": "address"
        },
        {
          "indexed": true,
          "internalType": "uint256",
          "name": "tokenId",
          "type": "uint256"
        }
      ],
      "name": "Approval",
      "type": "event"
    },
    {
      "anonymous": false,
      "inputs": [
        {
          "indexed": true,
          "internalType": "address",
          "name": "owner",
          "type": "address"
        },
        {
          "indexed": true,
          "internalType": "address",
          "name": "operator",
          "type": "address"
        },
        {
          "indexed": false,
          "internalType": "bool",
          "name": "approved",
          "type": "bool"
        }
      ],
      "name": "ApprovalForAll",
      "type": "event"
    },
    {
      "anonymous": false,
      "inputs": [
        {
          "indexed": true,
          "internalType": "address",
          "name": "previousOwner",
          "type": "address"
        },
        {
          "indexed": true,
          "internalType": "address",
          "name": "newOwner",
          "type": "address"
        }
      ],
      "name": "OwnershipTransferred",
      "type": "event"
    },
    {
      "anonymous": false,
      "inputs": [
        {
          "indexed": true,
          "internalType": "address",
          "name": "from",
          "type": "address"
        },
        {
          "indexed": true,
          "internalType": "address",
          "name": "to",
          "type": "address"
        },
        {
          "indexed": true,
          "internalType": "uint256",
          "name": "tokenId",
          "type": "uint256"
        }
      ],
      "name": "Transfer",
      "type": "event"
    },
    {
      "inputs": [],
      "name": "_owner",
      "outputs": [
        {
          "internalType": "address payable",
          "name": "",
          "type": "address"
        }
      ],
      "stateMutability": "view",
      "type": "function",
      "constant": true
    },
    {
      "inputs": [
        {
          "internalType": "address",
          "name": "to",
          "type": "address"
        },
        {
          "internalType": "uint256",
          "name": "tokenId",
          "type": "uint256"
        }
      ],
      "name": "approve",
      "outputs": [],
      "stateMutability": "nonpayable",
      "type": "function"
    },
    {
      "inputs": [
        {
          "internalType": "address",
          "name": "owner",
          "type": "address"
        }
      ],
      "name": "balanceOf",
      "outputs": [
        {
          "internalType": "uint256",
          "name": "",
          "type": "uint256"
        }
      ],
      "stateMutability": "view",
      "type": "function",
      "constant": true
    },
    {
      "inputs": [
        {
          "internalType": "uint256",
          "name": "tokenId",
          "type": "uint256"
        }
      ],
      "name": "getApproved",
      "outputs": [
        {
          "internalType": "address",
          "name": "",
          "type": "address"
        }
      ],
      "stateMutability": "view",
      "type": "function",
      "constant": true
    },
    {
      "inputs": [
        {
          "internalType": "address",
          "name": "owner",
          "type": "address"
        },
        {
          "internalType": "address",
          "name": "operator",
          "type": "address"
        }
      ],
      "name": "isApprovedForAll",
      "outputs": [
        {
          "internalType": "bool",
          "name": "",
          "type": "bool"
        }
      ],
      "stateMutability": "view",
      "type": "function",
      "constant": true
    },
    {
      "inputs": [],
      "name": "name",
      "outputs": [
        {
          "internalType": "string",
          "name": "",
          "type": "string"
        }
      ],
      "stateMutability": "view",
      "type": "function",
      "constant": true
    },
    {
      "inputs": [],
      "name": "owner",
      "outputs": [
        {
          "internalType": "address",
          "name": "",
          "type": "address"
        }
      ],
      "stateMutability": "view",
      "type": "function",
      "constant": true
    },
    {
      "inputs": [
        {
          "internalType": "uint256",
          "name": "tokenId",
          "type": "uint256"
        }
      ],
      "name": "ownerOf",
      "outputs": [
        {
          "internalType": "address",
          "name": "",
          "type": "address"
        }
      ],
      "stateMutability": "view",
      "type": "function",
      "constant": true
    },
    {
      "inputs": [],
      "name": "renounceOwnership",
      "outputs": [],
      "stateMutability": "nonpayable",
      "type": "function"
    },
    {
      "inputs": [
        {
          "internalType": "address",
          "name": "from",
          "type": "address"
        },
        {
          "internalType": "address",
          "name": "to",
          "type": "address"
        },
        {
          "internalType": "uint256",
          "name": "tokenId",
          "type": "uint256"
        }
      ],
      "name": "safeTransferFrom",
      "outputs": [],
      "stateMutability": "nonpayable",
      "type": "function"
    },
    {
      "inputs": [
        {
          "internalType": "address",
          "name": "from",
          "type": "address"
        },
        {
          "internalType": "address",
          "name": "to",
          "type": "address"
        },
        {
          "internalType": "uint256",
          "name": "tokenId",
          "type": "uint256"
        },
        {
          "internalType": "bytes",
          "name": "_data",
          "type": "bytes"
        }
      ],
      "name": "safeTransferFrom",
      "outputs": [],
      "stateMutability": "nonpayable",
      "type": "function"
    },
    {
      "inputs": [
        {
          "internalType": "address",
          "name": "operator",
          "type": "address"
        },
        {
          "internalType": "bool",
          "name": "approved",
          "type": "bool"
        }
      ],
      "name": "setApprovalForAll",
      "outputs": [],
      "stateMutability": "nonpayable",
      "type": "function"
    },
    {
      "inputs": [
        {
          "internalType": "bytes4",
          "name": "interfaceId",
          "type": "bytes4"
        }
      ],
      "name": "supportsInterface",
      "outputs": [
        {
          "internalType": "bool",
          "name": "",
          "type": "bool"
        }
      ],
      "stateMutability": "view",
      "type": "function",
      "constant": true
    },
    {
      "inputs": [],
      "name": "symbol",
      "outputs": [
        {
          "internalType": "string",
          "name": "",
          "type": "string"
        }
      ],
      "stateMutability": "view",
      "type": "function",
      "constant": true
    },
    {
      "inputs": [
        {
          "internalType": "uint256",
          "name": "tokenId",
          "type": "uint256"
        }
      ],
      "name": "tokenURI",
      "outputs": [
        {
          "internalType": "string",
          "name": "",
          "type": "string"
        }
      ],
      "stateMutability": "view",
      "type": "function",
      "constant": true
    },
    {
      "inputs": [
        {
          "internalType": "address",
          "name": "from",
          "type": "address"
        },
        {
          "internalType": "address",
          "name": "to",
          "type": "address"
        },
        {
          "internalType": "uint256",
          "name": "tokenId",
          "type": "uint256"
        }
      ],
      "name": "transferFrom",
      "outputs": [],
      "stateMutability": "nonpayable",
      "type": "function"
    },
    {
      "inputs": [
        {
          "internalType": "address",
          "name": "newOwner",
          "type": "address"
        }
      ],
      "name": "transferOwnership",
      "outputs": [],
      "stateMutability": "nonpayable",
      "type": "function"
    },
    {
      "inputs": [
        {
          "internalType": "string",
          "name": "tokenURI",
          "type": "string"
        },
        {
          "internalType": "uint256",
          "name": "_price",
          "type": "uint256"
        },
        {
          "internalType": "uint256",
          "name": "_deed",
          "type": "uint256"
        }
      ],
      "name": "createPropertyNft",
      "outputs": [
        {
          "internalType": "uint256",
          "name": "",
          "type": "uint256"
        }
      ],
      "stateMutability": "nonpayable",
      "type": "function"
    },
    {
      "inputs": [
        {
          "internalType": "uint256",
          "name": "deed",
          "type": "uint256"
        }
      ],
      "name": "checkIfPropertyExists",
      "outputs": [
        {
          "internalType": "bool",
          "name": "",
          "type": "bool"
        }
      ],
      "stateMutability": "view",
      "type": "function",
      "constant": true
    },
    {
      "inputs": [],
      "name": "getUserProperties",
      "outputs": [
        {
          "components": [
            {
              "internalType": "uint256",
              "name": "deedNumber",
              "type": "uint256"
            },
            {
              "internalType": "address",
              "name": "owner",
              "type": "address"
            },
            {
              "internalType": "string",
              "name": "tokenUri",
              "type": "string"
            },
            {
              "internalType": "uint256",
              "name": "price",
              "type": "uint256"
            }
          ],
          "internalType": "struct ContractEstate.propertyNft[]",
          "name": "",
          "type": "tuple[]"
        }
      ],
      "stateMutability": "view",
      "type": "function",
      "constant": true
    }
  ],
  "bytecode": "0x60806040523480156200001157600080fd5b5060405162003b0238038062003b02833981810160405281019062000037919062000368565b6040518060400160405280601581526020017f45535441544520434f4e545241435420434841494e00000000000000000000008152506040518060400160405280600381526020017f45434300000000000000000000000000000000000000000000000000000000008152508160009080519060200190620000bb9291906200024e565b508060019080519060200190620000d49291906200024e565b505050620000f7620000eb6200018060201b60201c565b6200018860201b60201c565b33600b60006101000a81548173ffffffffffffffffffffffffffffffffffffffff021916908373ffffffffffffffffffffffffffffffffffffffff16021790555080600a60006101000a81548173ffffffffffffffffffffffffffffffffffffffff021916908373ffffffffffffffffffffffffffffffffffffffff16021790555050620003ff565b600033905090565b6000600760009054906101000a900473ffffffffffffffffffffffffffffffffffffffff16905081600760006101000a81548173ffffffffffffffffffffffffffffffffffffffff021916908373ffffffffffffffffffffffffffffffffffffffff1602179055508173ffffffffffffffffffffffffffffffffffffffff168173ffffffffffffffffffffffffffffffffffffffff167f8be0079c531659141344cd1fd0a4f28419497f9722a3daafe3b4186f6b6457e060405160405180910390a35050565b8280546200025c90620003c9565b90600052602060002090601f016020900481019282620002805760008555620002cc565b82601f106200029b57805160ff1916838001178555620002cc565b82800160010185558215620002cc579182015b82811115620002cb578251825591602001919060010190620002ae565b5b509050620002db9190620002df565b5090565b5b80821115620002fa576000816000905550600101620002e0565b5090565b600080fd5b600073ffffffffffffffffffffffffffffffffffffffff82169050919050565b6000620003308262000303565b9050919050565b620003428162000323565b81146200034e57600080fd5b50565b600081519050620003628162000337565b92915050565b600060208284031215620003815762000380620002fe565b5b6000620003918482850162000351565b91505092915050565b7f4e487b7100000000000000000000000000000000000000000000000000000000600052602260045260246000fd5b60006002820490506001821680620003e257607f821691505b60208210811415620003f957620003f86200039a565b5b50919050565b6136f3806200040f6000396000f3fe608060405234801561001057600080fd5b506004361061012c5760003560e01c80638da5cb5b116100ad578063b88d4fde11610071578063b88d4fde14610331578063b92b85d21461034d578063c87b56dd1461037d578063e985e9c5146103ad578063f2fde38b146103dd5761012c565b80638da5cb5b1461028b57806390e26997146102a957806395d89b41146102d9578063a22cb465146102f7578063b2bdfa7b146103135761012c565b806342842e0e116100f457806342842e0e146101e75780635d09be60146102035780636352211e1461022157806370a0823114610251578063715018a6146102815761012c565b806301ffc9a71461013157806306fdde0314610161578063081812fc1461017f578063095ea7b3146101af57806323b872dd146101cb575b600080fd5b61014b60048036038101906101469190612159565b6103f9565b60405161015891906121a1565b60405180910390f35b6101696104db565b6040516101769190612255565b60405180910390f35b610199600480360381019061019491906122ad565b61056d565b6040516101a6919061231b565b60405180910390f35b6101c960048036038101906101c49190612362565b6105f2565b005b6101e560048036038101906101e091906123a2565b61070a565b005b61020160048036038101906101fc91906123a2565b61076a565b005b61020b61078a565b6040516102189190612582565b60405180910390f35b61023b600480360381019061023691906122ad565b610a9b565b604051610248919061231b565b60405180910390f35b61026b600480360381019061026691906125a4565b610b4d565b60405161027891906125e0565b60405180910390f35b610289610c05565b005b610293610c8d565b6040516102a0919061231b565b60405180910390f35b6102c360048036038101906102be9190612730565b610cb7565b6040516102d091906125e0565b60405180910390f35b6102e1610e14565b6040516102ee9190612255565b60405180910390f35b610311600480360381019061030c91906127cb565b610ea6565b005b61031b611027565b604051610328919061282c565b60405180910390f35b61034b600480360381019061034691906128e8565b61104d565b005b610367600480360381019061036291906122ad565b6110af565b60405161037491906121a1565b60405180910390f35b610397600480360381019061039291906122ad565b6110c1565b6040516103a49190612255565b60405180910390f35b6103c760048036038101906103c2919061296b565b611213565b6040516103d491906121a1565b60405180910390f35b6103f760048036038101906103f291906125a4565b6112a7565b005b60007f80ac58cd000000000000000000000000000000000000000000000000000000007bffffffffffffffffffffffffffffffffffffffffffffffffffffffff1916827bffffffffffffffffffffffffffffffffffffffffffffffffffffffff191614806104c457507f5b5e139f000000000000000000000000000000000000000000000000000000007bffffffffffffffffffffffffffffffffffffffffffffffffffffffff1916827bffffffffffffffffffffffffffffffffffffffffffffffffffffffff1916145b806104d457506104d38261139f565b5b9050919050565b6060600080546104ea906129da565b80601f0160208091040260200160405190810160405280929190818152602001828054610516906129da565b80156105635780601f1061053857610100808354040283529160200191610563565b820191906000526020600020905b81548152906001019060200180831161054657829003601f168201915b5050505050905090565b600061057882611409565b6105b7576040517f08c379a00000000000000000000000000000000000000000000000000000000081526004016105ae90612a7e565b60405180910390fd5b6004600083815260200190815260200160002060009054906101000a900473ffffffffffffffffffffffffffffffffffffffff169050919050565b60006105fd82610a9b565b90508073ffffffffffffffffffffffffffffffffffffffff168373ffffffffffffffffffffffffffffffffffffffff16141561066e576040517f08c379a000000000000000000000000000000000000000000000000000000000815260040161066590612b10565b60405180910390fd5b8073ffffffffffffffffffffffffffffffffffffffff1661068d611475565b73ffffffffffffffffffffffffffffffffffffffff1614806106bc57506106bb816106b6611475565b611213565b5b6106fb576040517f08c379a00000000000000000000000000000000000000000000000000000000081526004016106f290612ba2565b60405180910390fd5b610705838361147d565b505050565b61071b610715611475565b82611536565b61075a576040517f08c379a000000000000000000000000000000000000000000000000000000000815260040161075190612c34565b60405180910390fd5b610765838383611614565b505050565b6107858383836040518060200160405280600081525061104d565b505050565b60606000600854905060008060005b83811015610841573373ffffffffffffffffffffffffffffffffffffffff16600c60006009600085815260200190815260200160002054815260200190815260200160002060010160009054906101000a900473ffffffffffffffffffffffffffffffffffffffff1673ffffffffffffffffffffffffffffffffffffffff16141561082e5760018361082b9190612c83565b92505b808061083990612cd9565b915050610799565b5060008267ffffffffffffffff81111561085e5761085d612605565b5b60405190808252806020026020018201604052801561089757816020015b61088461200c565b81526020019060019003908161087c5790505b50905060005b84811015610a90573373ffffffffffffffffffffffffffffffffffffffff16600c60006009600085815260200190815260200160002054815260200190815260200160002060010160009054906101000a900473ffffffffffffffffffffffffffffffffffffffff1673ffffffffffffffffffffffffffffffffffffffff161415610a7d57600c600060096000848152602001908152602001600020548152602001908152602001600020604051806080016040529081600082015481526020016001820160009054906101000a900473ffffffffffffffffffffffffffffffffffffffff1673ffffffffffffffffffffffffffffffffffffffff1673ffffffffffffffffffffffffffffffffffffffff1681526020016002820180546109c3906129da565b80601f01602080910402602001604051908101604052809291908181526020018280546109ef906129da565b8015610a3c5780601f10610a1157610100808354040283529160200191610a3c565b820191906000526020600020905b815481529060010190602001808311610a1f57829003601f168201915b50505050508152602001600382015481525050828481518110610a6257610a61612d22565b5b6020026020010181905250600183610a7a9190612c83565b92505b8080610a8890612cd9565b91505061089d565b508094505050505090565b6000806002600084815260200190815260200160002060009054906101000a900473ffffffffffffffffffffffffffffffffffffffff169050600073ffffffffffffffffffffffffffffffffffffffff168173ffffffffffffffffffffffffffffffffffffffff161415610b44576040517f08c379a0000000000000000000000000000000000000000000000000000000008152600401610b3b90612dc3565b60405180910390fd5b80915050919050565b60008073ffffffffffffffffffffffffffffffffffffffff168273ffffffffffffffffffffffffffffffffffffffff161415610bbe576040517f08c379a0000000000000000000000000000000000000000000000000000000008152600401610bb590612e55565b60405180910390fd5b600360008373ffffffffffffffffffffffffffffffffffffffff1673ffffffffffffffffffffffffffffffffffffffff168152602001908152602001600020549050919050565b610c0d611475565b73ffffffffffffffffffffffffffffffffffffffff16610c2b610c8d565b73ffffffffffffffffffffffffffffffffffffffff1614610c81576040517f08c379a0000000000000000000000000000000000000000000000000000000008152600401610c7890612ec1565b60405180910390fd5b610c8b6000611870565b565b6000600760009054906101000a900473ffffffffffffffffffffffffffffffffffffffff16905090565b6000808311610cc557600080fd5b60008211610cd257600080fd5b610cdc3383611936565b610ce68285611954565b610d13600a60009054906101000a900473ffffffffffffffffffffffffffffffffffffffff166001610ea6565b816009600060085481526020019081526020016000208190555060405180608001604052808381526020013373ffffffffffffffffffffffffffffffffffffffff16815260200185815260200184815250600c60008481526020019081526020016000206000820151816000015560208201518160010160006101000a81548173ffffffffffffffffffffffffffffffffffffffff021916908373ffffffffffffffffffffffffffffffffffffffff1602179055506040820151816002019080519060200190610de492919061204a565b506060820151816003015590505060086000815480929190610e0590612cd9565b91905055508190509392505050565b606060018054610e23906129da565b80601f0160208091040260200160405190810160405280929190818152602001828054610e4f906129da565b8015610e9c5780601f10610e7157610100808354040283529160200191610e9c565b820191906000526020600020905b815481529060010190602001808311610e7f57829003601f168201915b5050505050905090565b610eae611475565b73ffffffffffffffffffffffffffffffffffffffff168273ffffffffffffffffffffffffffffffffffffffff161415610f1c576040517f08c379a0000000000000000000000000000000000000000000000000000000008152600401610f1390612f2d565b60405180910390fd5b8060056000610f29611475565b73ffffffffffffffffffffffffffffffffffffffff1673ffffffffffffffffffffffffffffffffffffffff16815260200190815260200160002060008473ffffffffffffffffffffffffffffffffffffffff1673ffffffffffffffffffffffffffffffffffffffff16815260200190815260200160002060006101000a81548160ff0219169083151502179055508173ffffffffffffffffffffffffffffffffffffffff16610fd6611475565b73ffffffffffffffffffffffffffffffffffffffff167f17307eab39ab6107e8899845ad3d59bd9653f200f220920489ca2b5937696c318360405161101b91906121a1565b60405180910390a35050565b600b60009054906101000a900473ffffffffffffffffffffffffffffffffffffffff1681565b61105e611058611475565b83611536565b61109d576040517f08c379a000000000000000000000000000000000000000000000000000000000815260040161109490612c34565b60405180910390fd5b6110a9848484846119c8565b50505050565b60006110ba82611409565b9050919050565b60606110cc82611409565b61110b576040517f08c379a000000000000000000000000000000000000000000000000000000000815260040161110290612fbf565b60405180910390fd5b600060066000848152602001908152602001600020805461112b906129da565b80601f0160208091040260200160405190810160405280929190818152602001828054611157906129da565b80156111a45780601f10611179576101008083540402835291602001916111a4565b820191906000526020600020905b81548152906001019060200180831161118757829003601f168201915b5050505050905060006111b5611a24565b90506000815114156111cb57819250505061120e565b6000825111156112005780826040516020016111e892919061301b565b6040516020818303038152906040529250505061120e565b61120984611a3b565b925050505b919050565b6000600560008473ffffffffffffffffffffffffffffffffffffffff1673ffffffffffffffffffffffffffffffffffffffff16815260200190815260200160002060008373ffffffffffffffffffffffffffffffffffffffff1673ffffffffffffffffffffffffffffffffffffffff16815260200190815260200160002060009054906101000a900460ff16905092915050565b6112af611475565b73ffffffffffffffffffffffffffffffffffffffff166112cd610c8d565b73ffffffffffffffffffffffffffffffffffffffff1614611323576040517f08c379a000000000000000000000000000000000000000000000000000000000815260040161131a90612ec1565b60405180910390fd5b600073ffffffffffffffffffffffffffffffffffffffff168173ffffffffffffffffffffffffffffffffffffffff161415611393576040517f08c379a000000000000000000000000000000000000000000000000000000000815260040161138a906130b1565b60405180910390fd5b61139c81611870565b50565b60007f01ffc9a7000000000000000000000000000000000000000000000000000000007bffffffffffffffffffffffffffffffffffffffffffffffffffffffff1916827bffffffffffffffffffffffffffffffffffffffffffffffffffffffff1916149050919050565b60008073ffffffffffffffffffffffffffffffffffffffff166002600084815260200190815260200160002060009054906101000a900473ffffffffffffffffffffffffffffffffffffffff1673ffffffffffffffffffffffffffffffffffffffff1614159050919050565b600033905090565b816004600083815260200190815260200160002060006101000a81548173ffffffffffffffffffffffffffffffffffffffff021916908373ffffffffffffffffffffffffffffffffffffffff160217905550808273ffffffffffffffffffffffffffffffffffffffff166114f083610a9b565b73ffffffffffffffffffffffffffffffffffffffff167f8c5be1e5ebec7d5bd14f71427d1e84f3dd0314c0f7b2291e5b200ac8c7c3b92560405160405180910390a45050565b600061154182611409565b611580576040517f08c379a000000000000000000000000000000000000000000000000000000000815260040161157790613143565b60405180910390fd5b600061158b83610a9b565b90508073ffffffffffffffffffffffffffffffffffffffff168473ffffffffffffffffffffffffffffffffffffffff1614806115fa57508373ffffffffffffffffffffffffffffffffffffffff166115e28461056d565b73ffffffffffffffffffffffffffffffffffffffff16145b8061160b575061160a8185611213565b5b91505092915050565b8273ffffffffffffffffffffffffffffffffffffffff1661163482610a9b565b73ffffffffffffffffffffffffffffffffffffffff161461168a576040517f08c379a0000000000000000000000000000000000000000000000000000000008152600401611681906131d5565b60405180910390fd5b600073ffffffffffffffffffffffffffffffffffffffff168273ffffffffffffffffffffffffffffffffffffffff1614156116fa576040517f08c379a00000000000000000000000000000000000000000000000000000000081526004016116f190613267565b60405180910390fd5b611705838383611ae2565b61171060008261147d565b6001600360008573ffffffffffffffffffffffffffffffffffffffff1673ffffffffffffffffffffffffffffffffffffffff16815260200190815260200160002060008282546117609190613287565b925050819055506001600360008473ffffffffffffffffffffffffffffffffffffffff1673ffffffffffffffffffffffffffffffffffffffff16815260200190815260200160002060008282546117b79190612c83565b92505081905550816002600083815260200190815260200160002060006101000a81548173ffffffffffffffffffffffffffffffffffffffff021916908373ffffffffffffffffffffffffffffffffffffffff160217905550808273ffffffffffffffffffffffffffffffffffffffff168473ffffffffffffffffffffffffffffffffffffffff167fddf252ad1be2c89b69c2b068fc378daa952ba7f163c4a11628f55a4df523b3ef60405160405180910390a4505050565b6000600760009054906101000a900473ffffffffffffffffffffffffffffffffffffffff16905081600760006101000a81548173ffffffffffffffffffffffffffffffffffffffff021916908373ffffffffffffffffffffffffffffffffffffffff1602179055508173ffffffffffffffffffffffffffffffffffffffff168173ffffffffffffffffffffffffffffffffffffffff167f8be0079c531659141344cd1fd0a4f28419497f9722a3daafe3b4186f6b6457e060405160405180910390a35050565b611950828260405180602001604052806000815250611ae7565b5050565b61195d82611409565b61199c576040517f08c379a00000000000000000000000000000000000000000000000000000000081526004016119939061332d565b60405180910390fd5b806006600084815260200190815260200160002090805190602001906119c392919061204a565b505050565b6119d3848484611614565b6119df84848484611b42565b611a1e576040517f08c379a0000000000000000000000000000000000000000000000000000000008152600401611a15906133bf565b60405180910390fd5b50505050565b606060405180602001604052806000815250905090565b6060611a4682611409565b611a85576040517f08c379a0000000000000000000000000000000000000000000000000000000008152600401611a7c90613451565b60405180910390fd5b6000611a8f611a24565b90506000815111611aaf5760405180602001604052806000815250611ada565b80611ab984611cca565b604051602001611aca92919061301b565b6040516020818303038152906040525b915050919050565b505050565b611af18383611e2b565b611afe6000848484611b42565b611b3d576040517f08c379a0000000000000000000000000000000000000000000000000000000008152600401611b34906133bf565b60405180910390fd5b505050565b6000611b638473ffffffffffffffffffffffffffffffffffffffff16611ff9565b15611cbd578373ffffffffffffffffffffffffffffffffffffffff1663150b7a02611b8c611475565b8786866040518563ffffffff1660e01b8152600401611bae94939291906134c6565b6020604051808303816000875af1925050508015611bea57506040513d601f19601f82011682018060405250810190611be79190613527565b60015b611c6d573d8060008114611c1a576040519150601f19603f3d011682016040523d82523d6000602084013e611c1f565b606091505b50600081511415611c65576040517f08c379a0000000000000000000000000000000000000000000000000000000008152600401611c5c906133bf565b60405180910390fd5b805181602001fd5b63150b7a0260e01b7bffffffffffffffffffffffffffffffffffffffffffffffffffffffff1916817bffffffffffffffffffffffffffffffffffffffffffffffffffffffff191614915050611cc2565b600190505b949350505050565b60606000821415611d12576040518060400160405280600181526020017f30000000000000000000000000000000000000000000000000000000000000008152509050611e26565b600082905060005b60008214611d44578080611d2d90612cd9565b915050600a82611d3d9190613583565b9150611d1a565b60008167ffffffffffffffff811115611d6057611d5f612605565b5b6040519080825280601f01601f191660200182016040528015611d925781602001600182028036833780820191505090505b5090505b60008514611e1f57600182611dab9190613287565b9150600a85611dba91906135b4565b6030611dc69190612c83565b60f81b818381518110611ddc57611ddb612d22565b5b60200101907effffffffffffffffffffffffffffffffffffffffffffffffffffffffffffff1916908160001a905350600a85611e189190613583565b9450611d96565b8093505050505b919050565b600073ffffffffffffffffffffffffffffffffffffffff168273ffffffffffffffffffffffffffffffffffffffff161415611e9b576040517f08c379a0000000000000000000000000000000000000000000000000000000008152600401611e9290613631565b60405180910390fd5b611ea481611409565b15611ee4576040517f08c379a0000000000000000000000000000000000000000000000000000000008152600401611edb9061369d565b60405180910390fd5b611ef060008383611ae2565b6001600360008473ffffffffffffffffffffffffffffffffffffffff1673ffffffffffffffffffffffffffffffffffffffff1681526020019081526020016000206000828254611f409190612c83565b92505081905550816002600083815260200190815260200160002060006101000a81548173ffffffffffffffffffffffffffffffffffffffff021916908373ffffffffffffffffffffffffffffffffffffffff160217905550808273ffffffffffffffffffffffffffffffffffffffff16600073ffffffffffffffffffffffffffffffffffffffff167fddf252ad1be2c89b69c2b068fc378daa952ba7f163c4a11628f55a4df523b3ef60405160405180910390a45050565b600080823b905060008111915050919050565b604051806080016040528060008152602001600073ffffffffffffffffffffffffffffffffffffffff16815260200160608152602001600081525090565b828054612056906129da565b90600052602060002090601f01602090048101928261207857600085556120bf565b82601f1061209157805160ff19168380011785556120bf565b828001600101855582156120bf579182015b828111156120be5782518255916020019190600101906120a3565b5b5090506120cc91906120d0565b5090565b5b808211156120e95760008160009055506001016120d1565b5090565b6000604051905090565b600080fd5b600080fd5b60007fffffffff0000000000000000000000000000000000000000000000000000000082169050919050565b61213681612101565b811461214157600080fd5b50565b6000813590506121538161212d565b92915050565b60006020828403121561216f5761216e6120f7565b5b600061217d84828501612144565b91505092915050565b60008115159050919050565b61219b81612186565b82525050565b60006020820190506121b66000830184612192565b92915050565b600081519050919050565b600082825260208201905092915050565b60005b838110156121f65780820151818401526020810190506121db565b83811115612205576000848401525b50505050565b6000601f19601f8301169050919050565b6000612227826121bc565b61223181856121c7565b93506122418185602086016121d8565b61224a8161220b565b840191505092915050565b6000602082019050818103600083015261226f818461221c565b905092915050565b6000819050919050565b61228a81612277565b811461229557600080fd5b50565b6000813590506122a781612281565b92915050565b6000602082840312156122c3576122c26120f7565b5b60006122d184828501612298565b91505092915050565b600073ffffffffffffffffffffffffffffffffffffffff82169050919050565b6000612305826122da565b9050919050565b612315816122fa565b82525050565b6000602082019050612330600083018461230c565b92915050565b61233f816122fa565b811461234a57600080fd5b50565b60008135905061235c81612336565b92915050565b60008060408385031215612379576123786120f7565b5b60006123878582860161234d565b925050602061239885828601612298565b9150509250929050565b6000806000606084860312156123bb576123ba6120f7565b5b60006123c98682870161234d565b93505060206123da8682870161234d565b92505060406123eb86828701612298565b9150509250925092565b600081519050919050565b600082825260208201905092915050565b6000819050602082019050919050565b61242a81612277565b82525050565b612439816122fa565b82525050565b600082825260208201905092915050565b600061245b826121bc565b612465818561243f565b93506124758185602086016121d8565b61247e8161220b565b840191505092915050565b60006080830160008301516124a16000860182612421565b5060208301516124b46020860182612430565b50604083015184820360408601526124cc8282612450565b91505060608301516124e16060860182612421565b508091505092915050565b60006124f88383612489565b905092915050565b6000602082019050919050565b6000612518826123f5565b6125228185612400565b93508360208202850161253485612411565b8060005b85811015612570578484038952815161255185826124ec565b945061255c83612500565b925060208a01995050600181019050612538565b50829750879550505050505092915050565b6000602082019050818103600083015261259c818461250d565b905092915050565b6000602082840312156125ba576125b96120f7565b5b60006125c88482850161234d565b91505092915050565b6125da81612277565b82525050565b60006020820190506125f560008301846125d1565b92915050565b600080fd5b600080fd5b7f4e487b7100000000000000000000000000000000000000000000000000000000600052604160045260246000fd5b61263d8261220b565b810181811067ffffffffffffffff8211171561265c5761265b612605565b5b80604052505050565b600061266f6120ed565b905061267b8282612634565b919050565b600067ffffffffffffffff82111561269b5761269a612605565b5b6126a48261220b565b9050602081019050919050565b82818337600083830152505050565b60006126d36126ce84612680565b612665565b9050828152602081018484840111156126ef576126ee612600565b5b6126fa8482856126b1565b509392505050565b600082601f830112612717576127166125fb565b5b81356127278482602086016126c0565b91505092915050565b600080600060608486031215612749576127486120f7565b5b600084013567ffffffffffffffff811115612767576127666120fc565b5b61277386828701612702565b935050602061278486828701612298565b925050604061279586828701612298565b9150509250925092565b6127a881612186565b81146127b357600080fd5b50565b6000813590506127c58161279f565b92915050565b600080604083850312156127e2576127e16120f7565b5b60006127f08582860161234d565b9250506020612801858286016127b6565b9150509250929050565b6000612816826122da565b9050919050565b6128268161280b565b82525050565b6000602082019050612841600083018461281d565b92915050565b600067ffffffffffffffff82111561286257612861612605565b5b61286b8261220b565b9050602081019050919050565b600061288b61288684612847565b612665565b9050828152602081018484840111156128a7576128a6612600565b5b6128b28482856126b1565b509392505050565b600082601f8301126128cf576128ce6125fb565b5b81356128df848260208601612878565b91505092915050565b60008060008060808587031215612902576129016120f7565b5b60006129108782880161234d565b94505060206129218782880161234d565b935050604061293287828801612298565b925050606085013567ffffffffffffffff811115612953576129526120fc565b5b61295f878288016128ba565b91505092959194509250565b60008060408385031215612982576129816120f7565b5b60006129908582860161234d565b92505060206129a18582860161234d565b9150509250929050565b7f4e487b7100000000000000000000000000000000000000000000000000000000600052602260045260246000fd5b600060028204905060018216806129f257607f821691505b60208210811415612a0657612a056129ab565b5b50919050565b7f4552433732313a20617070726f76656420717565727920666f72206e6f6e657860008201527f697374656e7420746f6b656e0000000000000000000000000000000000000000602082015250565b6000612a68602c836121c7565b9150612a7382612a0c565b604082019050919050565b60006020820190508181036000830152612a9781612a5b565b9050919050565b7f4552433732313a20617070726f76616c20746f2063757272656e74206f776e6560008201527f7200000000000000000000000000000000000000000000000000000000000000602082015250565b6000612afa6021836121c7565b9150612b0582612a9e565b604082019050919050565b60006020820190508181036000830152612b2981612aed565b9050919050565b7f4552433732313a20617070726f76652063616c6c6572206973206e6f74206f7760008201527f6e6572206e6f7220617070726f76656420666f7220616c6c0000000000000000602082015250565b6000612b8c6038836121c7565b9150612b9782612b30565b604082019050919050565b60006020820190508181036000830152612bbb81612b7f565b9050919050565b7f4552433732313a207472616e736665722063616c6c6572206973206e6f74206f60008201527f776e6572206e6f7220617070726f766564000000000000000000000000000000602082015250565b6000612c1e6031836121c7565b9150612c2982612bc2565b604082019050919050565b60006020820190508181036000830152612c4d81612c11565b9050919050565b7f4e487b7100000000000000000000000000000000000000000000000000000000600052601160045260246000fd5b6000612c8e82612277565b9150612c9983612277565b9250827fffffffffffffffffffffffffffffffffffffffffffffffffffffffffffffffff03821115612cce57612ccd612c54565b5b828201905092915050565b6000612ce482612277565b91507fffffffffffffffffffffffffffffffffffffffffffffffffffffffffffffffff821415612d1757612d16612c54565b5b600182019050919050565b7f4e487b7100000000000000000000000000000000000000000000000000000000600052603260045260246000fd5b7f4552433732313a206f776e657220717565727920666f72206e6f6e657869737460008201527f656e7420746f6b656e0000000000000000000000000000000000000000000000602082015250565b6000612dad6029836121c7565b9150612db882612d51565b604082019050919050565b60006020820190508181036000830152612ddc81612da0565b9050919050565b7f4552433732313a2062616c616e636520717565727920666f7220746865207a6560008201527f726f206164647265737300000000000000000000000000000000000000000000602082015250565b6000612e3f602a836121c7565b9150612e4a82612de3565b604082019050919050565b60006020820190508181036000830152612e6e81612e32565b9050919050565b7f4f776e61626c653a2063616c6c6572206973206e6f7420746865206f776e6572600082015250565b6000612eab6020836121c7565b9150612eb682612e75565b602082019050919050565b60006020820190508181036000830152612eda81612e9e565b9050919050565b7f4552433732313a20617070726f766520746f2063616c6c657200000000000000600082015250565b6000612f176019836121c7565b9150612f2282612ee1565b602082019050919050565b60006020820190508181036000830152612f4681612f0a565b9050919050565b7f45524337323155524953746f726167653a2055524920717565727920666f722060008201527f6e6f6e6578697374656e7420746f6b656e000000000000000000000000000000602082015250565b6000612fa96031836121c7565b9150612fb482612f4d565b604082019050919050565b60006020820190508181036000830152612fd881612f9c565b9050919050565b600081905092915050565b6000612ff5826121bc565b612fff8185612fdf565b935061300f8185602086016121d8565b80840191505092915050565b60006130278285612fea565b91506130338284612fea565b91508190509392505050565b7f4f776e61626c653a206e6577206f776e657220697320746865207a65726f206160008201527f6464726573730000000000000000000000000000000000000000000000000000602082015250565b600061309b6026836121c7565b91506130a68261303f565b604082019050919050565b600060208201905081810360008301526130ca8161308e565b9050919050565b7f4552433732313a206f70657261746f7220717565727920666f72206e6f6e657860008201527f697374656e7420746f6b656e0000000000000000000000000000000000000000602082015250565b600061312d602c836121c7565b9150613138826130d1565b604082019050919050565b6000602082019050818103600083015261315c81613120565b9050919050565b7f4552433732313a207472616e73666572206f6620746f6b656e2074686174206960008201527f73206e6f74206f776e0000000000000000000000000000000000000000000000602082015250565b60006131bf6029836121c7565b91506131ca82613163565b604082019050919050565b600060208201905081810360008301526131ee816131b2565b9050919050565b7f4552433732313a207472616e7366657220746f20746865207a65726f2061646460008201527f7265737300000000000000000000000000000000000000000000000000000000602082015250565b60006132516024836121c7565b915061325c826131f5565b604082019050919050565b6000602082019050818103600083015261328081613244565b9050919050565b600061329282612277565b915061329d83612277565b9250828210156132b0576132af612c54565b5b828203905092915050565b7f45524337323155524953746f726167653a2055524920736574206f66206e6f6e60008201527f6578697374656e7420746f6b656e000000000000000000000000000000000000602082015250565b6000613317602e836121c7565b9150613322826132bb565b604082019050919050565b600060208201905081810360008301526133468161330a565b9050919050565b7f4552433732313a207472616e7366657220746f206e6f6e20455243373231526560008201527f63656976657220696d706c656d656e7465720000000000000000000000000000602082015250565b60006133a96032836121c7565b91506133b48261334d565b604082019050919050565b600060208201905081810360008301526133d88161339c565b9050919050565b7f4552433732314d657461646174613a2055524920717565727920666f72206e6f60008201527f6e6578697374656e7420746f6b656e0000000000000000000000000000000000602082015250565b600061343b602f836121c7565b9150613446826133df565b604082019050919050565b6000602082019050818103600083015261346a8161342e565b9050919050565b600081519050919050565b600082825260208201905092915050565b600061349882613471565b6134a2818561347c565b93506134b28185602086016121d8565b6134bb8161220b565b840191505092915050565b60006080820190506134db600083018761230c565b6134e8602083018661230c565b6134f560408301856125d1565b8181036060830152613507818461348d565b905095945050505050565b6000815190506135218161212d565b92915050565b60006020828403121561353d5761353c6120f7565b5b600061354b84828501613512565b91505092915050565b7f4e487b7100000000000000000000000000000000000000000000000000000000600052601260045260246000fd5b600061358e82612277565b915061359983612277565b9250826135a9576135a8613554565b5b828204905092915050565b60006135bf82612277565b91506135ca83612277565b9250826135da576135d9613554565b5b828206905092915050565b7f4552433732313a206d696e7420746f20746865207a65726f2061646472657373600082015250565b600061361b6020836121c7565b9150613626826135e5565b602082019050919050565b6000602082019050818103600083015261364a8161360e565b9050919050565b7f4552433732313a20746f6b656e20616c7265616479206d696e74656400000000600082015250565b6000613687601c836121c7565b915061369282613651565b602082019050919050565b600060208201905081810360008301526136b68161367a565b905091905056fea264697066735822122066d287469791a82c30cd423c3161fcba9987f15e11b42c7b02a6c826a39748de64736f6c634300080a0033",
  "immutableReferences": {},
  "source": "// SPDX-License-Identifier: MIT\npragma solidity 0.8.10;\n\nimport \"@openzeppelin/contracts/utils/Counters.sol\";\nimport \"@openzeppelin/contracts/access/Ownable.sol\";\nimport \"@openzeppelin/contracts/token/ERC721/extensions/ERC721URIStorage.sol\";\nimport \"@openzeppelin/contracts/security/ReentrancyGuard.sol\";\n\ncontract ContractEstate is ERC721URIStorage, Ownable {\n    // using Counters for Counters.Counter;\n    uint256 private _tokenCounter;\n\n    mapping(uint256=>uint256) private counterToDeed;\n\n    address contractAddress;\n\n    address payable public _owner;\n    mapping(uint256 => propertyNft) private propertyNftData;\n\n    struct propertyNft {\n        uint256 deedNumber;\n        address  owner;\n        string tokenUri;\n        uint256 price;\n    }\n\n    constructor(address smartPropertyMarket)  ERC721(\"ESTATE CONTRACT CHAIN\", \"ECC\") {\n        _owner = payable(msg.sender);\n        contractAddress = smartPropertyMarket;\n    }\n\n    /// @notice Mints a new property NFT token\n    /// @param tokenURI is the ipfs URI for the NFT\n    /// @param _price is the property Value. Its passed by the caller from the ipfs metadata\n    /// @param _deed is the deed number to identify the Property (TokenID). Its passed by the caller. Its a from the ipfs metadata\n    /// @return uint256 The deed  of the minted NFT\n    function createPropertyNft( string memory tokenURI, uint256 _price, uint256 _deed)\n        public \n        returns (uint256)\n    {\n        require(_price>0);\n        require(_deed>0);\n\n        _safeMint(msg.sender, _deed);\n        _setTokenURI(_deed, tokenURI);\n        setApprovalForAll(contractAddress, true);\n\n        counterToDeed[_tokenCounter] = _deed;\n        \n        propertyNftData[_deed] = propertyNft(_deed, msg.sender, tokenURI, _price); //get price from ipfs\n        _tokenCounter++;\n\n        return _deed;\n    }\n\n    function checkIfPropertyExists(uint256 deed) public view returns(bool){\n        return _exists(deed);\n    }\n\n    /// @notice Gets the tokenURI of the NFT owned by the caller\n    /// @return nftProperty[] The array containing the tokenId, owner and tokenURI of the NFT owned by the caller    \n    function getUserProperties() public view returns(propertyNft[] memory) {\n        uint totalPropertyCount = _tokenCounter;\n        uint itemCount = 0;\n        uint currentIndex = 0;\n\n        for (uint i = 0; i < totalPropertyCount; i++) {\n            if (propertyNftData[counterToDeed[i]].owner == msg.sender) {\n                itemCount += 1;\n            }\n        }\n\n        propertyNft[] memory properties = new propertyNft[](itemCount);\n\n        for (uint i = 0; i < totalPropertyCount; i++) {\n            if (propertyNftData[counterToDeed[i]].owner == msg.sender) {\n                properties[currentIndex] = propertyNftData[counterToDeed[i]];\n                currentIndex += 1;\n            }\n        }\n\n        return properties;\n    }\n\n}",
  "sourcePath": "/Users/kelvinchelenje/Desktop/Incubation/Blockchain/projects/blockchain-developer-bootcamp-final-project/contracts/ContractEstate.sol",
  "compiler": {
    "name": "solc",
    "version": "0.8.10+commit.fc410830.Emscripten.clang"
  },
  "schemaVersion": "3.4.3",
  "updatedAt": "2021-12-08T12:45:40.616Z",
  "networkType": "ethereum",
  "devdoc": {
    "kind": "dev",
    "methods": {
      "approve(address,uint256)": {
        "details": "See {IERC721-approve}."
      },
      "balanceOf(address)": {
        "details": "See {IERC721-balanceOf}."
      },
      "createPropertyNft(string,uint256,uint256)": {
        "params": {
          "_deed": "is the deed number to identify the Property (TokenID). Its passed by the caller. Its a from the ipfs metadata",
          "_price": "is the property Value. Its passed by the caller from the ipfs metadata",
          "tokenURI": "is the ipfs URI for the NFT"
        },
        "returns": {
          "_0": "uint256 The deed  of the minted NFT"
        }
      },
      "getApproved(uint256)": {
        "details": "See {IERC721-getApproved}."
      },
      "getUserProperties()": {
        "returns": {
          "_0": "nftProperty[] The array containing the tokenId, owner and tokenURI of the NFT owned by the caller    "
        }
      },
      "isApprovedForAll(address,address)": {
        "details": "See {IERC721-isApprovedForAll}."
      },
      "name()": {
        "details": "See {IERC721Metadata-name}."
      },
      "owner()": {
        "details": "Returns the address of the current owner."
      },
      "ownerOf(uint256)": {
        "details": "See {IERC721-ownerOf}."
      },
      "renounceOwnership()": {
        "details": "Leaves the contract without owner. It will not be possible to call `onlyOwner` functions anymore. Can only be called by the current owner. NOTE: Renouncing ownership will leave the contract without an owner, thereby removing any functionality that is only available to the owner."
      },
      "safeTransferFrom(address,address,uint256)": {
        "details": "See {IERC721-safeTransferFrom}."
      },
      "safeTransferFrom(address,address,uint256,bytes)": {
        "details": "See {IERC721-safeTransferFrom}."
      },
      "setApprovalForAll(address,bool)": {
        "details": "See {IERC721-setApprovalForAll}."
      },
      "supportsInterface(bytes4)": {
        "details": "See {IERC165-supportsInterface}."
      },
      "symbol()": {
        "details": "See {IERC721Metadata-symbol}."
      },
      "tokenURI(uint256)": {
        "details": "See {IERC721Metadata-tokenURI}."
      },
      "transferFrom(address,address,uint256)": {
        "details": "See {IERC721-transferFrom}."
      },
      "transferOwnership(address)": {
        "details": "Transfers ownership of the contract to a new account (`newOwner`). Can only be called by the current owner."
      }
    },
    "version": 1
  },
  "userdoc": {
    "kind": "user",
    "methods": {
      "createPropertyNft(string,uint256,uint256)": {
        "notice": "Mints a new property NFT token"
      },
      "getUserProperties()": {
        "notice": "Gets the tokenURI of the NFT owned by the caller"
      }
    },
    "version": 1
  }
}