{
  "contractName": "SmartProperty",
  "abi": [
    {
      "inputs": [],
      "stateMutability": "nonpayable",
      "type": "constructor"
    },
    {
      "anonymous": false,
      "inputs": [
        {
          "indexed": true,
          "internalType": "address",
          "name": "previousOwner",
          "type": "address"
        },
        {
          "indexed": true,
          "internalType": "address",
          "name": "newOwner",
          "type": "address"
        }
      ],
      "name": "OwnershipTransferred",
      "type": "event"
    },
    {
      "anonymous": false,
      "inputs": [
        {
          "indexed": true,
          "internalType": "uint256",
          "name": "propertyListingId",
          "type": "uint256"
        },
        {
          "indexed": true,
          "internalType": "uint256",
          "name": "deedNumber",
          "type": "uint256"
        },
        {
          "indexed": false,
          "internalType": "address",
          "name": "seller",
          "type": "address"
        },
        {
          "indexed": false,
          "internalType": "address",
          "name": "buyer",
          "type": "address"
        },
        {
          "indexed": false,
          "internalType": "uint256",
          "name": "propertyValue",
          "type": "uint256"
        },
        {
          "indexed": false,
          "internalType": "bool",
          "name": "sold",
          "type": "bool"
        }
      ],
      "name": "PropertyListed",
      "type": "event"
    },
    {
      "anonymous": false,
      "inputs": [
        {
          "indexed": false,
          "internalType": "address",
          "name": "seller",
          "type": "address"
        },
        {
          "indexed": false,
          "internalType": "address",
          "name": "buyer",
          "type": "address"
        },
        {
          "indexed": false,
          "internalType": "uint256",
          "name": "price",
          "type": "uint256"
        },
        {
          "indexed": false,
          "internalType": "uint256",
          "name": "deed",
          "type": "uint256"
        },
        {
          "indexed": false,
          "internalType": "bool",
          "name": "sold",
          "type": "bool"
        }
      ],
      "name": "Purchase",
      "type": "event"
    },
    {
      "stateMutability": "payable",
      "type": "fallback",
      "payable": true
    },
    {
      "inputs": [],
      "name": "directestatePropertyNft",
      "outputs": [
        {
          "internalType": "contract ContractEstate",
          "name": "",
          "type": "address"
        }
      ],
      "stateMutability": "view",
      "type": "function",
      "constant": true
    },
    {
      "inputs": [],
      "name": "owner",
      "outputs": [
        {
          "internalType": "address",
          "name": "",
          "type": "address"
        }
      ],
      "stateMutability": "view",
      "type": "function",
      "constant": true
    },
    {
      "inputs": [],
      "name": "renounceOwnership",
      "outputs": [],
      "stateMutability": "nonpayable",
      "type": "function"
    },
    {
      "inputs": [
        {
          "internalType": "address",
          "name": "newOwner",
          "type": "address"
        }
      ],
      "name": "transferOwnership",
      "outputs": [],
      "stateMutability": "nonpayable",
      "type": "function"
    },
    {
      "stateMutability": "payable",
      "type": "receive",
      "payable": true
    },
    {
      "inputs": [
        {
          "internalType": "uint256",
          "name": "listingId",
          "type": "uint256"
        },
        {
          "internalType": "uint256",
          "name": "deedNumber",
          "type": "uint256"
        },
        {
          "internalType": "uint256",
          "name": "propertyValue",
          "type": "uint256"
        },
        {
          "internalType": "address",
          "name": "ownerAddress",
          "type": "address"
        }
      ],
      "name": "relistProperty",
      "outputs": [],
      "stateMutability": "payable",
      "type": "function",
      "payable": true
    },
    {
      "inputs": [
        {
          "internalType": "uint256",
          "name": "deedNumber",
          "type": "uint256"
        },
        {
          "internalType": "uint256",
          "name": "propertyValue",
          "type": "uint256"
        },
        {
          "internalType": "address",
          "name": "ownerAddress",
          "type": "address"
        }
      ],
      "name": "listPropertyOnEstateMarket",
      "outputs": [],
      "stateMutability": "payable",
      "type": "function",
      "payable": true
    },
    {
      "inputs": [
        {
          "internalType": "uint256",
          "name": "propertyListingId",
          "type": "uint256"
        },
        {
          "internalType": "address",
          "name": "ownerAddress",
          "type": "address"
        }
      ],
      "name": "sellPropertytoBuyer",
      "outputs": [],
      "stateMutability": "payable",
      "type": "function",
      "payable": true
    },
    {
      "inputs": [],
      "name": "getPropertiesOwnedByCustomer",
      "outputs": [
        {
          "components": [
            {
              "internalType": "uint256",
              "name": "propertyListingId",
              "type": "uint256"
            },
            {
              "internalType": "uint256",
              "name": "propertyValue",
              "type": "uint256"
            },
            {
              "internalType": "bool",
              "name": "sold",
              "type": "bool"
            },
            {
              "internalType": "uint256",
              "name": "deedNumber",
              "type": "uint256"
            },
            {
              "internalType": "address payable",
              "name": "seller",
              "type": "address"
            },
            {
              "internalType": "address payable",
              "name": "buyer",
              "type": "address"
            }
          ],
          "internalType": "struct SmartProperty.Property[]",
          "name": "",
          "type": "tuple[]"
        }
      ],
      "stateMutability": "view",
      "type": "function",
      "constant": true
    },
    {
      "inputs": [],
      "name": "getAllProperties",
      "outputs": [
        {
          "components": [
            {
              "internalType": "uint256",
              "name": "propertyListingId",
              "type": "uint256"
            },
            {
              "internalType": "uint256",
              "name": "propertyValue",
              "type": "uint256"
            },
            {
              "internalType": "bool",
              "name": "sold",
              "type": "bool"
            },
            {
              "internalType": "uint256",
              "name": "deedNumber",
              "type": "uint256"
            },
            {
              "internalType": "address payable",
              "name": "seller",
              "type": "address"
            },
            {
              "internalType": "address payable",
              "name": "buyer",
              "type": "address"
            }
          ],
          "internalType": "struct SmartProperty.Property[]",
          "name": "",
          "type": "tuple[]"
        }
      ],
      "stateMutability": "view",
      "type": "function",
      "constant": true
    },
    {
      "inputs": [],
      "name": "getAvailableProperties",
      "outputs": [
        {
          "components": [
            {
              "internalType": "uint256",
              "name": "propertyListingId",
              "type": "uint256"
            },
            {
              "internalType": "uint256",
              "name": "propertyValue",
              "type": "uint256"
            },
            {
              "internalType": "bool",
              "name": "sold",
              "type": "bool"
            },
            {
              "internalType": "uint256",
              "name": "deedNumber",
              "type": "uint256"
            },
            {
              "internalType": "address payable",
              "name": "seller",
              "type": "address"
            },
            {
              "internalType": "address payable",
              "name": "buyer",
              "type": "address"
            }
          ],
          "internalType": "struct SmartProperty.Property[]",
          "name": "",
          "type": "tuple[]"
        }
      ],
      "stateMutability": "view",
      "type": "function",
      "constant": true
    },
    {
      "inputs": [
        {
          "internalType": "uint256",
          "name": "propertyListingId",
          "type": "uint256"
        },
        {
          "internalType": "address",
          "name": "userAddress",
          "type": "address"
        }
      ],
      "name": "verifyPropertyOwnership",
      "outputs": [
        {
          "internalType": "bool",
          "name": "",
          "type": "bool"
        }
      ],
      "stateMutability": "view",
      "type": "function",
      "constant": true
    },
    {
      "inputs": [
        {
          "internalType": "uint256",
          "name": "propertyListingId",
          "type": "uint256"
        }
      ],
      "name": "findPropertyById",
      "outputs": [
        {
          "components": [
            {
              "internalType": "uint256",
              "name": "propertyListingId",
              "type": "uint256"
            },
            {
              "internalType": "uint256",
              "name": "propertyValue",
              "type": "uint256"
            },
            {
              "internalType": "bool",
              "name": "sold",
              "type": "bool"
            },
            {
              "internalType": "uint256",
              "name": "deedNumber",
              "type": "uint256"
            },
            {
              "internalType": "address payable",
              "name": "seller",
              "type": "address"
            },
            {
              "internalType": "address payable",
              "name": "buyer",
              "type": "address"
            }
          ],
          "internalType": "struct SmartProperty.Property",
          "name": "",
          "type": "tuple"
        }
      ],
      "stateMutability": "view",
      "type": "function",
      "constant": true
    },
    {
      "inputs": [
        {
          "internalType": "uint256",
          "name": "deedNumber",
          "type": "uint256"
        }
      ],
      "name": "findPropertyByDeed",
      "outputs": [
        {
          "components": [
            {
              "internalType": "uint256",
              "name": "propertyListingId",
              "type": "uint256"
            },
            {
              "internalType": "uint256",
              "name": "propertyValue",
              "type": "uint256"
            },
            {
              "internalType": "bool",
              "name": "sold",
              "type": "bool"
            },
            {
              "internalType": "uint256",
              "name": "deedNumber",
              "type": "uint256"
            },
            {
              "internalType": "address payable",
              "name": "seller",
              "type": "address"
            },
            {
              "internalType": "address payable",
              "name": "buyer",
              "type": "address"
            }
          ],
          "internalType": "struct SmartProperty.Property",
          "name": "",
          "type": "tuple"
        }
      ],
      "stateMutability": "view",
      "type": "function",
      "constant": true
    }
  ],
  "bytecode": "0x60806040523480156200001157600080fd5b5062000032620000266200008060201b60201c565b6200008860201b60201c565b6001808190555033600560006101000a81548173ffffffffffffffffffffffffffffffffffffffff021916908373ffffffffffffffffffffffffffffffffffffffff1602179055506200014c565b600033905090565b60008060009054906101000a900473ffffffffffffffffffffffffffffffffffffffff169050816000806101000a81548173ffffffffffffffffffffffffffffffffffffffff021916908373ffffffffffffffffffffffffffffffffffffffff1602179055508173ffffffffffffffffffffffffffffffffffffffff168173ffffffffffffffffffffffffffffffffffffffff167f8be0079c531659141344cd1fd0a4f28419497f9722a3daafe3b4186f6b6457e060405160405180910390a35050565b612c53806200015c6000396000f3fe6080604052600436106100c65760003560e01c80638da5cb5b1161007f578063dc2fcb5611610059578063dc2fcb5614610244578063e6907e2a1461026f578063f2fde38b1461028b578063f98f9fc0146102b4576100cd565b80638da5cb5b146101c057806397c41ec8146101eb578063a9d547df14610228576100cd565b806306d88bbf146100cf5780632548ebc6146100fa5780633d51402c146101375780635547042f14610162578063667dac2b1461017e578063715018a6146101a9576100cd565b366100cd57005b005b3480156100db57600080fd5b506100e46102f1565b6040516100f191906120b0565b60405180910390f35b34801561010657600080fd5b50610121600480360381019061011c9190612141565b61054c565b60405161012e9190612190565b60405180910390f35b34801561014357600080fd5b5061014c610698565b60405161015991906120b0565b60405180910390f35b61017c60048036038101906101779190612141565b610865565b005b34801561018a57600080fd5b50610193610cfc565b6040516101a091906120b0565b60405180910390f35b3480156101b557600080fd5b506101be6112a3565b005b3480156101cc57600080fd5b506101d561132b565b6040516101e291906121ba565b60405180910390f35b3480156101f757600080fd5b50610212600480360381019061020d91906121d5565b611354565b60405161021f919061227d565b60405180910390f35b610242600480360381019061023d9190612298565b611466565b005b34801561025057600080fd5b5061025961188a565b604051610266919061235e565b60405180910390f35b61028960048036038101906102849190612379565b6118b0565b005b34801561029757600080fd5b506102b260048036038101906102ad91906123cc565b611b53565b005b3480156102c057600080fd5b506102db60048036038101906102d691906121d5565b611c4b565b6040516102e8919061227d565b60405180910390f35b606060006102ff6002611dbd565b9050600061030d6003611dbd565b6103176002611dbd565b6103219190612428565b90506000808267ffffffffffffffff8111156103405761033f61245c565b5b60405190808252806020026020018201604052801561037957816020015b610366611ead565b81526020019060019003908161035e5790505b50905060005b84811015610541573073ffffffffffffffffffffffffffffffffffffffff166006600083815260200190815260200160002060050160009054906101000a900473ffffffffffffffffffffffffffffffffffffffff1673ffffffffffffffffffffffffffffffffffffffff16141561052e5760008190506000600660008381526020019081526020016000209050806040518060c001604052908160008201548152602001600182015481526020016002820160009054906101000a900460ff16151515158152602001600382015481526020016004820160009054906101000a900473ffffffffffffffffffffffffffffffffffffffff1673ffffffffffffffffffffffffffffffffffffffff1673ffffffffffffffffffffffffffffffffffffffff1681526020016005820160009054906101000a900473ffffffffffffffffffffffffffffffffffffffff1673ffffffffffffffffffffffffffffffffffffffff1673ffffffffffffffffffffffffffffffffffffffff16815250508486815181106105115761051061248b565b5b602002602001018190525060018561052991906124ba565b945050505b808061053990612510565b91505061037f565b508094505050505090565b60006006600084815260200190815260200160002060020160009054906101000a900460ff1680156105df57508173ffffffffffffffffffffffffffffffffffffffff166006600085815260200190815260200160002060050160009054906101000a900473ffffffffffffffffffffffffffffffffffffffff1673ffffffffffffffffffffffffffffffffffffffff16145b156105ed5760019050610692565b6006600084815260200190815260200160002060020160009054906101000a900460ff1615801561067f57508173ffffffffffffffffffffffffffffffffffffffff166006600085815260200190815260200160002060040160009054906101000a900473ffffffffffffffffffffffffffffffffffffffff1673ffffffffffffffffffffffffffffffffffffffff16145b1561068d5760019050610692565b600090505b92915050565b606060006106a66002611dbd565b90506000808267ffffffffffffffff8111156106c5576106c461245c565b5b6040519080825280602002602001820160405280156106fe57816020015b6106eb611ead565b8152602001906001900390816106e35790505b50905060005b8381101561085b5760008190506000600660008381526020019081526020016000209050806040518060c001604052908160008201548152602001600182015481526020016002820160009054906101000a900460ff16151515158152602001600382015481526020016004820160009054906101000a900473ffffffffffffffffffffffffffffffffffffffff1673ffffffffffffffffffffffffffffffffffffffff1673ffffffffffffffffffffffffffffffffffffffff1681526020016005820160009054906101000a900473ffffffffffffffffffffffffffffffffffffffff1673ffffffffffffffffffffffffffffffffffffffff1673ffffffffffffffffffffffffffffffffffffffff168152505084868151811061082c5761082b61248b565b5b602002602001018190525060018561084491906124ba565b94505050808061085390612510565b915050610704565b5080935050505090565b600260015414156108ab576040517f08c379a00000000000000000000000000000000000000000000000000000000081526004016108a2906125b6565b60405180910390fd5b60026001819055506000600660008481526020019081526020016000206003015490506000600660008581526020019081526020016000206001015490506006600085815260200190815260200160002060020160009054906101000a900460ff161561094d576040517f08c379a000000000000000000000000000000000000000000000000000000000815260040161094490612648565b60405180910390fd5b6006600085815260200190815260200160002060040160009054906101000a900473ffffffffffffffffffffffffffffffffffffffff1673ffffffffffffffffffffffffffffffffffffffff163373ffffffffffffffffffffffffffffffffffffffff1614156109f2576040517f08c379a00000000000000000000000000000000000000000000000000000000081526004016109e9906126b4565b60405180910390fd5b60008211610a35576040517f08c379a0000000000000000000000000000000000000000000000000000000008152600401610a2c90612720565b60405180910390fd5b803414610a77576040517f08c379a0000000000000000000000000000000000000000000000000000000008152600401610a6e906127fe565b60405180910390fd5b60006006600086815260200190815260200160002060040160009054906101000a900473ffffffffffffffffffffffffffffffffffffffff1673ffffffffffffffffffffffffffffffffffffffff1634604051610ad39061284f565b60006040518083038185875af1925050503d8060008114610b10576040519150601f19603f3d011682016040523d82523d6000602084013e610b15565b606091505b5050905080610b59576040517f08c379a0000000000000000000000000000000000000000000000000000000008152600401610b50906128b0565b60405180910390fd5b8373ffffffffffffffffffffffffffffffffffffffff166323b872dd3033866040518463ffffffff1660e01b8152600401610b96939291906128df565b600060405180830381600087803b158015610bb057600080fd5b505af1158015610bc4573d6000803e3d6000fd5b50505050336006600087815260200190815260200160002060050160006101000a81548173ffffffffffffffffffffffffffffffffffffffff021916908373ffffffffffffffffffffffffffffffffffffffff16021790555060016006600087815260200190815260200160002060020160006101000a81548160ff021916908315150217905550610c566003611dcb565b7fc9c545a18864a8ff347073b6b8e8aa9f460b82c853206d0980322cbd3fa0e0446006600087815260200190815260200160002060040160009054906101000a900473ffffffffffffffffffffffffffffffffffffffff16333486600660008b815260200190815260200160002060020160009054906101000a900460ff16604051610ce6959493929190612937565b60405180910390a1505050600180819055505050565b60606000610d0a6002611dbd565b905060008060005b83811015610e7a576006600082815260200190815260200160002060020160009054906101000a900460ff16158015610dac57503373ffffffffffffffffffffffffffffffffffffffff166006600083815260200190815260200160002060040160009054906101000a900473ffffffffffffffffffffffffffffffffffffffff1673ffffffffffffffffffffffffffffffffffffffff16145b15610dc157600183610dbe91906124ba565b92505b6006600082815260200190815260200160002060020160009054906101000a900460ff168015610e5257503373ffffffffffffffffffffffffffffffffffffffff166006600083815260200190815260200160002060050160009054906101000a900473ffffffffffffffffffffffffffffffffffffffff1673ffffffffffffffffffffffffffffffffffffffff16145b15610e6757600183610e6491906124ba565b92505b8080610e7290612510565b915050610d12565b5060008267ffffffffffffffff811115610e9757610e9661245c565b5b604051908082528060200260200182016040528015610ed057816020015b610ebd611ead565b815260200190600190039081610eb55790505b50905060005b84811015611298576006600082815260200190815260200160002060020160009054906101000a900460ff16158015610f7057503373ffffffffffffffffffffffffffffffffffffffff166006600083815260200190815260200160002060040160009054906101000a900473ffffffffffffffffffffffffffffffffffffffff1673ffffffffffffffffffffffffffffffffffffffff16145b156110b25760008190506000600660008381526020019081526020016000209050806040518060c001604052908160008201548152602001600182015481526020016002820160009054906101000a900460ff16151515158152602001600382015481526020016004820160009054906101000a900473ffffffffffffffffffffffffffffffffffffffff1673ffffffffffffffffffffffffffffffffffffffff1673ffffffffffffffffffffffffffffffffffffffff1681526020016005820160009054906101000a900473ffffffffffffffffffffffffffffffffffffffff1673ffffffffffffffffffffffffffffffffffffffff1673ffffffffffffffffffffffffffffffffffffffff16815250508486815181106110955761109461248b565b5b60200260200101819052506001856110ad91906124ba565b945050505b6006600082815260200190815260200160002060020160009054906101000a900460ff16801561114357503373ffffffffffffffffffffffffffffffffffffffff166006600083815260200190815260200160002060050160009054906101000a900473ffffffffffffffffffffffffffffffffffffffff1673ffffffffffffffffffffffffffffffffffffffff16145b156112855760008190506000600660008381526020019081526020016000209050806040518060c001604052908160008201548152602001600182015481526020016002820160009054906101000a900460ff16151515158152602001600382015481526020016004820160009054906101000a900473ffffffffffffffffffffffffffffffffffffffff1673ffffffffffffffffffffffffffffffffffffffff1673ffffffffffffffffffffffffffffffffffffffff1681526020016005820160009054906101000a900473ffffffffffffffffffffffffffffffffffffffff1673ffffffffffffffffffffffffffffffffffffffff1673ffffffffffffffffffffffffffffffffffffffff16815250508486815181106112685761126761248b565b5b602002602001018190525060018561128091906124ba565b945050505b808061129090612510565b915050610ed6565b508094505050505090565b6112ab611de1565b73ffffffffffffffffffffffffffffffffffffffff166112c961132b565b73ffffffffffffffffffffffffffffffffffffffff161461131f576040517f08c379a0000000000000000000000000000000000000000000000000000000008152600401611316906129d6565b60405180910390fd5b6113296000611de9565b565b60008060009054906101000a900473ffffffffffffffffffffffffffffffffffffffff16905090565b61135c611ead565b600660008381526020019081526020016000206040518060c001604052908160008201548152602001600182015481526020016002820160009054906101000a900460ff16151515158152602001600382015481526020016004820160009054906101000a900473ffffffffffffffffffffffffffffffffffffffff1673ffffffffffffffffffffffffffffffffffffffff1673ffffffffffffffffffffffffffffffffffffffff1681526020016005820160009054906101000a900473ffffffffffffffffffffffffffffffffffffffff1673ffffffffffffffffffffffffffffffffffffffff1673ffffffffffffffffffffffffffffffffffffffff16815250509050919050565b600260015414156114ac576040517f08c379a00000000000000000000000000000000000000000000000000000000081526004016114a3906125b6565b60405180910390fd5b6002600181905550600082116114f7576040517f08c379a00000000000000000000000000000000000000000000000000000000081526004016114ee90612a42565b60405180910390fd5b3073ffffffffffffffffffffffffffffffffffffffff166006600086815260200190815260200160002060050160009054906101000a900473ffffffffffffffffffffffffffffffffffffffff1673ffffffffffffffffffffffffffffffffffffffff16141561159c576040517f08c379a000000000000000000000000000000000000000000000000000000000815260040161159390612ad4565b60405180910390fd5b60006115a86002611dbd565b90506040518060c001604052808281526020018481526020016000151581526020018581526020013373ffffffffffffffffffffffffffffffffffffffff1681526020013073ffffffffffffffffffffffffffffffffffffffff1681525060066000838152602001908152602001600020600082015181600001556020820151816001015560408201518160020160006101000a81548160ff0219169083151502179055506060820151816003015560808201518160040160006101000a81548173ffffffffffffffffffffffffffffffffffffffff021916908373ffffffffffffffffffffffffffffffffffffffff16021790555060a08201518160050160006101000a81548173ffffffffffffffffffffffffffffffffffffffff021916908373ffffffffffffffffffffffffffffffffffffffff1602179055509050508173ffffffffffffffffffffffffffffffffffffffff1663a22cb4653060016040518363ffffffff1660e01b8152600401611724929190612af4565b600060405180830381600087803b15801561173e57600080fd5b505af1158015611752573d6000803e3d6000fd5b505050508173ffffffffffffffffffffffffffffffffffffffff166323b872dd3330876040518463ffffffff1660e01b8152600401611793939291906128df565b600060405180830381600087803b1580156117ad57600080fd5b505af11580156117c1573d6000803e3d6000fd5b505050508173ffffffffffffffffffffffffffffffffffffffff1663095ea7b333866040518363ffffffff1660e01b8152600401611800929190612b1d565b600060405180830381600087803b15801561181a57600080fd5b505af115801561182e573d6000803e3d6000fd5b5050505061183c6002611dcb565b83817f1c3658b5b0d110725f093fe28f0c8ac55df55cddd0bbf0d9627c5e10f31636e233308760006040516118749493929190612b46565b60405180910390a3506001808190555050505050565b600460009054906101000a900473ffffffffffffffffffffffffffffffffffffffff1681565b600260015414156118f6576040517f08c379a00000000000000000000000000000000000000000000000000000000081526004016118ed906125b6565b60405180910390fd5b600260018190555060008211611941576040517f08c379a000000000000000000000000000000000000000000000000000000000815260040161193890612a42565b60405180910390fd5b600061194d6002611dbd565b90506040518060c001604052808281526020018481526020016000151581526020018581526020013373ffffffffffffffffffffffffffffffffffffffff1681526020013073ffffffffffffffffffffffffffffffffffffffff1681525060066000838152602001908152602001600020600082015181600001556020820151816001015560408201518160020160006101000a81548160ff0219169083151502179055506060820151816003015560808201518160040160006101000a81548173ffffffffffffffffffffffffffffffffffffffff021916908373ffffffffffffffffffffffffffffffffffffffff16021790555060a08201518160050160006101000a81548173ffffffffffffffffffffffffffffffffffffffff021916908373ffffffffffffffffffffffffffffffffffffffff1602179055509050508173ffffffffffffffffffffffffffffffffffffffff166323b872dd3330876040518463ffffffff1660e01b8152600401611aca939291906128df565b600060405180830381600087803b158015611ae457600080fd5b505af1158015611af8573d6000803e3d6000fd5b50505050611b066002611dcb565b83817f1c3658b5b0d110725f093fe28f0c8ac55df55cddd0bbf0d9627c5e10f31636e23330876000604051611b3e9493929190612b46565b60405180910390a35060018081905550505050565b611b5b611de1565b73ffffffffffffffffffffffffffffffffffffffff16611b7961132b565b73ffffffffffffffffffffffffffffffffffffffff1614611bcf576040517f08c379a0000000000000000000000000000000000000000000000000000000008152600401611bc6906129d6565b60405180910390fd5b600073ffffffffffffffffffffffffffffffffffffffff168173ffffffffffffffffffffffffffffffffffffffff161415611c3f576040517f08c379a0000000000000000000000000000000000000000000000000000000008152600401611c3690612bfd565b60405180910390fd5b611c4881611de9565b50565b611c53611ead565b600080611c606002611dbd565b905060005b81811015611ca2578460066000838152602001908152602001600020600301541415611c8f578092505b8080611c9a90612510565b915050611c65565b506000821015611cb157600080fd5b600660008381526020019081526020016000206040518060c001604052908160008201548152602001600182015481526020016002820160009054906101000a900460ff16151515158152602001600382015481526020016004820160009054906101000a900473ffffffffffffffffffffffffffffffffffffffff1673ffffffffffffffffffffffffffffffffffffffff1673ffffffffffffffffffffffffffffffffffffffff1681526020016005820160009054906101000a900473ffffffffffffffffffffffffffffffffffffffff1673ffffffffffffffffffffffffffffffffffffffff1673ffffffffffffffffffffffffffffffffffffffff168152505092505050919050565b600081600001549050919050565b6001816000016000828254019250508190555050565b600033905090565b60008060009054906101000a900473ffffffffffffffffffffffffffffffffffffffff169050816000806101000a81548173ffffffffffffffffffffffffffffffffffffffff021916908373ffffffffffffffffffffffffffffffffffffffff1602179055508173ffffffffffffffffffffffffffffffffffffffff168173ffffffffffffffffffffffffffffffffffffffff167f8be0079c531659141344cd1fd0a4f28419497f9722a3daafe3b4186f6b6457e060405160405180910390a35050565b6040518060c00160405280600081526020016000815260200160001515815260200160008152602001600073ffffffffffffffffffffffffffffffffffffffff168152602001600073ffffffffffffffffffffffffffffffffffffffff1681525090565b600081519050919050565b600082825260208201905092915050565b6000819050602082019050919050565b6000819050919050565b611f5081611f3d565b82525050565b60008115159050919050565b611f6b81611f56565b82525050565b600073ffffffffffffffffffffffffffffffffffffffff82169050919050565b6000611f9c82611f71565b9050919050565b611fac81611f91565b82525050565b60c082016000820151611fc86000850182611f47565b506020820151611fdb6020850182611f47565b506040820151611fee6040850182611f62565b5060608201516120016060850182611f47565b5060808201516120146080850182611fa3565b5060a082015161202760a0850182611fa3565b50505050565b60006120398383611fb2565b60c08301905092915050565b6000602082019050919050565b600061205d82611f11565b6120678185611f1c565b935061207283611f2d565b8060005b838110156120a357815161208a888261202d565b975061209583612045565b925050600181019050612076565b5085935050505092915050565b600060208201905081810360008301526120ca8184612052565b905092915050565b600080fd5b6120e081611f3d565b81146120eb57600080fd5b50565b6000813590506120fd816120d7565b92915050565b600061210e82611f71565b9050919050565b61211e81612103565b811461212957600080fd5b50565b60008135905061213b81612115565b92915050565b60008060408385031215612158576121576120d2565b5b6000612166858286016120ee565b92505060206121778582860161212c565b9150509250929050565b61218a81611f56565b82525050565b60006020820190506121a56000830184612181565b92915050565b6121b481612103565b82525050565b60006020820190506121cf60008301846121ab565b92915050565b6000602082840312156121eb576121ea6120d2565b5b60006121f9848285016120ee565b91505092915050565b60c0820160008201516122186000850182611f47565b50602082015161222b6020850182611f47565b50604082015161223e6040850182611f62565b5060608201516122516060850182611f47565b5060808201516122646080850182611fa3565b5060a082015161227760a0850182611fa3565b50505050565b600060c0820190506122926000830184612202565b92915050565b600080600080608085870312156122b2576122b16120d2565b5b60006122c0878288016120ee565b94505060206122d1878288016120ee565b93505060406122e2878288016120ee565b92505060606122f38782880161212c565b91505092959194509250565b6000819050919050565b600061232461231f61231a84611f71565b6122ff565b611f71565b9050919050565b600061233682612309565b9050919050565b60006123488261232b565b9050919050565b6123588161233d565b82525050565b6000602082019050612373600083018461234f565b92915050565b600080600060608486031215612392576123916120d2565b5b60006123a0868287016120ee565b93505060206123b1868287016120ee565b92505060406123c28682870161212c565b9150509250925092565b6000602082840312156123e2576123e16120d2565b5b60006123f08482850161212c565b91505092915050565b7f4e487b7100000000000000000000000000000000000000000000000000000000600052601160045260246000fd5b600061243382611f3d565b915061243e83611f3d565b925082821015612451576124506123f9565b5b828203905092915050565b7f4e487b7100000000000000000000000000000000000000000000000000000000600052604160045260246000fd5b7f4e487b7100000000000000000000000000000000000000000000000000000000600052603260045260246000fd5b60006124c582611f3d565b91506124d083611f3d565b9250827fffffffffffffffffffffffffffffffffffffffffffffffffffffffffffffffff03821115612505576125046123f9565b5b828201905092915050565b600061251b82611f3d565b91507fffffffffffffffffffffffffffffffffffffffffffffffffffffffffffffffff82141561254e5761254d6123f9565b5b600182019050919050565b600082825260208201905092915050565b7f5265656e7472616e637947756172643a207265656e7472616e742063616c6c00600082015250565b60006125a0601f83612559565b91506125ab8261256a565b602082019050919050565b600060208201905081810360008301526125cf81612593565b9050919050565b7f5075726368617365206661696c65642c2070726f7065727479206973206e6f7460008201527f20666f722073616c650000000000000000000000000000000000000000000000602082015250565b6000612632602983612559565b915061263d826125d6565b604082019050919050565b6000602082019050818103600083015261266181612625565b9050919050565b7f596f752063616e6e6f742062757920796f7572206f776e2070726f7065727479600082015250565b600061269e602083612559565b91506126a982612668565b602082019050919050565b600060208201905081810360008301526126cd81612691565b9050919050565b7f50726f706572747920646f65736e742065786973740000000000000000000000600082015250565b600061270a601583612559565b9150612715826126d4565b602082019050919050565b60006020820190508181036000830152612739816126fd565b9050919050565b7f56616c756520656e74657265642069732062656c6f772070726f70657274792060008201527f76616c7565206f6620247b70726f706572747956616c75657d2e20506c65617360208201527f65207375626d69742074686520707269636520726571756972656420696e206f60408201527f7264657220746f2062757920746869732070726f70657274792e000000000000606082015250565b60006127e8607a83612559565b91506127f382612740565b608082019050919050565b60006020820190508181036000830152612817816127db565b9050919050565b600081905092915050565b50565b600061283960008361281e565b915061284482612829565b600082019050919050565b600061285a8261282c565b9150819050919050565b7f5472616e73666572206661696c65640000000000000000000000000000000000600082015250565b600061289a600f83612559565b91506128a582612864565b602082019050919050565b600060208201905081810360008301526128c98161288d565b9050919050565b6128d981611f3d565b82525050565b60006060820190506128f460008301866121ab565b61290160208301856121ab565b61290e60408301846128d0565b949350505050565b60006129218261232b565b9050919050565b61293181612916565b82525050565b600060a08201905061294c6000830188612928565b61295960208301876121ab565b61296660408301866128d0565b61297360608301856128d0565b6129806080830184612181565b9695505050505050565b7f4f776e61626c653a2063616c6c6572206973206e6f7420746865206f776e6572600082015250565b60006129c0602083612559565b91506129cb8261298a565b602082019050919050565b600060208201905081810360008301526129ef816129b3565b9050919050565b7f5072696365206d7573742062652067726561746572207468616e203000000000600082015250565b6000612a2c601c83612559565b9150612a37826129f6565b602082019050919050565b60006020820190508181036000830152612a5b81612a1f565b9050919050565b7f5468652070726f706572747920697320616c7265616479206c6973746564206f60008201527f6e206d61726b657420617320617661696c61626c6520666f722073656c6c0000602082015250565b6000612abe603e83612559565b9150612ac982612a62565b604082019050919050565b60006020820190508181036000830152612aed81612ab1565b9050919050565b6000604082019050612b0960008301856121ab565b612b166020830184612181565b9392505050565b6000604082019050612b3260008301856121ab565b612b3f60208301846128d0565b9392505050565b6000608082019050612b5b60008301876121ab565b612b6860208301866121ab565b612b7560408301856128d0565b612b826060830184612181565b95945050505050565b7f4f776e61626c653a206e6577206f776e657220697320746865207a65726f206160008201527f6464726573730000000000000000000000000000000000000000000000000000602082015250565b6000612be7602683612559565b9150612bf282612b8b565b604082019050919050565b60006020820190508181036000830152612c1681612bda565b905091905056fea264697066735822122064fa5b788231a20a6ce0a3c87a9af36be0ee466207b5ddc4149373e14ff6aed564736f6c634300080a0033",
  "immutableReferences": {},
  "source": "// SPDX-License-Identifier: MIT\npragma solidity 0.8.10;\n\nimport \"@openzeppelin/contracts/utils/Counters.sol\";\nimport \"@openzeppelin/contracts/security/ReentrancyGuard.sol\";\nimport \"@openzeppelin/contracts/token/ERC721/ERC721.sol\";\nimport \"@openzeppelin/contracts/access/Ownable.sol\";\nimport \"./ContractEstate.sol\";\n\n/// @title SmartProperty\n/// @author Kelvin Chelenje\n/// @dev This contract is used to list new properties on to the Real Estate NFT Market\n/// @dev _propertyListingId is an auto incremental id to identify the position on the market place\n/// @dev  Counters library is being used for tracking properties deeds for properties listed and number of properties Sold.\ncontract SmartProperty is Ownable, ReentrancyGuard {\n    using Counters for Counters.Counter;\n    Counters.Counter private _propertyListingId;\n    Counters.Counter private _propertiesSold;\n\n    ContractEstate public directestatePropertyNft;\n\n    address payable buyer;\n    mapping(uint256 => Property) private propertyData;\n\n    constructor() {\n        buyer = payable(msg.sender);\n    }\n\n    struct Property {\n        uint256 propertyListingId;\n        uint256 propertyValue;\n        bool sold;\n        uint256 deedNumber;\n        address payable seller;\n        address payable buyer;\n    }\n\n    event PropertyListed (\n        uint256 indexed propertyListingId,\n        uint256 indexed deedNumber,\n        address seller,\n        address buyer,\n        uint256 propertyValue,\n        bool sold\n    );\n\n    event Purchase(address seller, address buyer, uint256 price, uint256 deed, bool sold);\n\n    /// @dev sells an existing property\n    /// @dev first the property is not already listed as for sale\n    /// @param deedNumber Token ID of the Property\n    /// @param listingId Current property listing id \n    /// @param propertyValue Price of the Property specified by the seller\n    function relistProperty(\n        uint256 listingId,\n        uint256 deedNumber, \n        uint256 propertyValue,\n        address ownerAddress) \n        public payable nonReentrant {\n        \n        require(propertyValue > 0, \"Price must be greater than 0\");\n        require(propertyData[listingId].buyer != address(this), \"The property is already listed on market as available for sell\");\n\n        uint256 propertyListingId = _propertyListingId.current();\n\n        propertyData[propertyListingId] = Property(\n            propertyListingId,\n            propertyValue,\n            false,\n            deedNumber,\n            payable(msg.sender),\n            payable(address(this))\n        );\n\n        ERC721(ownerAddress).setApprovalForAll(address(this), true);\n        ERC721(ownerAddress).transferFrom(msg.sender, address(this), deedNumber);\n        ERC721(ownerAddress).approve(msg.sender, deedNumber);\n    \n        _propertyListingId.increment();\n\n        emit PropertyListed(\n            propertyListingId,\n            deedNumber,\n            msg.sender,\n            address(this),\n            propertyValue,\n            false\n        );\n    }\n\n    /// @notice lists a seller's property on the real estate market\n    /// @dev transfers the property from seller(buyer) to the Smart Property Contract\n    /// @dev first checks if the property is not listed already by checking the deedNumber\n    /// @param deedNumber Token ID of the Property\n    /// @param propertyValue Price of the Property specified by the seller\n    function listPropertyOnEstateMarket(\n        uint256 deedNumber, \n        uint256 propertyValue,\n        address ownerAddress) \n        public payable nonReentrant {\n        \n        require(propertyValue > 0, \"Price must be greater than 0\");\n\n        uint256 propertyListingId = _propertyListingId.current();\n\n        propertyData[propertyListingId] = Property(\n            propertyListingId,\n            propertyValue,\n            false,\n            deedNumber,\n            payable(msg.sender),\n            payable(address(this))\n        );\n\n        ERC721(ownerAddress).transferFrom(msg.sender, address(this), deedNumber);\n\n        _propertyListingId.increment();\n\n        emit PropertyListed(\n            propertyListingId,\n            deedNumber,\n            msg.sender,\n            address(this),\n            propertyValue,\n            false\n        );\n    }\n    /// @dev Transfer the property value amount from the buyer to the seller of the property.\n    /// @dev Transfers the deeds from the Smart Property contract to the buyer\n    /** @notice Functions requires that the property is listed as for sale, that the buyer is not the seller of the property\n                the price and deed number are specified. \n    */\n    /// @param propertyListingId Listing ID of the property on the real estate market place\n    function sellPropertytoBuyer(\n        uint256 propertyListingId,\n        address ownerAddress\n        ) public payable nonReentrant {\n\n        uint256 deedNumber = propertyData[propertyListingId].deedNumber;\n        uint256 propertyValue = propertyData[propertyListingId].propertyValue;\n\n        require(!propertyData[propertyListingId].sold, \"Purchase failed, property is not for sale\");\n        require(msg.sender!=propertyData[propertyListingId].seller, 'You cannot buy your own property');\n        require(deedNumber>0, 'Property doesnt exist');\n        require(msg.value == propertyValue, 'Value entered is below property value of ${propertyValue}. Please submit the price required in order to buy this property.');\n\n        (bool success, ) = propertyData[propertyListingId].seller.call{value: msg.value}(\"\");\n        require(success, \"Transfer failed\");\n\n        ERC721(ownerAddress).transferFrom(address(this), msg.sender, deedNumber);\n\n        propertyData[propertyListingId].buyer = payable(msg.sender);\n        propertyData[propertyListingId].sold = true;\n        _propertiesSold.increment();\n\n        emit Purchase(propertyData[propertyListingId].seller, msg.sender, msg.value, deedNumber,propertyData[propertyListingId].sold);\n    }\n\n    /// @notice Returns the details of the properties owned by the customer\n    /// @return Property[] All the properties owned by the customer\n    function getPropertiesOwnedByCustomer() public view returns(Property[] memory) {\n        \n        uint256 propertyCount = _propertyListingId.current();\n        uint256 numberOfProperties = 0;\n        uint256 currentIndex = 0;\n\n        for (uint256 i = 0; i < propertyCount; i++) {\n            if (!propertyData[i].sold && propertyData[i].seller == msg.sender) { //OR WHEN THE SOLD IS STILL FALSE THEN \n                numberOfProperties += 1;\n            }\n\n            if (propertyData[i].sold && propertyData[i].buyer == msg.sender) { //OR WHEN THE SOLD IS STILL FALSE THEN \n                numberOfProperties += 1;\n            }\n        }\n\n        Property[] memory customerProperties = new Property[](numberOfProperties);\n\n        for (uint256 i = 0; i < propertyCount; i++) {\n            if (!propertyData[i].sold && propertyData[i].seller == msg.sender){\n                uint256 currentId = i;\n                Property storage currentItem = propertyData[currentId];\n                customerProperties[currentIndex] = currentItem;\n                currentIndex += 1;\n            }\n\n            if (propertyData[i].sold && propertyData[i].buyer == msg.sender){\n                uint256 currentId = i;\n                Property storage currentItem = propertyData[currentId];\n                customerProperties[currentIndex] = currentItem;\n                currentIndex += 1;\n            }\n        }\n\n        return customerProperties;\n    }\n\n    /// @notice Finds all properties.\n    /// @return Property[] All the marketplace properties\n    function getAllProperties() public view returns(Property[] memory) {\n        uint256 numberOfProperties = _propertyListingId.current();\n        uint256 currentIndex = 0;\n\n        Property[] memory availableProperties = new Property[](numberOfProperties);\n        \n        for(uint256 i = 0; i < numberOfProperties; i++) {\n                uint256 currentId = i;\n                Property storage currentItem = propertyData[currentId];\n                availableProperties[currentIndex] = currentItem;\n                currentIndex += 1;\n        }\n\n        return availableProperties;\n    }\n\n\n    /// @notice Finds all available properties. i.e properties still available for buying.\n    /// @return Property[] All the unsold marketplace properties\n    function getAvailableProperties() public view returns(Property[] memory) {\n        uint256 numberOfProperties = _propertyListingId.current();\n        uint256 numberOfAvailableProperties = _propertyListingId.current() - _propertiesSold.current();\n        uint256 currentIndex = 0;\n\n        Property[] memory availableProperties = new Property[](numberOfAvailableProperties);\n        \n        for(uint256 i = 0; i < numberOfProperties; i++) {\n            if (propertyData[i].buyer == address(this)) {\n                uint256 currentId = i;\n                Property storage currentItem = propertyData[currentId];\n                availableProperties[currentIndex] = currentItem;\n                currentIndex += 1;\n            }\n        }\n\n        return availableProperties;\n    }\n\n    ///@notice check if the customer is the true owner of a property\n    ///@param propertyListingId is the property ID on the market\n    ///@param userAddress is the current owner of the property\n    ///@return bool if the userAddress is the owner of the properties\n    function verifyPropertyOwnership(uint256 propertyListingId, address userAddress) public view returns(bool){\n        if (propertyData[propertyListingId].sold  && propertyData[propertyListingId].buyer == userAddress){\n            return true;\n        }else if (!propertyData[propertyListingId].sold  && propertyData[propertyListingId].seller == userAddress){\n            return true;}\n        else {\n            return false;\n        }\n    }\n\n    /// @notice Finds a property by listing ID\n    /// @param propertyListingId ID of the property to be fetched\n    /// @return Property Details\n    function findPropertyById(uint256 propertyListingId) public view returns(Property memory) {\n        return propertyData[propertyListingId];\n    }\n\n    /// @notice Finds a property by listing deed number\n    /// @param deedNumber property deed\n    /// @return Property Details\n    function findPropertyByDeed(uint256 deedNumber) public view returns(Property memory) {\n        uint256 positionIndex;\n        uint256 propertyCount = _propertyListingId.current();\n        for (uint256 i = 0; i < propertyCount; i++) {\n            if (propertyData[i].deedNumber == deedNumber) {\n                positionIndex = i;\n            }\n        }\n        require(positionIndex>=0);\n        return propertyData[positionIndex];\n    }\n\n    ///@dev receive() and fallback() functions to allow the contract to receive ETH and data  \n    receive() external payable {\n    }\n\n    fallback() external payable {\n    }\n}",
  "sourcePath": "/Users/kelvinchelenje/Desktop/Incubation/Blockchain/projects/blockchain-developer-bootcamp-final-project/contracts/SmartProperty.sol",
  "compiler": {
    "name": "solc",
    "version": "0.8.10+commit.fc410830.Emscripten.clang"
  },
  "schemaVersion": "3.4.3",
  "updatedAt": "2021-12-08T22:35:44.101Z",
  "networkType": "ethereum",
  "devdoc": {
    "author": "Kelvin Chelenje",
    "details": "This contract is used to list new properties on to the Real Estate NFT Market_propertyListingId is an auto incremental id to identify the position on the market placeCounters library is being used for tracking properties deeds for properties listed and number of properties Sold.",
    "kind": "dev",
    "methods": {
      "findPropertyByDeed(uint256)": {
        "params": {
          "deedNumber": "property deed"
        },
        "returns": {
          "_0": "Property Details"
        }
      },
      "findPropertyById(uint256)": {
        "params": {
          "propertyListingId": "ID of the property to be fetched"
        },
        "returns": {
          "_0": "Property Details"
        }
      },
      "getAllProperties()": {
        "returns": {
          "_0": "Property[] All the marketplace properties"
        }
      },
      "getAvailableProperties()": {
        "returns": {
          "_0": "Property[] All the unsold marketplace properties"
        }
      },
      "getPropertiesOwnedByCustomer()": {
        "returns": {
          "_0": "Property[] All the properties owned by the customer"
        }
      },
      "listPropertyOnEstateMarket(uint256,uint256,address)": {
        "details": "transfers the property from seller(buyer) to the Smart Property Contractfirst checks if the property is not listed already by checking the deedNumber",
        "params": {
          "deedNumber": "Token ID of the Property",
          "propertyValue": "Price of the Property specified by the seller"
        }
      },
      "owner()": {
        "details": "Returns the address of the current owner."
      },
      "relistProperty(uint256,uint256,uint256,address)": {
        "details": "sells an existing propertyfirst the property is not already listed as for sale",
        "params": {
          "deedNumber": "Token ID of the Property",
          "listingId": "Current property listing id ",
          "propertyValue": "Price of the Property specified by the seller"
        }
      },
      "renounceOwnership()": {
        "details": "Leaves the contract without owner. It will not be possible to call `onlyOwner` functions anymore. Can only be called by the current owner. NOTE: Renouncing ownership will leave the contract without an owner, thereby removing any functionality that is only available to the owner."
      },
      "sellPropertytoBuyer(uint256,address)": {
        "params": {
          "propertyListingId": "Listing ID of the property on the real estate market place"
        }
      },
      "transferOwnership(address)": {
        "details": "Transfers ownership of the contract to a new account (`newOwner`). Can only be called by the current owner."
      },
      "verifyPropertyOwnership(uint256,address)": {
        "params": {
          "propertyListingId": "is the property ID on the market",
          "userAddress": "is the current owner of the property"
        },
        "returns": {
          "_0": "bool if the userAddress is the owner of the properties"
        }
      }
    },
    "title": "SmartProperty",
    "version": 1
  },
  "userdoc": {
    "kind": "user",
    "methods": {
      "findPropertyByDeed(uint256)": {
        "notice": "Finds a property by listing deed number"
      },
      "findPropertyById(uint256)": {
        "notice": "Finds a property by listing ID"
      },
      "getAllProperties()": {
        "notice": "Finds all properties."
      },
      "getAvailableProperties()": {
        "notice": "Finds all available properties. i.e properties still available for buying."
      },
      "getPropertiesOwnedByCustomer()": {
        "notice": "Returns the details of the properties owned by the customer"
      },
      "listPropertyOnEstateMarket(uint256,uint256,address)": {
        "notice": "lists a seller's property on the real estate market"
      },
      "verifyPropertyOwnership(uint256,address)": {
        "notice": "check if the customer is the true owner of a property"
      }
    },
    "version": 1
  }
}