{
  "contractName": "SmartProperty",
  "abi": [
    {
      "inputs": [],
      "stateMutability": "nonpayable",
      "type": "constructor"
    },
    {
      "anonymous": false,
      "inputs": [
        {
          "indexed": true,
          "internalType": "address",
          "name": "previousOwner",
          "type": "address"
        },
        {
          "indexed": true,
          "internalType": "address",
          "name": "newOwner",
          "type": "address"
        }
      ],
      "name": "OwnershipTransferred",
      "type": "event"
    },
    {
      "anonymous": false,
      "inputs": [
        {
          "indexed": true,
          "internalType": "uint256",
          "name": "propertyListingId",
          "type": "uint256"
        },
        {
          "indexed": true,
          "internalType": "uint256",
          "name": "deedNumber",
          "type": "uint256"
        },
        {
          "indexed": false,
          "internalType": "address",
          "name": "seller",
          "type": "address"
        },
        {
          "indexed": false,
          "internalType": "address",
          "name": "buyer",
          "type": "address"
        },
        {
          "indexed": false,
          "internalType": "uint256",
          "name": "propertyValue",
          "type": "uint256"
        },
        {
          "indexed": false,
          "internalType": "bool",
          "name": "sold",
          "type": "bool"
        }
      ],
      "name": "PropertyListed",
      "type": "event"
    },
    {
      "anonymous": false,
      "inputs": [
        {
          "indexed": false,
          "internalType": "address",
          "name": "seller",
          "type": "address"
        },
        {
          "indexed": false,
          "internalType": "address",
          "name": "buyer",
          "type": "address"
        },
        {
          "indexed": false,
          "internalType": "uint256",
          "name": "price",
          "type": "uint256"
        },
        {
          "indexed": false,
          "internalType": "uint256",
          "name": "deed",
          "type": "uint256"
        },
        {
          "indexed": false,
          "internalType": "bool",
          "name": "sold",
          "type": "bool"
        }
      ],
      "name": "Purchase",
      "type": "event"
    },
    {
      "stateMutability": "payable",
      "type": "fallback",
      "payable": true
    },
    {
      "inputs": [],
      "name": "directestatePropertyNft",
      "outputs": [
        {
          "internalType": "contract ContractEstate",
          "name": "",
          "type": "address"
        }
      ],
      "stateMutability": "view",
      "type": "function",
      "constant": true
    },
    {
      "inputs": [],
      "name": "owner",
      "outputs": [
        {
          "internalType": "address",
          "name": "",
          "type": "address"
        }
      ],
      "stateMutability": "view",
      "type": "function",
      "constant": true
    },
    {
      "inputs": [],
      "name": "renounceOwnership",
      "outputs": [],
      "stateMutability": "nonpayable",
      "type": "function"
    },
    {
      "inputs": [
        {
          "internalType": "address",
          "name": "newOwner",
          "type": "address"
        }
      ],
      "name": "transferOwnership",
      "outputs": [],
      "stateMutability": "nonpayable",
      "type": "function"
    },
    {
      "stateMutability": "payable",
      "type": "receive",
      "payable": true
    },
    {
      "inputs": [
        {
          "internalType": "uint256",
          "name": "deedNumber",
          "type": "uint256"
        },
        {
          "internalType": "uint256",
          "name": "propertyValue",
          "type": "uint256"
        },
        {
          "internalType": "address",
          "name": "ownerAddress",
          "type": "address"
        }
      ],
      "name": "listPropertyOnEstateMarket",
      "outputs": [],
      "stateMutability": "payable",
      "type": "function",
      "payable": true
    },
    {
      "inputs": [
        {
          "internalType": "uint256",
          "name": "propertyListingId",
          "type": "uint256"
        },
        {
          "internalType": "address",
          "name": "ownerAddress",
          "type": "address"
        }
      ],
      "name": "sellPropertytoBuyer",
      "outputs": [],
      "stateMutability": "payable",
      "type": "function",
      "payable": true
    },
    {
      "inputs": [],
      "name": "getPropertiesOwnedByCustomer",
      "outputs": [
        {
          "components": [
            {
              "internalType": "uint256",
              "name": "propertyListingId",
              "type": "uint256"
            },
            {
              "internalType": "uint256",
              "name": "propertyValue",
              "type": "uint256"
            },
            {
              "internalType": "bool",
              "name": "sold",
              "type": "bool"
            },
            {
              "internalType": "uint256",
              "name": "deedNumber",
              "type": "uint256"
            },
            {
              "internalType": "address payable",
              "name": "seller",
              "type": "address"
            },
            {
              "internalType": "address payable",
              "name": "buyer",
              "type": "address"
            }
          ],
          "internalType": "struct SmartProperty.Property[]",
          "name": "",
          "type": "tuple[]"
        }
      ],
      "stateMutability": "view",
      "type": "function",
      "constant": true
    },
    {
      "inputs": [],
      "name": "getAvailableProperties",
      "outputs": [
        {
          "components": [
            {
              "internalType": "uint256",
              "name": "propertyListingId",
              "type": "uint256"
            },
            {
              "internalType": "uint256",
              "name": "propertyValue",
              "type": "uint256"
            },
            {
              "internalType": "bool",
              "name": "sold",
              "type": "bool"
            },
            {
              "internalType": "uint256",
              "name": "deedNumber",
              "type": "uint256"
            },
            {
              "internalType": "address payable",
              "name": "seller",
              "type": "address"
            },
            {
              "internalType": "address payable",
              "name": "buyer",
              "type": "address"
            }
          ],
          "internalType": "struct SmartProperty.Property[]",
          "name": "",
          "type": "tuple[]"
        }
      ],
      "stateMutability": "view",
      "type": "function",
      "constant": true
    },
    {
      "inputs": [
        {
          "internalType": "uint256",
          "name": "propertyListingId",
          "type": "uint256"
        },
        {
          "internalType": "address",
          "name": "userAddress",
          "type": "address"
        }
      ],
      "name": "verifyPropertyOwnership",
      "outputs": [
        {
          "internalType": "bool",
          "name": "",
          "type": "bool"
        }
      ],
      "stateMutability": "view",
      "type": "function",
      "constant": true
    },
    {
      "inputs": [
        {
          "internalType": "uint256",
          "name": "propertyListingId",
          "type": "uint256"
        }
      ],
      "name": "findPropertyById",
      "outputs": [
        {
          "components": [
            {
              "internalType": "uint256",
              "name": "propertyListingId",
              "type": "uint256"
            },
            {
              "internalType": "uint256",
              "name": "propertyValue",
              "type": "uint256"
            },
            {
              "internalType": "bool",
              "name": "sold",
              "type": "bool"
            },
            {
              "internalType": "uint256",
              "name": "deedNumber",
              "type": "uint256"
            },
            {
              "internalType": "address payable",
              "name": "seller",
              "type": "address"
            },
            {
              "internalType": "address payable",
              "name": "buyer",
              "type": "address"
            }
          ],
          "internalType": "struct SmartProperty.Property",
          "name": "",
          "type": "tuple"
        }
      ],
      "stateMutability": "view",
      "type": "function",
      "constant": true
    },
    {
      "inputs": [
        {
          "internalType": "uint256",
          "name": "deedNumber",
          "type": "uint256"
        }
      ],
      "name": "findPropertyByDeed",
      "outputs": [
        {
          "components": [
            {
              "internalType": "uint256",
              "name": "propertyListingId",
              "type": "uint256"
            },
            {
              "internalType": "uint256",
              "name": "propertyValue",
              "type": "uint256"
            },
            {
              "internalType": "bool",
              "name": "sold",
              "type": "bool"
            },
            {
              "internalType": "uint256",
              "name": "deedNumber",
              "type": "uint256"
            },
            {
              "internalType": "address payable",
              "name": "seller",
              "type": "address"
            },
            {
              "internalType": "address payable",
              "name": "buyer",
              "type": "address"
            }
          ],
          "internalType": "struct SmartProperty.Property",
          "name": "",
          "type": "tuple"
        }
      ],
      "stateMutability": "view",
      "type": "function",
      "constant": true
    }
  ],
  "bytecode": "0x608060405234801561001057600080fd5b5061002d61002261007a60201b60201c565b61008260201b60201c565b6001808190555033600560006101000a81548173ffffffffffffffffffffffffffffffffffffffff021916908373ffffffffffffffffffffffffffffffffffffffff160217905550610146565b600033905090565b60008060009054906101000a900473ffffffffffffffffffffffffffffffffffffffff169050816000806101000a81548173ffffffffffffffffffffffffffffffffffffffff021916908373ffffffffffffffffffffffffffffffffffffffff1602179055508173ffffffffffffffffffffffffffffffffffffffff168173ffffffffffffffffffffffffffffffffffffffff167f8be0079c531659141344cd1fd0a4f28419497f9722a3daafe3b4186f6b6457e060405160405180910390a35050565b61249e80620001566000396000f3fe6080604052600436106100a05760003560e01c80638da5cb5b116100645780638da5cb5b1461016f57806397c41ec81461019a578063dc2fcb56146101d7578063e6907e2a14610202578063f2fde38b1461021e578063f98f9fc014610247576100a7565b806306d88bbf146100a95780632548ebc6146100d45780635547042f14610111578063667dac2b1461012d578063715018a614610158576100a7565b366100a757005b005b3480156100b557600080fd5b506100be610284565b6040516100cb9190611a46565b60405180910390f35b3480156100e057600080fd5b506100fb60048036038101906100f69190611ad7565b6104df565b6040516101089190611b26565b60405180910390f35b61012b60048036038101906101269190611ad7565b61062b565b005b34801561013957600080fd5b50610142610ac2565b60405161014f9190611a46565b60405180910390f35b34801561016457600080fd5b5061016d61105d565b005b34801561017b57600080fd5b506101846110e5565b6040516101919190611b50565b60405180910390f35b3480156101a657600080fd5b506101c160048036038101906101bc9190611b6b565b61110e565b6040516101ce9190611c13565b60405180910390f35b3480156101e357600080fd5b506101ec611220565b6040516101f99190611c8d565b60405180910390f35b61021c60048036038101906102179190611ca8565b611246565b005b34801561022a57600080fd5b5061024560048036038101906102409190611cfb565b6114e9565b005b34801561025357600080fd5b5061026e60048036038101906102699190611b6b565b6115e1565b60405161027b9190611c13565b60405180910390f35b606060006102926002611753565b905060006102a06003611753565b6102aa6002611753565b6102b49190611d57565b90506000808267ffffffffffffffff8111156102d3576102d2611d8b565b5b60405190808252806020026020018201604052801561030c57816020015b6102f9611843565b8152602001906001900390816102f15790505b50905060005b848110156104d4573073ffffffffffffffffffffffffffffffffffffffff166006600083815260200190815260200160002060050160009054906101000a900473ffffffffffffffffffffffffffffffffffffffff1673ffffffffffffffffffffffffffffffffffffffff1614156104c15760008190506000600660008381526020019081526020016000209050806040518060c001604052908160008201548152602001600182015481526020016002820160009054906101000a900460ff16151515158152602001600382015481526020016004820160009054906101000a900473ffffffffffffffffffffffffffffffffffffffff1673ffffffffffffffffffffffffffffffffffffffff1673ffffffffffffffffffffffffffffffffffffffff1681526020016005820160009054906101000a900473ffffffffffffffffffffffffffffffffffffffff1673ffffffffffffffffffffffffffffffffffffffff1673ffffffffffffffffffffffffffffffffffffffff16815250508486815181106104a4576104a3611dba565b5b60200260200101819052506001856104bc9190611de9565b945050505b80806104cc90611e3f565b915050610312565b508094505050505090565b60006006600084815260200190815260200160002060020160009054906101000a900460ff16801561057257508173ffffffffffffffffffffffffffffffffffffffff166006600085815260200190815260200160002060050160009054906101000a900473ffffffffffffffffffffffffffffffffffffffff1673ffffffffffffffffffffffffffffffffffffffff16145b156105805760019050610625565b6006600084815260200190815260200160002060020160009054906101000a900460ff1615801561061257508173ffffffffffffffffffffffffffffffffffffffff166006600085815260200190815260200160002060040160009054906101000a900473ffffffffffffffffffffffffffffffffffffffff1673ffffffffffffffffffffffffffffffffffffffff16145b156106205760019050610625565b600090505b92915050565b60026001541415610671576040517f08c379a000000000000000000000000000000000000000000000000000000000815260040161066890611ee5565b60405180910390fd5b60026001819055506000600660008481526020019081526020016000206003015490506000600660008581526020019081526020016000206001015490506006600085815260200190815260200160002060020160009054906101000a900460ff1615610713576040517f08c379a000000000000000000000000000000000000000000000000000000000815260040161070a90611f77565b60405180910390fd5b6006600085815260200190815260200160002060040160009054906101000a900473ffffffffffffffffffffffffffffffffffffffff1673ffffffffffffffffffffffffffffffffffffffff163373ffffffffffffffffffffffffffffffffffffffff1614156107b8576040517f08c379a00000000000000000000000000000000000000000000000000000000081526004016107af90611fe3565b60405180910390fd5b600082116107fb576040517f08c379a00000000000000000000000000000000000000000000000000000000081526004016107f29061204f565b60405180910390fd5b80341461083d576040517f08c379a00000000000000000000000000000000000000000000000000000000081526004016108349061212d565b60405180910390fd5b60006006600086815260200190815260200160002060040160009054906101000a900473ffffffffffffffffffffffffffffffffffffffff1673ffffffffffffffffffffffffffffffffffffffff16346040516108999061217e565b60006040518083038185875af1925050503d80600081146108d6576040519150601f19603f3d011682016040523d82523d6000602084013e6108db565b606091505b505090508061091f576040517f08c379a0000000000000000000000000000000000000000000000000000000008152600401610916906121df565b60405180910390fd5b8373ffffffffffffffffffffffffffffffffffffffff166323b872dd3033866040518463ffffffff1660e01b815260040161095c9392919061220e565b600060405180830381600087803b15801561097657600080fd5b505af115801561098a573d6000803e3d6000fd5b50505050336006600087815260200190815260200160002060050160006101000a81548173ffffffffffffffffffffffffffffffffffffffff021916908373ffffffffffffffffffffffffffffffffffffffff16021790555060016006600087815260200190815260200160002060020160006101000a81548160ff021916908315150217905550610a1c6003611761565b7fc9c545a18864a8ff347073b6b8e8aa9f460b82c853206d0980322cbd3fa0e0446006600087815260200190815260200160002060040160009054906101000a900473ffffffffffffffffffffffffffffffffffffffff16333486600660008b815260200190815260200160002060020160009054906101000a900460ff16604051610aac959493929190612266565b60405180910390a1505050600180819055505050565b60606000610ad06002611753565b905060008060005b83811015610c40576006600082815260200190815260200160002060020160009054906101000a900460ff16158015610b7257503373ffffffffffffffffffffffffffffffffffffffff166006600083815260200190815260200160002060040160009054906101000a900473ffffffffffffffffffffffffffffffffffffffff1673ffffffffffffffffffffffffffffffffffffffff16145b15610b8757600183610b849190611de9565b92505b6006600082815260200190815260200160002060020160009054906101000a900460ff168015610c1857503373ffffffffffffffffffffffffffffffffffffffff166006600083815260200190815260200160002060050160009054906101000a900473ffffffffffffffffffffffffffffffffffffffff1673ffffffffffffffffffffffffffffffffffffffff16145b15610c2d57600183610c2a9190611de9565b92505b8080610c3890611e3f565b915050610ad8565b5060008267ffffffffffffffff811115610c5d57610c5c611d8b565b5b604051908082528060200260200182016040528015610c9657816020015b610c83611843565b815260200190600190039081610c7b5790505b50905060005b84811015611052576006600082815260200190815260200160002060020160009054906101000a900460ff16158015610d3657503373ffffffffffffffffffffffffffffffffffffffff166006600083815260200190815260200160002060040160009054906101000a900473ffffffffffffffffffffffffffffffffffffffff1673ffffffffffffffffffffffffffffffffffffffff16145b15610e72576000819050600660008281526020019081526020016000206040518060c001604052908160008201548152602001600182015481526020016002820160009054906101000a900460ff16151515158152602001600382015481526020016004820160009054906101000a900473ffffffffffffffffffffffffffffffffffffffff1673ffffffffffffffffffffffffffffffffffffffff1673ffffffffffffffffffffffffffffffffffffffff1681526020016005820160009054906101000a900473ffffffffffffffffffffffffffffffffffffffff1673ffffffffffffffffffffffffffffffffffffffff1673ffffffffffffffffffffffffffffffffffffffff1681525050838581518110610e5657610e55611dba565b5b6020026020010181905250600184610e6e9190611de9565b9350505b6006600082815260200190815260200160002060020160009054906101000a900460ff168015610f0357503373ffffffffffffffffffffffffffffffffffffffff166006600083815260200190815260200160002060050160009054906101000a900473ffffffffffffffffffffffffffffffffffffffff1673ffffffffffffffffffffffffffffffffffffffff16145b1561103f576000819050600660008281526020019081526020016000206040518060c001604052908160008201548152602001600182015481526020016002820160009054906101000a900460ff16151515158152602001600382015481526020016004820160009054906101000a900473ffffffffffffffffffffffffffffffffffffffff1673ffffffffffffffffffffffffffffffffffffffff1673ffffffffffffffffffffffffffffffffffffffff1681526020016005820160009054906101000a900473ffffffffffffffffffffffffffffffffffffffff1673ffffffffffffffffffffffffffffffffffffffff1673ffffffffffffffffffffffffffffffffffffffff168152505083858151811061102357611022611dba565b5b602002602001018190525060018461103b9190611de9565b9350505b808061104a90611e3f565b915050610c9c565b508094505050505090565b611065611777565b73ffffffffffffffffffffffffffffffffffffffff166110836110e5565b73ffffffffffffffffffffffffffffffffffffffff16146110d9576040517f08c379a00000000000000000000000000000000000000000000000000000000081526004016110d090612305565b60405180910390fd5b6110e3600061177f565b565b60008060009054906101000a900473ffffffffffffffffffffffffffffffffffffffff16905090565b611116611843565b600660008381526020019081526020016000206040518060c001604052908160008201548152602001600182015481526020016002820160009054906101000a900460ff16151515158152602001600382015481526020016004820160009054906101000a900473ffffffffffffffffffffffffffffffffffffffff1673ffffffffffffffffffffffffffffffffffffffff1673ffffffffffffffffffffffffffffffffffffffff1681526020016005820160009054906101000a900473ffffffffffffffffffffffffffffffffffffffff1673ffffffffffffffffffffffffffffffffffffffff1673ffffffffffffffffffffffffffffffffffffffff16815250509050919050565b600460009054906101000a900473ffffffffffffffffffffffffffffffffffffffff1681565b6002600154141561128c576040517f08c379a000000000000000000000000000000000000000000000000000000000815260040161128390611ee5565b60405180910390fd5b6002600181905550600082116112d7576040517f08c379a00000000000000000000000000000000000000000000000000000000081526004016112ce90612371565b60405180910390fd5b60006112e36002611753565b90506040518060c001604052808281526020018481526020016000151581526020018581526020013373ffffffffffffffffffffffffffffffffffffffff1681526020013073ffffffffffffffffffffffffffffffffffffffff1681525060066000838152602001908152602001600020600082015181600001556020820151816001015560408201518160020160006101000a81548160ff0219169083151502179055506060820151816003015560808201518160040160006101000a81548173ffffffffffffffffffffffffffffffffffffffff021916908373ffffffffffffffffffffffffffffffffffffffff16021790555060a08201518160050160006101000a81548173ffffffffffffffffffffffffffffffffffffffff021916908373ffffffffffffffffffffffffffffffffffffffff1602179055509050508173ffffffffffffffffffffffffffffffffffffffff166323b872dd3330876040518463ffffffff1660e01b81526004016114609392919061220e565b600060405180830381600087803b15801561147a57600080fd5b505af115801561148e573d6000803e3d6000fd5b5050505061149c6002611761565b83817f1c3658b5b0d110725f093fe28f0c8ac55df55cddd0bbf0d9627c5e10f31636e233308760006040516114d49493929190612391565b60405180910390a35060018081905550505050565b6114f1611777565b73ffffffffffffffffffffffffffffffffffffffff1661150f6110e5565b73ffffffffffffffffffffffffffffffffffffffff1614611565576040517f08c379a000000000000000000000000000000000000000000000000000000000815260040161155c90612305565b60405180910390fd5b600073ffffffffffffffffffffffffffffffffffffffff168173ffffffffffffffffffffffffffffffffffffffff1614156115d5576040517f08c379a00000000000000000000000000000000000000000000000000000000081526004016115cc90612448565b60405180910390fd5b6115de8161177f565b50565b6115e9611843565b6000806115f66002611753565b905060005b81811015611638578460066000838152602001908152602001600020600301541415611625578092505b808061163090611e3f565b9150506115fb565b50600082101561164757600080fd5b600660008381526020019081526020016000206040518060c001604052908160008201548152602001600182015481526020016002820160009054906101000a900460ff16151515158152602001600382015481526020016004820160009054906101000a900473ffffffffffffffffffffffffffffffffffffffff1673ffffffffffffffffffffffffffffffffffffffff1673ffffffffffffffffffffffffffffffffffffffff1681526020016005820160009054906101000a900473ffffffffffffffffffffffffffffffffffffffff1673ffffffffffffffffffffffffffffffffffffffff1673ffffffffffffffffffffffffffffffffffffffff168152505092505050919050565b600081600001549050919050565b6001816000016000828254019250508190555050565b600033905090565b60008060009054906101000a900473ffffffffffffffffffffffffffffffffffffffff169050816000806101000a81548173ffffffffffffffffffffffffffffffffffffffff021916908373ffffffffffffffffffffffffffffffffffffffff1602179055508173ffffffffffffffffffffffffffffffffffffffff168173ffffffffffffffffffffffffffffffffffffffff167f8be0079c531659141344cd1fd0a4f28419497f9722a3daafe3b4186f6b6457e060405160405180910390a35050565b6040518060c00160405280600081526020016000815260200160001515815260200160008152602001600073ffffffffffffffffffffffffffffffffffffffff168152602001600073ffffffffffffffffffffffffffffffffffffffff1681525090565b600081519050919050565b600082825260208201905092915050565b6000819050602082019050919050565b6000819050919050565b6118e6816118d3565b82525050565b60008115159050919050565b611901816118ec565b82525050565b600073ffffffffffffffffffffffffffffffffffffffff82169050919050565b600061193282611907565b9050919050565b61194281611927565b82525050565b60c08201600082015161195e60008501826118dd565b50602082015161197160208501826118dd565b50604082015161198460408501826118f8565b50606082015161199760608501826118dd565b5060808201516119aa6080850182611939565b5060a08201516119bd60a0850182611939565b50505050565b60006119cf8383611948565b60c08301905092915050565b6000602082019050919050565b60006119f3826118a7565b6119fd81856118b2565b9350611a08836118c3565b8060005b83811015611a39578151611a2088826119c3565b9750611a2b836119db565b925050600181019050611a0c565b5085935050505092915050565b60006020820190508181036000830152611a6081846119e8565b905092915050565b600080fd5b611a76816118d3565b8114611a8157600080fd5b50565b600081359050611a9381611a6d565b92915050565b6000611aa482611907565b9050919050565b611ab481611a99565b8114611abf57600080fd5b50565b600081359050611ad181611aab565b92915050565b60008060408385031215611aee57611aed611a68565b5b6000611afc85828601611a84565b9250506020611b0d85828601611ac2565b9150509250929050565b611b20816118ec565b82525050565b6000602082019050611b3b6000830184611b17565b92915050565b611b4a81611a99565b82525050565b6000602082019050611b656000830184611b41565b92915050565b600060208284031215611b8157611b80611a68565b5b6000611b8f84828501611a84565b91505092915050565b60c082016000820151611bae60008501826118dd565b506020820151611bc160208501826118dd565b506040820151611bd460408501826118f8565b506060820151611be760608501826118dd565b506080820151611bfa6080850182611939565b5060a0820151611c0d60a0850182611939565b50505050565b600060c082019050611c286000830184611b98565b92915050565b6000819050919050565b6000611c53611c4e611c4984611907565b611c2e565b611907565b9050919050565b6000611c6582611c38565b9050919050565b6000611c7782611c5a565b9050919050565b611c8781611c6c565b82525050565b6000602082019050611ca26000830184611c7e565b92915050565b600080600060608486031215611cc157611cc0611a68565b5b6000611ccf86828701611a84565b9350506020611ce086828701611a84565b9250506040611cf186828701611ac2565b9150509250925092565b600060208284031215611d1157611d10611a68565b5b6000611d1f84828501611ac2565b91505092915050565b7f4e487b7100000000000000000000000000000000000000000000000000000000600052601160045260246000fd5b6000611d62826118d3565b9150611d6d836118d3565b925082821015611d8057611d7f611d28565b5b828203905092915050565b7f4e487b7100000000000000000000000000000000000000000000000000000000600052604160045260246000fd5b7f4e487b7100000000000000000000000000000000000000000000000000000000600052603260045260246000fd5b6000611df4826118d3565b9150611dff836118d3565b9250827fffffffffffffffffffffffffffffffffffffffffffffffffffffffffffffffff03821115611e3457611e33611d28565b5b828201905092915050565b6000611e4a826118d3565b91507fffffffffffffffffffffffffffffffffffffffffffffffffffffffffffffffff821415611e7d57611e7c611d28565b5b600182019050919050565b600082825260208201905092915050565b7f5265656e7472616e637947756172643a207265656e7472616e742063616c6c00600082015250565b6000611ecf601f83611e88565b9150611eda82611e99565b602082019050919050565b60006020820190508181036000830152611efe81611ec2565b9050919050565b7f5075726368617365206661696c65642c2070726f7065727479206973206e6f7460008201527f20666f722073616c650000000000000000000000000000000000000000000000602082015250565b6000611f61602983611e88565b9150611f6c82611f05565b604082019050919050565b60006020820190508181036000830152611f9081611f54565b9050919050565b7f596f752063616e6e6f742062757920796f7572206f776e2070726f7065727479600082015250565b6000611fcd602083611e88565b9150611fd882611f97565b602082019050919050565b60006020820190508181036000830152611ffc81611fc0565b9050919050565b7f50726f706572747920646f65736e742065786973740000000000000000000000600082015250565b6000612039601583611e88565b915061204482612003565b602082019050919050565b600060208201905081810360008301526120688161202c565b9050919050565b7f56616c756520656e74657265642069732062656c6f772070726f70657274792060008201527f76616c7565206f6620247b70726f706572747956616c75657d2e20506c65617360208201527f65207375626d69742074686520707269636520726571756972656420696e206f60408201527f7264657220746f2062757920746869732070726f70657274792e000000000000606082015250565b6000612117607a83611e88565b91506121228261206f565b608082019050919050565b600060208201905081810360008301526121468161210a565b9050919050565b600081905092915050565b50565b600061216860008361214d565b915061217382612158565b600082019050919050565b60006121898261215b565b9150819050919050565b7f5472616e73666572206661696c65640000000000000000000000000000000000600082015250565b60006121c9600f83611e88565b91506121d482612193565b602082019050919050565b600060208201905081810360008301526121f8816121bc565b9050919050565b612208816118d3565b82525050565b60006060820190506122236000830186611b41565b6122306020830185611b41565b61223d60408301846121ff565b949350505050565b600061225082611c5a565b9050919050565b61226081612245565b82525050565b600060a08201905061227b6000830188612257565b6122886020830187611b41565b61229560408301866121ff565b6122a260608301856121ff565b6122af6080830184611b17565b9695505050505050565b7f4f776e61626c653a2063616c6c6572206973206e6f7420746865206f776e6572600082015250565b60006122ef602083611e88565b91506122fa826122b9565b602082019050919050565b6000602082019050818103600083015261231e816122e2565b9050919050565b7f5072696365206d7573742062652067726561746572207468616e203000000000600082015250565b600061235b601c83611e88565b915061236682612325565b602082019050919050565b6000602082019050818103600083015261238a8161234e565b9050919050565b60006080820190506123a66000830187611b41565b6123b36020830186611b41565b6123c060408301856121ff565b6123cd6060830184611b17565b95945050505050565b7f4f776e61626c653a206e6577206f776e657220697320746865207a65726f206160008201527f6464726573730000000000000000000000000000000000000000000000000000602082015250565b6000612432602683611e88565b915061243d826123d6565b604082019050919050565b6000602082019050818103600083015261246181612425565b905091905056fea26469706673582212207138b27c3f2abfa030f87208e00f9ae24fd0b58694049c49d6e8e782c455942d64736f6c634300080a0033",
  "immutableReferences": {},
  "source": "// SPDX-License-Identifier: MIT\npragma solidity 0.8.10;\n\nimport \"@openzeppelin/contracts/utils/Counters.sol\";\nimport \"@openzeppelin/contracts/security/ReentrancyGuard.sol\";\nimport \"@openzeppelin/contracts/token/ERC721/ERC721.sol\";\nimport \"@openzeppelin/contracts/access/Ownable.sol\";\nimport \"./ContractEstate.sol\";\n\n/// @title SmartProperty\n/// @author Kelvin Chelenje\n/// @dev This contract is used to list new properties on to the Real Estate NFT Market\n/// @dev _propertyListingId is an auto incremental id to identify the position on the market place\n/// @dev  Counters library is being used for tracking properties deeds for properties listed and number of properties Sold.\ncontract SmartProperty is Ownable, ReentrancyGuard {\n    using Counters for Counters.Counter;\n    Counters.Counter private _propertyListingId;\n    Counters.Counter private _propertiesSold;\n\n    ContractEstate public directestatePropertyNft;\n\n    address payable buyer;\n    mapping(uint256 => Property) private propertyData;\n\n    constructor() {\n        buyer = payable(msg.sender);\n    }\n\n    struct Property {\n        uint256 propertyListingId;\n        uint256 propertyValue;\n        bool sold;\n        uint256 deedNumber;\n        address payable seller;\n        address payable buyer;\n    }\n\n    event PropertyListed (\n        uint256 indexed propertyListingId,\n        uint256 indexed deedNumber,\n        address seller,\n        address buyer,\n        uint256 propertyValue,\n        bool sold\n    );\n\n    event Purchase(address seller, address buyer, uint256 price, uint256 deed, bool sold);\n\n    /// @notice lists a seller's property on the real estate market\n    /// @dev transfers the property from seller(buyer) to the Smart Property Contract\n    /// @dev first checks if the property is not listed already by checking the deedNumber\n    /// @param deedNumber Token ID of the Property\n    /// @param propertyValue Price of the Property specified by the seller\n    function listPropertyOnEstateMarket(\n        uint256 deedNumber, \n        uint256 propertyValue,\n        address ownerAddress) \n        public payable nonReentrant {\n        \n        // Add a requirement to check the NFT Meta data owner with msg.sender\n        require(propertyValue > 0, \"Price must be greater than 0\");\n\n        uint256 propertyListingId = _propertyListingId.current();\n\n        propertyData[propertyListingId] = Property(\n            propertyListingId,\n            propertyValue,\n            false,\n            deedNumber,\n            payable(msg.sender),\n            payable(address(this))\n        );\n\n        ERC721(ownerAddress).transferFrom(msg.sender, address(this), deedNumber);\n\n        _propertyListingId.increment();\n\n        emit PropertyListed(\n            propertyListingId,\n            deedNumber,\n            msg.sender,\n            address(this),\n            propertyValue,\n            false\n        );\n    }\n    /// @dev Transfer the property value amount from the buyer to the seller of the property.\n    /// @dev Transfers the deeds from the Smart Property contract to the buyer\n    /** @notice Functions requires that the property is listed as for sale, that the buyer is not the seller of the property\n                the price and deed number are specified. \n    */\n    /// @param propertyListingId Listing ID of the property on the real estate market place\n    function sellPropertytoBuyer(\n        uint256 propertyListingId,\n        address ownerAddress\n        ) public payable nonReentrant {\n\n        uint256 deedNumber = propertyData[propertyListingId].deedNumber;\n        uint256 propertyValue = propertyData[propertyListingId].propertyValue;\n\n        require(!propertyData[propertyListingId].sold, \"Purchase failed, property is not for sale\");\n        require(msg.sender!=propertyData[propertyListingId].seller, 'You cannot buy your own property');\n        require(deedNumber>0, 'Property doesnt exist');\n        require(msg.value == propertyValue, 'Value entered is below property value of ${propertyValue}. Please submit the price required in order to buy this property.');\n\n        (bool success, ) = propertyData[propertyListingId].seller.call{value: msg.value}(\"\");\n        require(success, \"Transfer failed\");\n\n        ERC721(ownerAddress).transferFrom(address(this), msg.sender, deedNumber);\n\n        propertyData[propertyListingId].buyer = payable(msg.sender);\n        propertyData[propertyListingId].sold = true;\n        _propertiesSold.increment();\n\n        emit Purchase(propertyData[propertyListingId].seller, msg.sender, msg.value, deedNumber,propertyData[propertyListingId].sold);\n    }\n\n    /// @notice Returns the details of the properties owned by the customer\n    /// @return Property[] All the properties owned by the customer\n    function getPropertiesOwnedByCustomer() public view returns(Property[] memory) {\n        \n        uint propertyCount = _propertyListingId.current();\n        uint numberOfProperties = 0;\n        uint currentIndex = 0;\n\n        for (uint i = 0; i < propertyCount; i++) {\n            if (!propertyData[i].sold && propertyData[i].seller == msg.sender) { //OR WHEN THE SOLD IS STILL FALSE THEN \n                numberOfProperties += 1;\n            }\n\n            if (propertyData[i].sold && propertyData[i].buyer == msg.sender) { //OR WHEN THE SOLD IS STILL FALSE THEN \n                numberOfProperties += 1;\n            }\n        }\n\n        Property[] memory customerProperties = new Property[](numberOfProperties);\n\n        for (uint i = 0; i < propertyCount; i++) {\n            if (!propertyData[i].sold && propertyData[i].seller == msg.sender){\n                uint currentId = i;\n                customerProperties[currentIndex] = propertyData[currentId];\n                currentIndex += 1;\n            }\n\n            if (propertyData[i].sold && propertyData[i].buyer == msg.sender){\n                uint currentId = i;\n                customerProperties[currentIndex] = propertyData[currentId];\n                currentIndex += 1;\n            }\n        }\n\n        return customerProperties;\n    }\n\n    /// @notice Finds all available properties. i.e properties still available for buying.\n    /// @return Property[] All the unsold marketplace properties\n    function getAvailableProperties() public view returns(Property[] memory) {\n        uint256 numberOfProperties = _propertyListingId.current();\n        uint256 numberOfAvailableProperties = _propertyListingId.current() - _propertiesSold.current();\n        uint256 currentIndex = 0;\n\n        Property[] memory availableProperties = new Property[](numberOfAvailableProperties);\n        \n        for(uint256 i = 0; i < numberOfProperties; i++) {\n            if (propertyData[i].buyer == address(this)) {\n                uint256 currentId = i;\n                Property storage currentItem = propertyData[currentId];\n                availableProperties[currentIndex] = currentItem;\n                currentIndex += 1;\n            }\n        }\n\n        return availableProperties;\n    }\n\n    ///@notice check if the customer is the true owner of a property\n    ///@param propertyListingId is the property ID on the market\n    ///@param userAddress is the current owner of the property\n    ///@return bool if the userAddress is the owner of the properties\n    function verifyPropertyOwnership(uint propertyListingId, address userAddress) public view returns(bool){\n        if (propertyData[propertyListingId].sold  && propertyData[propertyListingId].buyer == userAddress){\n            return true;\n        }else if (!propertyData[propertyListingId].sold  && propertyData[propertyListingId].seller == userAddress){\n            return true;}\n        else {\n            return false;\n        }\n    }\n\n    /// @notice Finds a property by listing ID\n    /// @param propertyListingId ID of the property to be fetched\n    /// @return Property Details\n    function findPropertyById(uint256 propertyListingId) public view returns(Property memory) {\n        return propertyData[propertyListingId];\n    }\n\n    /// @notice Finds a property by listing deed number\n    /// @param deedNumber property deed\n    /// @return Property Details\n    function findPropertyByDeed(uint256 deedNumber) public view returns(Property memory) {\n        uint positionIndex;\n        uint propertyCount = _propertyListingId.current();\n        for (uint i = 0; i < propertyCount; i++) {\n            if (propertyData[i].deedNumber == deedNumber) {\n                positionIndex = i;\n            }\n        }\n        require(positionIndex>=0);\n        return propertyData[positionIndex];\n    }\n\n    ///@dev receive() and fallback() functions to allow the contract to receive ETH and data  \n    receive() external payable {\n    }\n\n    fallback() external payable {\n    }\n}",
  "sourcePath": "/Users/kelvinchelenje/Desktop/Incubation/Blockchain/projects/blockchain-developer-bootcamp-final-project/contracts/SmartProperty.sol",
  "compiler": {
    "name": "solc",
    "version": "0.8.10+commit.fc410830.Emscripten.clang"
  },
  "schemaVersion": "3.4.3",
  "updatedAt": "2021-11-30T18:36:13.263Z",
  "networkType": "ethereum",
  "devdoc": {
    "author": "Kelvin Chelenje",
    "details": "This contract is used to list new properties on to the Real Estate NFT Market_propertyListingId is an auto incremental id to identify the position on the market placeCounters library is being used for tracking properties deeds for properties listed and number of properties Sold.",
    "kind": "dev",
    "methods": {
      "findPropertyByDeed(uint256)": {
        "params": {
          "deedNumber": "property deed"
        },
        "returns": {
          "_0": "Property Details"
        }
      },
      "findPropertyById(uint256)": {
        "params": {
          "propertyListingId": "ID of the property to be fetched"
        },
        "returns": {
          "_0": "Property Details"
        }
      },
      "getAvailableProperties()": {
        "returns": {
          "_0": "Property[] All the unsold marketplace properties"
        }
      },
      "getPropertiesOwnedByCustomer()": {
        "returns": {
          "_0": "Property[] All the properties owned by the customer"
        }
      },
      "listPropertyOnEstateMarket(uint256,uint256,address)": {
        "details": "transfers the property from seller(buyer) to the Smart Property Contractfirst checks if the property is not listed already by checking the deedNumber",
        "params": {
          "deedNumber": "Token ID of the Property",
          "propertyValue": "Price of the Property specified by the seller"
        }
      },
      "owner()": {
        "details": "Returns the address of the current owner."
      },
      "renounceOwnership()": {
        "details": "Leaves the contract without owner. It will not be possible to call `onlyOwner` functions anymore. Can only be called by the current owner. NOTE: Renouncing ownership will leave the contract without an owner, thereby removing any functionality that is only available to the owner."
      },
      "sellPropertytoBuyer(uint256,address)": {
        "params": {
          "propertyListingId": "Listing ID of the property on the real estate market place"
        }
      },
      "transferOwnership(address)": {
        "details": "Transfers ownership of the contract to a new account (`newOwner`). Can only be called by the current owner."
      },
      "verifyPropertyOwnership(uint256,address)": {
        "params": {
          "propertyListingId": "is the property ID on the market",
          "userAddress": "is the current owner of the property"
        },
        "returns": {
          "_0": "bool if the userAddress is the owner of the properties"
        }
      }
    },
    "title": "SmartProperty",
    "version": 1
  },
  "userdoc": {
    "kind": "user",
    "methods": {
      "findPropertyByDeed(uint256)": {
        "notice": "Finds a property by listing deed number"
      },
      "findPropertyById(uint256)": {
        "notice": "Finds a property by listing ID"
      },
      "getAvailableProperties()": {
        "notice": "Finds all available properties. i.e properties still available for buying."
      },
      "getPropertiesOwnedByCustomer()": {
        "notice": "Returns the details of the properties owned by the customer"
      },
      "listPropertyOnEstateMarket(uint256,uint256,address)": {
        "notice": "lists a seller's property on the real estate market"
      },
      "verifyPropertyOwnership(uint256,address)": {
        "notice": "check if the customer is the true owner of a property"
      }
    },
    "version": 1
  }
}